{
  "_format": "hh-sol-artifact-1",
  "contractName": "Campaign",
  "sourceName": "contracts/Campaign.sol",
  "abi": [
    {
      "inputs": [],
      "stateMutability": "nonpayable",
      "type": "constructor"
    },
    {
      "inputs": [
        {
          "internalType": "uint256",
          "name": "_projIndex",
          "type": "uint256"
        },
        {
          "internalType": "uint256",
          "name": "_reqIndex",
          "type": "uint256"
        }
      ],
      "name": "approveRequest",
      "outputs": [],
      "stateMutability": "nonpayable",
      "type": "function"
    },
    {
      "inputs": [
        {
          "internalType": "uint256",
          "name": "_id",
          "type": "uint256"
        }
      ],
      "name": "contribute",
      "outputs": [],
      "stateMutability": "payable",
      "type": "function"
    },
    {
      "inputs": [
        {
          "internalType": "string",
          "name": "_title",
          "type": "string"
        },
        {
          "internalType": "uint256",
          "name": "_goal",
          "type": "uint256"
        },
        {
          "internalType": "string",
          "name": "_story",
          "type": "string"
        },
        {
          "internalType": "uint256",
          "name": "_maxReachTime",
          "type": "uint256"
        },
        {
          "internalType": "uint256",
          "name": "_tokenValue",
          "type": "uint256"
        },
        {
          "internalType": "address",
          "name": "_address",
          "type": "address"
        }
      ],
      "name": "createProject",
      "outputs": [],
      "stateMutability": "nonpayable",
      "type": "function"
    },
    {
      "inputs": [
        {
          "internalType": "uint256",
          "name": "_projectID",
          "type": "uint256"
        },
        {
          "internalType": "string",
          "name": "_description",
          "type": "string"
        },
        {
          "internalType": "uint256",
          "name": "_amount",
          "type": "uint256"
        },
        {
          "internalType": "address",
          "name": "_recipient",
          "type": "address"
        }
      ],
      "name": "createRequest",
      "outputs": [],
      "stateMutability": "nonpayable",
      "type": "function"
    },
    {
      "inputs": [],
      "name": "getProjects",
      "outputs": [
        {
          "components": [
            {
              "internalType": "uint256",
              "name": "id",
              "type": "uint256"
            },
            {
              "internalType": "address",
              "name": "owner",
              "type": "address"
            },
            {
              "internalType": "string",
              "name": "title",
              "type": "string"
            },
            {
              "internalType": "uint256",
              "name": "goal",
              "type": "uint256"
            },
            {
              "internalType": "uint256",
              "name": "launchDay",
              "type": "uint256"
            },
            {
              "internalType": "string",
              "name": "story",
              "type": "string"
            },
            {
              "internalType": "uint256",
              "name": "maxReachTime",
              "type": "uint256"
            },
            {
              "internalType": "uint256",
              "name": "numOfContributers",
              "type": "uint256"
            },
            {
              "internalType": "uint256",
              "name": "tokenValue",
              "type": "uint256"
            },
            {
              "components": [
                {
                  "internalType": "uint256",
                  "name": "id",
                  "type": "uint256"
                },
                {
                  "internalType": "string",
                  "name": "description",
                  "type": "string"
                },
                {
                  "internalType": "uint256",
                  "name": "amount",
                  "type": "uint256"
                },
                {
                  "internalType": "address payable",
                  "name": "recipient",
                  "type": "address"
                },
                {
                  "internalType": "string",
                  "name": "status",
                  "type": "string"
                },
                {
                  "internalType": "bool",
                  "name": "completed",
                  "type": "bool"
                },
                {
                  "internalType": "uint256",
                  "name": "approvalsNum",
                  "type": "uint256"
                }
              ],
              "internalType": "struct Campaign.Request[]",
              "name": "requests",
              "type": "tuple[]"
            },
            {
              "internalType": "contract ICOToken",
              "name": "icoToken",
              "type": "address"
            },
            {
              "internalType": "address[]",
              "name": "contributors",
              "type": "address[]"
            },
            {
              "internalType": "uint256",
              "name": "funds",
              "type": "uint256"
            }
          ],
          "internalType": "struct Campaign.Project[]",
          "name": "",
          "type": "tuple[]"
        }
      ],
      "stateMutability": "view",
      "type": "function"
    },
    {
      "inputs": [
        {
          "internalType": "uint256",
          "name": "_projID",
          "type": "uint256"
        },
        {
          "internalType": "uint256",
          "name": "_reqID",
          "type": "uint256"
        }
      ],
      "name": "getRequest",
      "outputs": [
        {
          "components": [
            {
              "internalType": "uint256",
              "name": "id",
              "type": "uint256"
            },
            {
              "internalType": "string",
              "name": "description",
              "type": "string"
            },
            {
              "internalType": "uint256",
              "name": "amount",
              "type": "uint256"
            },
            {
              "internalType": "address payable",
              "name": "recipient",
              "type": "address"
            },
            {
              "internalType": "string",
              "name": "status",
              "type": "string"
            },
            {
              "internalType": "bool",
              "name": "completed",
              "type": "bool"
            },
            {
              "internalType": "uint256",
              "name": "approvalsNum",
              "type": "uint256"
            }
          ],
          "internalType": "struct Campaign.Request",
          "name": "",
          "type": "tuple"
        }
      ],
      "stateMutability": "view",
      "type": "function"
    },
    {
      "inputs": [
        {
          "internalType": "uint256",
          "name": "_projID",
          "type": "uint256"
        }
      ],
      "name": "getRequests",
      "outputs": [
        {
          "components": [
            {
              "internalType": "uint256",
              "name": "id",
              "type": "uint256"
            },
            {
              "internalType": "string",
              "name": "description",
              "type": "string"
            },
            {
              "internalType": "uint256",
              "name": "amount",
              "type": "uint256"
            },
            {
              "internalType": "address payable",
              "name": "recipient",
              "type": "address"
            },
            {
              "internalType": "string",
              "name": "status",
              "type": "string"
            },
            {
              "internalType": "bool",
              "name": "completed",
              "type": "bool"
            },
            {
              "internalType": "uint256",
              "name": "approvalsNum",
              "type": "uint256"
            }
          ],
          "internalType": "struct Campaign.Request[]",
          "name": "",
          "type": "tuple[]"
        }
      ],
      "stateMutability": "view",
      "type": "function"
    },
    {
      "inputs": [],
      "name": "owner",
      "outputs": [
        {
          "internalType": "address",
          "name": "",
          "type": "address"
        }
      ],
      "stateMutability": "view",
      "type": "function"
    },
    {
      "inputs": [
        {
          "internalType": "uint256",
          "name": "",
          "type": "uint256"
        }
      ],
      "name": "projects",
      "outputs": [
        {
          "internalType": "uint256",
          "name": "id",
          "type": "uint256"
        },
        {
          "internalType": "address",
          "name": "owner",
          "type": "address"
        },
        {
          "internalType": "string",
          "name": "title",
          "type": "string"
        },
        {
          "internalType": "uint256",
          "name": "goal",
          "type": "uint256"
        },
        {
          "internalType": "uint256",
          "name": "launchDay",
          "type": "uint256"
        },
        {
          "internalType": "string",
          "name": "story",
          "type": "string"
        },
        {
          "internalType": "uint256",
          "name": "maxReachTime",
          "type": "uint256"
        },
        {
          "internalType": "uint256",
          "name": "numOfContributers",
          "type": "uint256"
        },
        {
          "internalType": "uint256",
          "name": "tokenValue",
          "type": "uint256"
        },
        {
          "internalType": "contract ICOToken",
          "name": "icoToken",
          "type": "address"
        },
        {
          "internalType": "uint256",
          "name": "funds",
          "type": "uint256"
        }
      ],
      "stateMutability": "view",
      "type": "function"
    }
  ],
  "bytecode": "0x608060405234801561001057600080fd5b50336000806101000a81548173ffffffffffffffffffffffffffffffffffffffff021916908373ffffffffffffffffffffffffffffffffffffffff16021790555061578280620000616000396000f3fe6080604052600436106100865760003560e01c80638da5cb5b116100595780638da5cb5b14610161578063c1cbbca71461018c578063d5e78829146101a8578063dcc60128146101e5578063e00a51e71461021057610086565b8063107046bd1461008b5780632c0a90a9146100d25780636a028907146100fb5780637374a1bf14610138575b600080fd5b34801561009757600080fd5b506100b260048036038101906100ad9190613e7e565b610239565b6040516100c99b9a99989796959493929190613fea565b60405180910390f35b3480156100de57600080fd5b506100f960048036038101906100f491906140a3565b6103f3565b005b34801561010757600080fd5b50610122600480360381019061011d91906140a3565b611102565b60405161012f919061421b565b60405180910390f35b34801561014457600080fd5b5061015f600480360381019061015a919061439e565b612117565b005b34801561016d57600080fd5b50610176612425565b6040516101839190614421565b60405180910390f35b6101a660048036038101906101a19190613e7e565b612449565b005b3480156101b457600080fd5b506101cf60048036038101906101ca9190613e7e565b612941565b6040516101dc91906145a1565b60405180910390f35b3480156101f157600080fd5b506101fa613400565b6040516102079190614906565b60405180910390f35b34801561021c57600080fd5b5061023760048036038101906102329190614928565b613916565b005b6001818154811061024957600080fd5b90600052602060002090600d02016000915090508060000154908060010160009054906101000a900473ffffffffffffffffffffffffffffffffffffffff169080600201805461029890614a1c565b80601f01602080910402602001604051908101604052809291908181526020018280546102c490614a1c565b80156103115780601f106102e657610100808354040283529160200191610311565b820191906000526020600020905b8154815290600101906020018083116102f457829003601f168201915b50505050509080600301549080600401549080600501805461033290614a1c565b80601f016020809104026020016040519081016040528092919081815260200182805461035e90614a1c565b80156103ab5780601f10610380576101008083540402835291602001916103ab565b820191906000526020600020905b81548152906001019060200180831161038e57829003601f168201915b50505050509080600601549080600701549080600801549080600a0160009054906101000a900473ffffffffffffffffffffffffffffffffffffffff169080600c015490508b565b81600180549050811061043b576040517f08c379a000000000000000000000000000000000000000000000000000000000815260040161043290614a99565b60405180910390fd5b8260006001828154811061045257610451614ab9565b5b90600052602060002090600d0201604051806101a0016040529081600082015481526020016001820160009054906101000a900473ffffffffffffffffffffffffffffffffffffffff1673ffffffffffffffffffffffffffffffffffffffff1673ffffffffffffffffffffffffffffffffffffffff1681526020016002820180546104dc90614a1c565b80601f016020809104026020016040519081016040528092919081815260200182805461050890614a1c565b80156105555780601f1061052a57610100808354040283529160200191610555565b820191906000526020600020905b81548152906001019060200180831161053857829003601f168201915b50505050508152602001600382015481526020016004820154815260200160058201805461058290614a1c565b80601f01602080910402602001604051908101604052809291908181526020018280546105ae90614a1c565b80156105fb5780601f106105d0576101008083540402835291602001916105fb565b820191906000526020600020905b8154815290600101906020018083116105de57829003601f168201915b5050505050815260200160068201548152602001600782015481526020016008820154815260200160098201805480602002602001604051908101604052809291908181526020016000905b8282101561082c57838290600052602060002090600702016040518060e00160405290816000820154815260200160018201805461068490614a1c565b80601f01602080910402602001604051908101604052809291908181526020018280546106b090614a1c565b80156106fd5780601f106106d2576101008083540402835291602001916106fd565b820191906000526020600020905b8154815290600101906020018083116106e057829003601f168201915b50505050508152602001600282015481526020016003820160009054906101000a900473ffffffffffffffffffffffffffffffffffffffff1673ffffffffffffffffffffffffffffffffffffffff1673ffffffffffffffffffffffffffffffffffffffff16815260200160048201805461077690614a1c565b80601f01602080910402602001604051908101604052809291908181526020018280546107a290614a1c565b80156107ef5780601f106107c4576101008083540402835291602001916107ef565b820191906000526020600020905b8154815290600101906020018083116107d257829003601f168201915b505050505081526020016005820160009054906101000a900460ff1615151515815260200160068201548152505081526020019060010190610647565b505050508152602001600a820160009054906101000a900473ffffffffffffffffffffffffffffffffffffffff1673ffffffffffffffffffffffffffffffffffffffff1673ffffffffffffffffffffffffffffffffffffffff168152602001600b820180548060200260200160405190810160405280929190818152602001828054801561090f57602002820191906000526020600020905b8160009054906101000a900473ffffffffffffffffffffffffffffffffffffffff1673ffffffffffffffffffffffffffffffffffffffff16815260200190600101908083116108c5575b50505050508152602001600c82015481525050905060006002600084815260200190815260200160002060003373ffffffffffffffffffffffffffffffffffffffff1673ffffffffffffffffffffffffffffffffffffffff16815260200190815260200160002054116109b7576040517f08c379a00000000000000000000000000000000000000000000000000000000081526004016109ae90614b5a565b60405180910390fd5b84846000600183815481106109cf576109ce614ab9565b5b90600052602060002090600d0201604051806101a0016040529081600082015481526020016001820160009054906101000a900473ffffffffffffffffffffffffffffffffffffffff1673ffffffffffffffffffffffffffffffffffffffff1673ffffffffffffffffffffffffffffffffffffffff168152602001600282018054610a5990614a1c565b80601f0160208091040260200160405190810160405280929190818152602001828054610a8590614a1c565b8015610ad25780601f10610aa757610100808354040283529160200191610ad2565b820191906000526020600020905b815481529060010190602001808311610ab557829003601f168201915b505050505081526020016003820154815260200160048201548152602001600582018054610aff90614a1c565b80601f0160208091040260200160405190810160405280929190818152602001828054610b2b90614a1c565b8015610b785780601f10610b4d57610100808354040283529160200191610b78565b820191906000526020600020905b815481529060010190602001808311610b5b57829003601f168201915b5050505050815260200160068201548152602001600782015481526020016008820154815260200160098201805480602002602001604051908101604052809291908181526020016000905b82821015610da957838290600052602060002090600702016040518060e001604052908160008201548152602001600182018054610c0190614a1c565b80601f0160208091040260200160405190810160405280929190818152602001828054610c2d90614a1c565b8015610c7a5780601f10610c4f57610100808354040283529160200191610c7a565b820191906000526020600020905b815481529060010190602001808311610c5d57829003601f168201915b50505050508152602001600282015481526020016003820160009054906101000a900473ffffffffffffffffffffffffffffffffffffffff1673ffffffffffffffffffffffffffffffffffffffff1673ffffffffffffffffffffffffffffffffffffffff168152602001600482018054610cf390614a1c565b80601f0160208091040260200160405190810160405280929190818152602001828054610d1f90614a1c565b8015610d6c5780601f10610d4157610100808354040283529160200191610d6c565b820191906000526020600020905b815481529060010190602001808311610d4f57829003601f168201915b505050505081526020016005820160009054906101000a900460ff1615151515815260200160068201548152505081526020019060010190610bc4565b505050508152602001600a820160009054906101000a900473ffffffffffffffffffffffffffffffffffffffff1673ffffffffffffffffffffffffffffffffffffffff1673ffffffffffffffffffffffffffffffffffffffff168152602001600b8201805480602002602001604051908101604052809291908181526020018280548015610e8c57602002820191906000526020600020905b8160009054906101000a900473ffffffffffffffffffffffffffffffffffffffff1673ffffffffffffffffffffffffffffffffffffffff1681526020019060010190808311610e42575b50505050508152602001600c820154815250509050806101200151518210610ee9576040517f08c379a0000000000000000000000000000000000000000000000000000000008152600401610ee090614bc6565b60405180910390fd5b600060018981548110610eff57610efe614ab9565b5b90600052602060002090600d020190506000816009018981548110610f2757610f26614ab9565b5b90600052602060002090600702019050600460008b815260200190815260200160002060008a815260200190815260200160002060003373ffffffffffffffffffffffffffffffffffffffff1673ffffffffffffffffffffffffffffffffffffffff16815260200190815260200160002060009054906101000a900460ff1615610fe6576040517f08c379a0000000000000000000000000000000000000000000000000000000008152600401610fdd90614c58565b60405180910390fd5b8060050160009054906101000a900460ff1615611038576040517f08c379a000000000000000000000000000000000000000000000000000000000815260040161102f90614cea565b60405180910390fd5b6001600460008c815260200190815260200160002060008b815260200190815260200160002060003373ffffffffffffffffffffffffffffffffffffffff1673ffffffffffffffffffffffffffffffffffffffff16815260200190815260200160002060006101000a81548160ff0219169083151502179055508060060160008154809291906110c790614d39565b9190505550600282600b01805490506110e09190614db0565b816006015411156110f6576110f58a8a613a2e565b5b50505050505050505050565b61110a613ddf565b826001805490508110611152576040517f08c379a000000000000000000000000000000000000000000000000000000000815260040161114990614a99565b60405180910390fd5b8360006001828154811061116957611168614ab9565b5b90600052602060002090600d0201604051806101a0016040529081600082015481526020016001820160009054906101000a900473ffffffffffffffffffffffffffffffffffffffff1673ffffffffffffffffffffffffffffffffffffffff1673ffffffffffffffffffffffffffffffffffffffff1681526020016002820180546111f390614a1c565b80601f016020809104026020016040519081016040528092919081815260200182805461121f90614a1c565b801561126c5780601f106112415761010080835404028352916020019161126c565b820191906000526020600020905b81548152906001019060200180831161124f57829003601f168201915b50505050508152602001600382015481526020016004820154815260200160058201805461129990614a1c565b80601f01602080910402602001604051908101604052809291908181526020018280546112c590614a1c565b80156113125780601f106112e757610100808354040283529160200191611312565b820191906000526020600020905b8154815290600101906020018083116112f557829003601f168201915b5050505050815260200160068201548152602001600782015481526020016008820154815260200160098201805480602002602001604051908101604052809291908181526020016000905b8282101561154357838290600052602060002090600702016040518060e00160405290816000820154815260200160018201805461139b90614a1c565b80601f01602080910402602001604051908101604052809291908181526020018280546113c790614a1c565b80156114145780601f106113e957610100808354040283529160200191611414565b820191906000526020600020905b8154815290600101906020018083116113f757829003601f168201915b50505050508152602001600282015481526020016003820160009054906101000a900473ffffffffffffffffffffffffffffffffffffffff1673ffffffffffffffffffffffffffffffffffffffff1673ffffffffffffffffffffffffffffffffffffffff16815260200160048201805461148d90614a1c565b80601f01602080910402602001604051908101604052809291908181526020018280546114b990614a1c565b80156115065780601f106114db57610100808354040283529160200191611506565b820191906000526020600020905b8154815290600101906020018083116114e957829003601f168201915b505050505081526020016005820160009054906101000a900460ff161515151581526020016006820154815250508152602001906001019061135e565b505050508152602001600a820160009054906101000a900473ffffffffffffffffffffffffffffffffffffffff1673ffffffffffffffffffffffffffffffffffffffff1673ffffffffffffffffffffffffffffffffffffffff168152602001600b820180548060200260200160405190810160405280929190818152602001828054801561162657602002820191906000526020600020905b8160009054906101000a900473ffffffffffffffffffffffffffffffffffffffff1673ffffffffffffffffffffffffffffffffffffffff16815260200190600101908083116115dc575b50505050508152602001600c82015481525050905060006002600084815260200190815260200160002060003373ffffffffffffffffffffffffffffffffffffffff1673ffffffffffffffffffffffffffffffffffffffff16815260200190815260200160002054116116ce576040517f08c379a00000000000000000000000000000000000000000000000000000000081526004016116c590614b5a565b60405180910390fd5b85856000600183815481106116e6576116e5614ab9565b5b90600052602060002090600d0201604051806101a0016040529081600082015481526020016001820160009054906101000a900473ffffffffffffffffffffffffffffffffffffffff1673ffffffffffffffffffffffffffffffffffffffff1673ffffffffffffffffffffffffffffffffffffffff16815260200160028201805461177090614a1c565b80601f016020809104026020016040519081016040528092919081815260200182805461179c90614a1c565b80156117e95780601f106117be576101008083540402835291602001916117e9565b820191906000526020600020905b8154815290600101906020018083116117cc57829003601f168201915b50505050508152602001600382015481526020016004820154815260200160058201805461181690614a1c565b80601f016020809104026020016040519081016040528092919081815260200182805461184290614a1c565b801561188f5780601f106118645761010080835404028352916020019161188f565b820191906000526020600020905b81548152906001019060200180831161187257829003601f168201915b5050505050815260200160068201548152602001600782015481526020016008820154815260200160098201805480602002602001604051908101604052809291908181526020016000905b82821015611ac057838290600052602060002090600702016040518060e00160405290816000820154815260200160018201805461191890614a1c565b80601f016020809104026020016040519081016040528092919081815260200182805461194490614a1c565b80156119915780601f1061196657610100808354040283529160200191611991565b820191906000526020600020905b81548152906001019060200180831161197457829003601f168201915b50505050508152602001600282015481526020016003820160009054906101000a900473ffffffffffffffffffffffffffffffffffffffff1673ffffffffffffffffffffffffffffffffffffffff1673ffffffffffffffffffffffffffffffffffffffff168152602001600482018054611a0a90614a1c565b80601f0160208091040260200160405190810160405280929190818152602001828054611a3690614a1c565b8015611a835780601f10611a5857610100808354040283529160200191611a83565b820191906000526020600020905b815481529060010190602001808311611a6657829003601f168201915b505050505081526020016005820160009054906101000a900460ff16151515158152602001600682015481525050815260200190600101906118db565b505050508152602001600a820160009054906101000a900473ffffffffffffffffffffffffffffffffffffffff1673ffffffffffffffffffffffffffffffffffffffff1673ffffffffffffffffffffffffffffffffffffffff168152602001600b8201805480602002602001604051908101604052809291908181526020018280548015611ba357602002820191906000526020600020905b8160009054906101000a900473ffffffffffffffffffffffffffffffffffffffff1673ffffffffffffffffffffffffffffffffffffffff1681526020019060010190808311611b59575b50505050508152602001600c820154815250509050806101200151518210611c00576040517f08c379a0000000000000000000000000000000000000000000000000000000008152600401611bf790614bc6565b60405180910390fd5b600060018a81548110611c1657611c15614ab9565b5b90600052602060002090600d0201604051806101a0016040529081600082015481526020016001820160009054906101000a900473ffffffffffffffffffffffffffffffffffffffff1673ffffffffffffffffffffffffffffffffffffffff1673ffffffffffffffffffffffffffffffffffffffff168152602001600282018054611ca090614a1c565b80601f0160208091040260200160405190810160405280929190818152602001828054611ccc90614a1c565b8015611d195780601f10611cee57610100808354040283529160200191611d19565b820191906000526020600020905b815481529060010190602001808311611cfc57829003601f168201915b505050505081526020016003820154815260200160048201548152602001600582018054611d4690614a1c565b80601f0160208091040260200160405190810160405280929190818152602001828054611d7290614a1c565b8015611dbf5780601f10611d9457610100808354040283529160200191611dbf565b820191906000526020600020905b815481529060010190602001808311611da257829003601f168201915b5050505050815260200160068201548152602001600782015481526020016008820154815260200160098201805480602002602001604051908101604052809291908181526020016000905b82821015611ff057838290600052602060002090600702016040518060e001604052908160008201548152602001600182018054611e4890614a1c565b80601f0160208091040260200160405190810160405280929190818152602001828054611e7490614a1c565b8015611ec15780601f10611e9657610100808354040283529160200191611ec1565b820191906000526020600020905b815481529060010190602001808311611ea457829003601f168201915b50505050508152602001600282015481526020016003820160009054906101000a900473ffffffffffffffffffffffffffffffffffffffff1673ffffffffffffffffffffffffffffffffffffffff1673ffffffffffffffffffffffffffffffffffffffff168152602001600482018054611f3a90614a1c565b80601f0160208091040260200160405190810160405280929190818152602001828054611f6690614a1c565b8015611fb35780601f10611f8857610100808354040283529160200191611fb3565b820191906000526020600020905b815481529060010190602001808311611f9657829003601f168201915b505050505081526020016005820160009054906101000a900460ff1615151515815260200160068201548152505081526020019060010190611e0b565b505050508152602001600a820160009054906101000a900473ffffffffffffffffffffffffffffffffffffffff1673ffffffffffffffffffffffffffffffffffffffff1673ffffffffffffffffffffffffffffffffffffffff168152602001600b82018054806020026020016040519081016040528092919081815260200182805480156120d357602002820191906000526020600020905b8160009054906101000a900473ffffffffffffffffffffffffffffffffffffffff1673ffffffffffffffffffffffffffffffffffffffff1681526020019060010190808311612089575b50505050508152602001600c8201548152505090508061012001518981518110612100576120ff614ab9565b5b602002602001015197505050505050505092915050565b83600180549050811061215f576040517f08c379a000000000000000000000000000000000000000000000000000000000815260040161215690614a99565b60405180910390fd5b60008054906101000a900473ffffffffffffffffffffffffffffffffffffffff1673ffffffffffffffffffffffffffffffffffffffff163373ffffffffffffffffffffffffffffffffffffffff16146121ed576040517f08c379a00000000000000000000000000000000000000000000000000000000081526004016121e490614e53565b60405180910390fd5b60006001868154811061220357612202614ab9565b5b90600052602060002090600d02019050806003015481600c0154101561225e576040517f08c379a000000000000000000000000000000000000000000000000000000000815260040161225590614ebf565b60405180910390fd5b600073ffffffffffffffffffffffffffffffffffffffff168373ffffffffffffffffffffffffffffffffffffffff16036122cd576040517f08c379a00000000000000000000000000000000000000000000000000000000081526004016122c490614f2b565b60405180910390fd5b80600c0154841115612314576040517f08c379a000000000000000000000000000000000000000000000000000000000815260040161230b90614f97565b60405180910390fd5b6000816009018054905090506000826009016001816001815401808255809150500390600052602060002090600702019050818160000181905550868160010190816123609190615159565b50858160020181905550848160030160006101000a81548173ffffffffffffffffffffffffffffffffffffffff021916908373ffffffffffffffffffffffffffffffffffffffff1602179055506040518060400160405280600781526020017f70656e64696e67000000000000000000000000000000000000000000000000008152508160040190816123f39190615159565b506000816006018190555060008160050160006101000a81548160ff0219169083151502179055505050505050505050565b60008054906101000a900473ffffffffffffffffffffffffffffffffffffffff1681565b806001805490508110612491576040517f08c379a000000000000000000000000000000000000000000000000000000000815260040161248890614a99565b60405180910390fd5b6000600183815481106124a7576124a6614ab9565b5b90600052602060002090600d020190508060060154421115612507576124cc83613bf0565b6040517f08c379a00000000000000000000000000000000000000000000000000000000081526004016124fe9061529d565b60405180910390fd5b60006002600085815260200190815260200160002060003373ffffffffffffffffffffffffffffffffffffffff1673ffffffffffffffffffffffffffffffffffffffff168152602001908152602001600020541461259a576040517f08c379a000000000000000000000000000000000000000000000000000000000815260040161259190615309565b60405180910390fd5b80600801543410156125e1576040517f08c379a00000000000000000000000000000000000000000000000000000000081526004016125d89061539b565b60405180910390fd5b806003015481600c01541061262b576040517f08c379a000000000000000000000000000000000000000000000000000000000815260040161262290615407565b60405180910390fd5b600081600801543461263d9190614db0565b90508082600a0160009054906101000a900473ffffffffffffffffffffffffffffffffffffffff1673ffffffffffffffffffffffffffffffffffffffff1663dd62ed3e8460010160009054906101000a900473ffffffffffffffffffffffffffffffffffffffff16306040518363ffffffff1660e01b81526004016126c3929190615427565b602060405180830381865afa1580156126e0573d6000803e3d6000fd5b505050506040513d601f19601f820116820180604052508101906127049190615465565b1015612745576040517f08c379a000000000000000000000000000000000000000000000000000000000815260040161273c906154de565b60405180910390fd5b81600a0160009054906101000a900473ffffffffffffffffffffffffffffffffffffffff1673ffffffffffffffffffffffffffffffffffffffff166323b872dd8360010160009054906101000a900473ffffffffffffffffffffffffffffffffffffffff1633846040518463ffffffff1660e01b81526004016127ca939291906154fe565b6020604051808303816000875af11580156127e9573d6000803e3d6000fd5b505050506040513d601f19601f8201168201806040525081019061280d9190615561565b61284c576040517f08c379a0000000000000000000000000000000000000000000000000000000008152600401612843906155da565b60405180910390fd5b346002600086815260200190815260200160002060003373ffffffffffffffffffffffffffffffffffffffff1673ffffffffffffffffffffffffffffffffffffffff1681526020019081526020016000208190555081600b01339080600181540180825580915050600190039060005260206000200160009091909190916101000a81548173ffffffffffffffffffffffffffffffffffffffff021916908373ffffffffffffffffffffffffffffffffffffffff16021790555081600701600081548092919061291b90614d39565b91905055503482600c01600082825461293491906155fa565b9250508190555050505050565b606081600180549050811061298b576040517f08c379a000000000000000000000000000000000000000000000000000000000815260040161298290614a99565b60405180910390fd5b826000600182815481106129a2576129a1614ab9565b5b90600052602060002090600d0201604051806101a0016040529081600082015481526020016001820160009054906101000a900473ffffffffffffffffffffffffffffffffffffffff1673ffffffffffffffffffffffffffffffffffffffff1673ffffffffffffffffffffffffffffffffffffffff168152602001600282018054612a2c90614a1c565b80601f0160208091040260200160405190810160405280929190818152602001828054612a5890614a1c565b8015612aa55780601f10612a7a57610100808354040283529160200191612aa5565b820191906000526020600020905b815481529060010190602001808311612a8857829003601f168201915b505050505081526020016003820154815260200160048201548152602001600582018054612ad290614a1c565b80601f0160208091040260200160405190810160405280929190818152602001828054612afe90614a1c565b8015612b4b5780601f10612b2057610100808354040283529160200191612b4b565b820191906000526020600020905b815481529060010190602001808311612b2e57829003601f168201915b5050505050815260200160068201548152602001600782015481526020016008820154815260200160098201805480602002602001604051908101604052809291908181526020016000905b82821015612d7c57838290600052602060002090600702016040518060e001604052908160008201548152602001600182018054612bd490614a1c565b80601f0160208091040260200160405190810160405280929190818152602001828054612c0090614a1c565b8015612c4d5780601f10612c2257610100808354040283529160200191612c4d565b820191906000526020600020905b815481529060010190602001808311612c3057829003601f168201915b50505050508152602001600282015481526020016003820160009054906101000a900473ffffffffffffffffffffffffffffffffffffffff1673ffffffffffffffffffffffffffffffffffffffff1673ffffffffffffffffffffffffffffffffffffffff168152602001600482018054612cc690614a1c565b80601f0160208091040260200160405190810160405280929190818152602001828054612cf290614a1c565b8015612d3f5780601f10612d1457610100808354040283529160200191612d3f565b820191906000526020600020905b815481529060010190602001808311612d2257829003601f168201915b505050505081526020016005820160009054906101000a900460ff1615151515815260200160068201548152505081526020019060010190612b97565b505050508152602001600a820160009054906101000a900473ffffffffffffffffffffffffffffffffffffffff1673ffffffffffffffffffffffffffffffffffffffff1673ffffffffffffffffffffffffffffffffffffffff168152602001600b8201805480602002602001604051908101604052809291908181526020018280548015612e5f57602002820191906000526020600020905b8160009054906101000a900473ffffffffffffffffffffffffffffffffffffffff1673ffffffffffffffffffffffffffffffffffffffff1681526020019060010190808311612e15575b50505050508152602001600c82015481525050905060006002600084815260200190815260200160002060003373ffffffffffffffffffffffffffffffffffffffff1673ffffffffffffffffffffffffffffffffffffffff1681526020019081526020016000205411612f07576040517f08c379a0000000000000000000000000000000000000000000000000000000008152600401612efe90614b5a565b60405180910390fd5b600060018681548110612f1d57612f1c614ab9565b5b90600052602060002090600d0201604051806101a0016040529081600082015481526020016001820160009054906101000a900473ffffffffffffffffffffffffffffffffffffffff1673ffffffffffffffffffffffffffffffffffffffff1673ffffffffffffffffffffffffffffffffffffffff168152602001600282018054612fa790614a1c565b80601f0160208091040260200160405190810160405280929190818152602001828054612fd390614a1c565b80156130205780601f10612ff557610100808354040283529160200191613020565b820191906000526020600020905b81548152906001019060200180831161300357829003601f168201915b50505050508152602001600382015481526020016004820154815260200160058201805461304d90614a1c565b80601f016020809104026020016040519081016040528092919081815260200182805461307990614a1c565b80156130c65780601f1061309b576101008083540402835291602001916130c6565b820191906000526020600020905b8154815290600101906020018083116130a957829003601f168201915b5050505050815260200160068201548152602001600782015481526020016008820154815260200160098201805480602002602001604051908101604052809291908181526020016000905b828210156132f757838290600052602060002090600702016040518060e00160405290816000820154815260200160018201805461314f90614a1c565b80601f016020809104026020016040519081016040528092919081815260200182805461317b90614a1c565b80156131c85780601f1061319d576101008083540402835291602001916131c8565b820191906000526020600020905b8154815290600101906020018083116131ab57829003601f168201915b50505050508152602001600282015481526020016003820160009054906101000a900473ffffffffffffffffffffffffffffffffffffffff1673ffffffffffffffffffffffffffffffffffffffff1673ffffffffffffffffffffffffffffffffffffffff16815260200160048201805461324190614a1c565b80601f016020809104026020016040519081016040528092919081815260200182805461326d90614a1c565b80156132ba5780601f1061328f576101008083540402835291602001916132ba565b820191906000526020600020905b81548152906001019060200180831161329d57829003601f168201915b505050505081526020016005820160009054906101000a900460ff1615151515815260200160068201548152505081526020019060010190613112565b505050508152602001600a820160009054906101000a900473ffffffffffffffffffffffffffffffffffffffff1673ffffffffffffffffffffffffffffffffffffffff1673ffffffffffffffffffffffffffffffffffffffff168152602001600b82018054806020026020016040519081016040528092919081815260200182805480156133da57602002820191906000526020600020905b8160009054906101000a900473ffffffffffffffffffffffffffffffffffffffff1673ffffffffffffffffffffffffffffffffffffffff1681526020019060010190808311613390575b50505050508152602001600c820154815250509050806101200151945050505050919050565b60606001805480602002602001604051908101604052809291908181526020016000905b8282101561390d57838290600052602060002090600d0201604051806101a0016040529081600082015481526020016001820160009054906101000a900473ffffffffffffffffffffffffffffffffffffffff1673ffffffffffffffffffffffffffffffffffffffff1673ffffffffffffffffffffffffffffffffffffffff1681526020016002820180546134b890614a1c565b80601f01602080910402602001604051908101604052809291908181526020018280546134e490614a1c565b80156135315780601f1061350657610100808354040283529160200191613531565b820191906000526020600020905b81548152906001019060200180831161351457829003601f168201915b50505050508152602001600382015481526020016004820154815260200160058201805461355e90614a1c565b80601f016020809104026020016040519081016040528092919081815260200182805461358a90614a1c565b80156135d75780601f106135ac576101008083540402835291602001916135d7565b820191906000526020600020905b8154815290600101906020018083116135ba57829003601f168201915b5050505050815260200160068201548152602001600782015481526020016008820154815260200160098201805480602002602001604051908101604052809291908181526020016000905b8282101561380857838290600052602060002090600702016040518060e00160405290816000820154815260200160018201805461366090614a1c565b80601f016020809104026020016040519081016040528092919081815260200182805461368c90614a1c565b80156136d95780601f106136ae576101008083540402835291602001916136d9565b820191906000526020600020905b8154815290600101906020018083116136bc57829003601f168201915b50505050508152602001600282015481526020016003820160009054906101000a900473ffffffffffffffffffffffffffffffffffffffff1673ffffffffffffffffffffffffffffffffffffffff1673ffffffffffffffffffffffffffffffffffffffff16815260200160048201805461375290614a1c565b80601f016020809104026020016040519081016040528092919081815260200182805461377e90614a1c565b80156137cb5780601f106137a0576101008083540402835291602001916137cb565b820191906000526020600020905b8154815290600101906020018083116137ae57829003601f168201915b505050505081526020016005820160009054906101000a900460ff1615151515815260200160068201548152505081526020019060010190613623565b505050508152602001600a820160009054906101000a900473ffffffffffffffffffffffffffffffffffffffff1673ffffffffffffffffffffffffffffffffffffffff1673ffffffffffffffffffffffffffffffffffffffff168152602001600b82018054806020026020016040519081016040528092919081815260200182805480156138eb57602002820191906000526020600020905b8160009054906101000a900473ffffffffffffffffffffffffffffffffffffffff1673ffffffffffffffffffffffffffffffffffffffff16815260200190600101908083116138a1575b50505050508152602001600c8201548152505081526020019060010190613424565b50505050905090565b600060018054905090506000600180816001815401808255809150500390600052602060002090600d02019050818160000181905550338160010160006101000a81548173ffffffffffffffffffffffffffffffffffffffff021916908373ffffffffffffffffffffffffffffffffffffffff160217905550878160020190816139a09190615159565b50868160030181905550858160050190816139bb9190615159565b508481600601819055508381600801819055504281600401819055508281600a0160006101000a81548173ffffffffffffffffffffffffffffffffffffffff021916908373ffffffffffffffffffffffffffffffffffffffff160217905550600081600c01819055505050505050505050565b600060018381548110613a4457613a43614ab9565b5b90600052602060002090600d020190506000816009018381548110613a6c57613a6b614ab9565b5b906000526020600020906007020190508060050160009054906101000a900460ff1615613ace576040517f08c379a0000000000000000000000000000000000000000000000000000000008152600401613ac59061567a565b60405180910390fd5b6040518060400160405280600881526020017f617070726f766564000000000000000000000000000000000000000000000000815250816004019081613b149190615159565b5060008160030160009054906101000a900473ffffffffffffffffffffffffffffffffffffffff1673ffffffffffffffffffffffffffffffffffffffff168260020154604051613b63906156cb565b60006040518083038185875af1925050503d8060008114613ba0576040519150601f19603f3d011682016040523d82523d6000602084013e613ba5565b606091505b5050905080613be9576040517f08c379a0000000000000000000000000000000000000000000000000000000008152600401613be09061572c565b60405180910390fd5b5050505050565b600060018281548110613c0657613c05614ab9565b5b90600052602060002090600d0201905060005b81600b0180549050811015613dda57600082600b018281548110613c4057613c3f614ab9565b5b9060005260206000200160009054906101000a900473ffffffffffffffffffffffffffffffffffffffff16905060006002600086815260200190815260200160002060008373ffffffffffffffffffffffffffffffffffffffff1673ffffffffffffffffffffffffffffffffffffffff16815260200190815260200160002054905060006002600087815260200190815260200160002060008473ffffffffffffffffffffffffffffffffffffffff1673ffffffffffffffffffffffffffffffffffffffff1681526020019081526020016000208190555060008273ffffffffffffffffffffffffffffffffffffffff1682604051613d3e906156cb565b60006040518083038185875af1925050503d8060008114613d7b576040519150601f19603f3d011682016040523d82523d6000602084013e613d80565b606091505b5050905080613dc4576040517f08c379a0000000000000000000000000000000000000000000000000000000008152600401613dbb9061572c565b60405180910390fd5b5050508080613dd290614d39565b915050613c19565b505050565b6040518060e00160405280600081526020016060815260200160008152602001600073ffffffffffffffffffffffffffffffffffffffff16815260200160608152602001600015158152602001600081525090565b6000604051905090565b600080fd5b600080fd5b6000819050919050565b613e5b81613e48565b8114613e6657600080fd5b50565b600081359050613e7881613e52565b92915050565b600060208284031215613e9457613e93613e3e565b5b6000613ea284828501613e69565b91505092915050565b613eb481613e48565b82525050565b600073ffffffffffffffffffffffffffffffffffffffff82169050919050565b6000613ee582613eba565b9050919050565b613ef581613eda565b82525050565b600081519050919050565b600082825260208201905092915050565b60005b83811015613f35578082015181840152602081019050613f1a565b60008484015250505050565b6000601f19601f8301169050919050565b6000613f5d82613efb565b613f678185613f06565b9350613f77818560208601613f17565b613f8081613f41565b840191505092915050565b6000819050919050565b6000613fb0613fab613fa684613eba565b613f8b565b613eba565b9050919050565b6000613fc282613f95565b9050919050565b6000613fd482613fb7565b9050919050565b613fe481613fc9565b82525050565b600061016082019050614000600083018e613eab565b61400d602083018d613eec565b818103604083015261401f818c613f52565b905061402e606083018b613eab565b61403b608083018a613eab565b81810360a083015261404d8189613f52565b905061405c60c0830188613eab565b61406960e0830187613eab565b614077610100830186613eab565b614085610120830185613fdb565b614093610140830184613eab565b9c9b505050505050505050505050565b600080604083850312156140ba576140b9613e3e565b5b60006140c885828601613e69565b92505060206140d985828601613e69565b9150509250929050565b6140ec81613e48565b82525050565b600082825260208201905092915050565b600061410e82613efb565b61411881856140f2565b9350614128818560208601613f17565b61413181613f41565b840191505092915050565b600061414782613eba565b9050919050565b6141578161413c565b82525050565b60008115159050919050565b6141728161415d565b82525050565b600060e08301600083015161419060008601826140e3565b50602083015184820360208601526141a88282614103565b91505060408301516141bd60408601826140e3565b5060608301516141d0606086018261414e565b50608083015184820360808601526141e88282614103565b91505060a08301516141fd60a0860182614169565b5060c083015161421060c08601826140e3565b508091505092915050565b600060208201905081810360008301526142358184614178565b905092915050565b600080fd5b600080fd5b7f4e487b7100000000000000000000000000000000000000000000000000000000600052604160045260246000fd5b61427f82613f41565b810181811067ffffffffffffffff8211171561429e5761429d614247565b5b80604052505050565b60006142b1613e34565b90506142bd8282614276565b919050565b600067ffffffffffffffff8211156142dd576142dc614247565b5b6142e682613f41565b9050602081019050919050565b82818337600083830152505050565b6000614315614310846142c2565b6142a7565b90508281526020810184848401111561433157614330614242565b5b61433c8482856142f3565b509392505050565b600082601f8301126143595761435861423d565b5b8135614369848260208601614302565b91505092915050565b61437b81613eda565b811461438657600080fd5b50565b60008135905061439881614372565b92915050565b600080600080608085870312156143b8576143b7613e3e565b5b60006143c687828801613e69565b945050602085013567ffffffffffffffff8111156143e7576143e6613e43565b5b6143f387828801614344565b935050604061440487828801613e69565b925050606061441587828801614389565b91505092959194509250565b60006020820190506144366000830184613eec565b92915050565b600081519050919050565b600082825260208201905092915050565b6000819050602082019050919050565b600060e08301600083015161448060008601826140e3565b50602083015184820360208601526144988282614103565b91505060408301516144ad60408601826140e3565b5060608301516144c0606086018261414e565b50608083015184820360808601526144d88282614103565b91505060a08301516144ed60a0860182614169565b5060c083015161450060c08601826140e3565b508091505092915050565b60006145178383614468565b905092915050565b6000602082019050919050565b60006145378261443c565b6145418185614447565b93508360208202850161455385614458565b8060005b8581101561458f5784840389528151614570858261450b565b945061457b8361451f565b925060208a01995050600181019050614557565b50829750879550505050505092915050565b600060208201905081810360008301526145bb818461452c565b905092915050565b600081519050919050565b600082825260208201905092915050565b6000819050602082019050919050565b6145f881613eda565b82525050565b600082825260208201905092915050565b600061461a8261443c565b61462481856145fe565b93508360208202850161463685614458565b8060005b858110156146725784840389528151614653858261450b565b945061465e8361451f565b925060208a0199505060018101905061463a565b50829750879550505050505092915050565b61468d81613fc9565b82525050565b600081519050919050565b600082825260208201905092915050565b6000819050602082019050919050565b60006146cb83836145ef565b60208301905092915050565b6000602082019050919050565b60006146ef82614693565b6146f9818561469e565b9350614704836146af565b8060005b8381101561473557815161471c88826146bf565b9750614727836146d7565b925050600181019050614708565b5085935050505092915050565b60006101a08301600083015161475b60008601826140e3565b50602083015161476e60208601826145ef565b50604083015184820360408601526147868282614103565b915050606083015161479b60608601826140e3565b5060808301516147ae60808601826140e3565b5060a083015184820360a08601526147c68282614103565b91505060c08301516147db60c08601826140e3565b5060e08301516147ee60e08601826140e3565b506101008301516148036101008601826140e3565b5061012083015184820361012086015261481d828261460f565b915050610140830151614834610140860182614684565b5061016083015184820361016086015261484e82826146e4565b9150506101808301516148656101808601826140e3565b508091505092915050565b600061487c8383614742565b905092915050565b6000602082019050919050565b600061489c826145c3565b6148a681856145ce565b9350836020820285016148b8856145df565b8060005b858110156148f457848403895281516148d58582614870565b94506148e083614884565b925060208a019950506001810190506148bc565b50829750879550505050505092915050565b600060208201905081810360008301526149208184614891565b905092915050565b60008060008060008060c0878903121561494557614944613e3e565b5b600087013567ffffffffffffffff81111561496357614962613e43565b5b61496f89828a01614344565b965050602061498089828a01613e69565b955050604087013567ffffffffffffffff8111156149a1576149a0613e43565b5b6149ad89828a01614344565b94505060606149be89828a01613e69565b93505060806149cf89828a01613e69565b92505060a06149e089828a01614389565b9150509295509295509295565b7f4e487b7100000000000000000000000000000000000000000000000000000000600052602260045260246000fd5b60006002820490506001821680614a3457607f821691505b602082108103614a4757614a466149ed565b5b50919050565b7f50726f6a65637420646f65736e27742065786973740000000000000000000000600082015250565b6000614a83601583613f06565b9150614a8e82614a4d565b602082019050919050565b60006020820190508181036000830152614ab281614a76565b9050919050565b7f4e487b7100000000000000000000000000000000000000000000000000000000600052603260045260246000fd5b7f4f6e6c7920636f6e7472696275746f722063616e20706572666f726d2074686960008201527f7320616374696f6e000000000000000000000000000000000000000000000000602082015250565b6000614b44602883613f06565b9150614b4f82614ae8565b604082019050919050565b60006020820190508181036000830152614b7381614b37565b9050919050565b7f5265717565737420646f6573206e6f7420657869737400000000000000000000600082015250565b6000614bb0601683613f06565b9150614bbb82614b7a565b602082019050919050565b60006020820190508181036000830152614bdf81614ba3565b9050919050565b7f596f7520616c726561647920617070726f76656420746869732072657175657360008201527f7400000000000000000000000000000000000000000000000000000000000000602082015250565b6000614c42602183613f06565b9150614c4d82614be6565b604082019050919050565b60006020820190508181036000830152614c7181614c35565b9050919050565b7f54686973207265717565737420616c726561647920676f7420656e6f7567682060008201527f766f74657320616e642069742069732065786563757465640000000000000000602082015250565b6000614cd4603883613f06565b9150614cdf82614c78565b604082019050919050565b60006020820190508181036000830152614d0381614cc7565b9050919050565b7f4e487b7100000000000000000000000000000000000000000000000000000000600052601160045260246000fd5b6000614d4482613e48565b91507fffffffffffffffffffffffffffffffffffffffffffffffffffffffffffffffff8203614d7657614d75614d0a565b5b600182019050919050565b7f4e487b7100000000000000000000000000000000000000000000000000000000600052601260045260246000fd5b6000614dbb82613e48565b9150614dc683613e48565b925082614dd657614dd5614d81565b5b828204905092915050565b7f4f6e6c79206f776e65722063616e20696e766f6b6520746869732066756e637460008201527f696f6e0000000000000000000000000000000000000000000000000000000000602082015250565b6000614e3d602383613f06565b9150614e4882614de1565b604082019050919050565b60006020820190508181036000830152614e6c81614e30565b9050919050565b7f476f616c206e6f74207265616368656420796574000000000000000000000000600082015250565b6000614ea9601483613f06565b9150614eb482614e73565b602082019050919050565b60006020820190508181036000830152614ed881614e9c565b9050919050565b7f496e76616c696420526563697069656e74206164647265737300000000000000600082015250565b6000614f15601983613f06565b9150614f2082614edf565b602082019050919050565b60006020820190508181036000830152614f4481614f08565b9050919050565b7f4e6f2073756666696369616e742062616c616e63650000000000000000000000600082015250565b6000614f81601583613f06565b9150614f8c82614f4b565b602082019050919050565b60006020820190508181036000830152614fb081614f74565b9050919050565b60008190508160005260206000209050919050565b60006020601f8301049050919050565b600082821b905092915050565b6000600883026150197fffffffffffffffffffffffffffffffffffffffffffffffffffffffffffffffff82614fdc565b6150238683614fdc565b95508019841693508086168417925050509392505050565b600061505661505161504c84613e48565b613f8b565b613e48565b9050919050565b6000819050919050565b6150708361503b565b61508461507c8261505d565b848454614fe9565b825550505050565b600090565b61509961508c565b6150a4818484615067565b505050565b5b818110156150c8576150bd600082615091565b6001810190506150aa565b5050565b601f82111561510d576150de81614fb7565b6150e784614fcc565b810160208510156150f6578190505b61510a61510285614fcc565b8301826150a9565b50505b505050565b600082821c905092915050565b600061513060001984600802615112565b1980831691505092915050565b6000615149838361511f565b9150826002028217905092915050565b61516282613efb565b67ffffffffffffffff81111561517b5761517a614247565b5b6151858254614a1c565b6151908282856150cc565b600060209050601f8311600181146151c357600084156151b1578287015190505b6151bb858261513d565b865550615223565b601f1984166151d186614fb7565b60005b828110156151f9578489015182556001820191506020850194506020810190506151d4565b868310156152165784890151615212601f89168261511f565b8355505b6001600288020188555050505b505050505050565b7f546869732070726f6a65637420646f656e7327742061636365707420636f6e7460008201527f7269627574696f6e7320616e796d6f7265000000000000000000000000000000602082015250565b6000615287603183613f06565b91506152928261522b565b604082019050919050565b600060208201905081810360008301526152b68161527a565b9050919050565b7f596f752061726520616c7265616479206120636f6e7472696275746f72000000600082015250565b60006152f3601d83613f06565b91506152fe826152bd565b602082019050919050565b60006020820190508181036000830152615322816152e6565b9050919050565b7f596f75722063757272656e7420636f6e747269627574696f6e20646f65736e2760008201527f74206576656e20776f727468203120746f6b656e000000000000000000000000602082015250565b6000615385603483613f06565b915061539082615329565b604082019050919050565b600060208201905081810360008301526153b481615378565b9050919050565b7f476f616c20726561636865640000000000000000000000000000000000000000600082015250565b60006153f1600c83613f06565b91506153fc826153bb565b602082019050919050565b60006020820190508181036000830152615420816153e4565b9050919050565b600060408201905061543c6000830185613eec565b6154496020830184613eec565b9392505050565b60008151905061545f81613e52565b92915050565b60006020828403121561547b5761547a613e3e565b5b600061548984828501615450565b91505092915050565b7f4e6f2073756666696369616e7420746f6b656e73206c65667400000000000000600082015250565b60006154c8601983613f06565b91506154d382615492565b602082019050919050565b600060208201905081810360008301526154f7816154bb565b9050919050565b60006060820190506155136000830186613eec565b6155206020830185613eec565b61552d6040830184613eab565b949350505050565b61553e8161415d565b811461554957600080fd5b50565b60008151905061555b81615535565b92915050565b60006020828403121561557757615576613e3e565b5b60006155858482850161554c565b91505092915050565b7f546f6b656e207472616e73666572206661696c65640000000000000000000000600082015250565b60006155c4601583613f06565b91506155cf8261558e565b602082019050919050565b600060208201905081810360008301526155f3816155b7565b9050919050565b600061560582613e48565b915061561083613e48565b925082820190508082111561562857615627614d0a565b5b92915050565b7f5265717565737420616c72656164792066696e616c697a656400000000000000600082015250565b6000615664601983613f06565b915061566f8261562e565b602082019050919050565b6000602082019050818103600083015261569381615657565b9050919050565b600081905092915050565b50565b60006156b560008361569a565b91506156c0826156a5565b600082019050919050565b60006156d6826156a8565b9150819050919050565b7f4574686572207472616e73666572206661696c65640000000000000000000000600082015250565b6000615716601583613f06565b9150615721826156e0565b602082019050919050565b6000602082019050818103600083015261574581615709565b905091905056fea2646970667358221220af196fecd0e95514bba6cdfc676a11d37fa3501517fede72556df9620e4ccde564736f6c63430008120033",
  "linkReferences": {},
  "deployedLinkReferences": {}
}