{
  "_format": "hh-sol-artifact-1",
  "contractName": "Campaign",
  "sourceName": "contracts/Campaign.sol",
  "abi": [
    {
      "inputs": [],
      "stateMutability": "nonpayable",
      "type": "constructor"
    },
    {
      "inputs": [
        {
          "internalType": "uint256",
          "name": "_projIndex",
          "type": "uint256"
        },
        {
          "internalType": "uint256",
          "name": "_reqIndex",
          "type": "uint256"
        }
      ],
      "name": "approveRequest",
      "outputs": [],
      "stateMutability": "nonpayable",
      "type": "function"
    },
    {
      "inputs": [
        {
          "internalType": "uint256",
          "name": "_id",
          "type": "uint256"
        }
      ],
      "name": "contribute",
      "outputs": [],
      "stateMutability": "payable",
      "type": "function"
    },
    {
      "inputs": [
        {
          "internalType": "string",
          "name": "_title",
          "type": "string"
        },
        {
          "internalType": "uint256",
          "name": "_goal",
          "type": "uint256"
        },
        {
          "internalType": "string",
          "name": "_story",
          "type": "string"
        },
        {
          "internalType": "uint256",
          "name": "_maxReachTime",
          "type": "uint256"
        },
        {
          "internalType": "uint256",
          "name": "_tokenValue",
          "type": "uint256"
        },
        {
          "internalType": "address",
          "name": "_address",
          "type": "address"
        }
      ],
      "name": "createProject",
      "outputs": [],
      "stateMutability": "nonpayable",
      "type": "function"
    },
    {
      "inputs": [
        {
          "internalType": "uint256",
          "name": "_projectID",
          "type": "uint256"
        },
        {
          "internalType": "string",
          "name": "_description",
          "type": "string"
        },
        {
          "internalType": "uint256",
          "name": "_amount",
          "type": "uint256"
        },
        {
          "internalType": "address",
          "name": "_recipient",
          "type": "address"
        }
      ],
      "name": "createRequest",
      "outputs": [],
      "stateMutability": "nonpayable",
      "type": "function"
    },
    {
      "inputs": [],
      "name": "getProjects",
      "outputs": [
        {
          "components": [
            {
              "internalType": "uint256",
              "name": "id",
              "type": "uint256"
            },
            {
              "internalType": "address",
              "name": "owner",
              "type": "address"
            },
            {
              "internalType": "string",
              "name": "title",
              "type": "string"
            },
            {
              "internalType": "uint256",
              "name": "goal",
              "type": "uint256"
            },
            {
              "internalType": "uint256",
              "name": "launchDay",
              "type": "uint256"
            },
            {
              "internalType": "string",
              "name": "story",
              "type": "string"
            },
            {
              "internalType": "uint256",
              "name": "maxReachTime",
              "type": "uint256"
            },
            {
              "internalType": "uint256",
              "name": "numOfContributers",
              "type": "uint256"
            },
            {
              "internalType": "uint256",
              "name": "tokenValue",
              "type": "uint256"
            },
            {
              "components": [
                {
                  "internalType": "uint256",
                  "name": "id",
                  "type": "uint256"
                },
                {
                  "internalType": "string",
                  "name": "description",
                  "type": "string"
                },
                {
                  "internalType": "uint256",
                  "name": "amount",
                  "type": "uint256"
                },
                {
                  "internalType": "address payable",
                  "name": "recipient",
                  "type": "address"
                },
                {
                  "internalType": "string",
                  "name": "status",
                  "type": "string"
                },
                {
                  "internalType": "bool",
                  "name": "completed",
                  "type": "bool"
                },
                {
                  "internalType": "uint256",
                  "name": "approvalsNum",
                  "type": "uint256"
                },
                {
                  "internalType": "address[]",
                  "name": "voters",
                  "type": "address[]"
                }
              ],
              "internalType": "struct Campaign.Request[]",
              "name": "requests",
              "type": "tuple[]"
            },
            {
              "internalType": "contract ICOToken",
              "name": "icoToken",
              "type": "address"
            },
            {
              "internalType": "address[]",
              "name": "contributors",
              "type": "address[]"
            },
            {
              "internalType": "uint256",
              "name": "funds",
              "type": "uint256"
            }
          ],
          "internalType": "struct Campaign.Project[]",
          "name": "",
          "type": "tuple[]"
        }
      ],
      "stateMutability": "view",
      "type": "function"
    },
    {
      "inputs": [
        {
          "internalType": "uint256",
          "name": "_projID",
          "type": "uint256"
        }
      ],
      "name": "getRequests",
      "outputs": [
        {
          "components": [
            {
              "internalType": "uint256",
              "name": "id",
              "type": "uint256"
            },
            {
              "internalType": "string",
              "name": "description",
              "type": "string"
            },
            {
              "internalType": "uint256",
              "name": "amount",
              "type": "uint256"
            },
            {
              "internalType": "address payable",
              "name": "recipient",
              "type": "address"
            },
            {
              "internalType": "string",
              "name": "status",
              "type": "string"
            },
            {
              "internalType": "bool",
              "name": "completed",
              "type": "bool"
            },
            {
              "internalType": "uint256",
              "name": "approvalsNum",
              "type": "uint256"
            },
            {
              "internalType": "address[]",
              "name": "voters",
              "type": "address[]"
            }
          ],
          "internalType": "struct Campaign.Request[]",
          "name": "",
          "type": "tuple[]"
        }
      ],
      "stateMutability": "view",
      "type": "function"
    },
    {
      "inputs": [],
      "name": "owner",
      "outputs": [
        {
          "internalType": "address",
          "name": "",
          "type": "address"
        }
      ],
      "stateMutability": "view",
      "type": "function"
    },
    {
      "inputs": [
        {
          "internalType": "uint256",
          "name": "",
          "type": "uint256"
        }
      ],
      "name": "projects",
      "outputs": [
        {
          "internalType": "uint256",
          "name": "id",
          "type": "uint256"
        },
        {
          "internalType": "address",
          "name": "owner",
          "type": "address"
        },
        {
          "internalType": "string",
          "name": "title",
          "type": "string"
        },
        {
          "internalType": "uint256",
          "name": "goal",
          "type": "uint256"
        },
        {
          "internalType": "uint256",
          "name": "launchDay",
          "type": "uint256"
        },
        {
          "internalType": "string",
          "name": "story",
          "type": "string"
        },
        {
          "internalType": "uint256",
          "name": "maxReachTime",
          "type": "uint256"
        },
        {
          "internalType": "uint256",
          "name": "numOfContributers",
          "type": "uint256"
        },
        {
          "internalType": "uint256",
          "name": "tokenValue",
          "type": "uint256"
        },
        {
          "internalType": "contract ICOToken",
          "name": "icoToken",
          "type": "address"
        },
        {
          "internalType": "uint256",
          "name": "funds",
          "type": "uint256"
        }
      ],
      "stateMutability": "view",
      "type": "function"
    }
  ],
  "bytecode": "0x608060405234801561001057600080fd5b50336000806101000a81548173ffffffffffffffffffffffffffffffffffffffff021916908373ffffffffffffffffffffffffffffffffffffffff160217905550614e31806100606000396000f3fe60806040526004361061007b5760003560e01c8063c1cbbca71161004e578063c1cbbca714610144578063d5e7882914610160578063dcc601281461019d578063e00a51e7146101c85761007b565b8063107046bd146100805780632c0a90a9146100c75780637374a1bf146100f05780638da5cb5b14610119575b600080fd5b34801561008c57600080fd5b506100a760048036038101906100a2919061360e565b6101f1565b6040516100be9b9a9998979695949392919061377a565b60405180910390f35b3480156100d357600080fd5b506100ee60048036038101906100e99190613833565b6103ab565b005b3480156100fc57600080fd5b50610117600480360381019061011291906139d4565b61123d565b005b34801561012557600080fd5b5061012e611aa9565b60405161013b9190613a57565b60405180910390f35b61015e6004803603810190610159919061360e565b611acd565b005b34801561016c57600080fd5b506101876004803603810190610182919061360e565b611f79565b6040516101949190613d45565b60405180910390f35b3480156101a957600080fd5b506101b2612b56565b6040516101bf9190613fec565b60405180910390f35b3480156101d457600080fd5b506101ef60048036038101906101ea919061400e565b6130fb565b005b6001818154811061020157600080fd5b90600052602060002090600d02016000915090508060000154908060010160009054906101000a900473ffffffffffffffffffffffffffffffffffffffff169080600201805461025090614102565b80601f016020809104026020016040519081016040528092919081815260200182805461027c90614102565b80156102c95780601f1061029e576101008083540402835291602001916102c9565b820191906000526020600020905b8154815290600101906020018083116102ac57829003601f168201915b5050505050908060030154908060040154908060050180546102ea90614102565b80601f016020809104026020016040519081016040528092919081815260200182805461031690614102565b80156103635780601f1061033857610100808354040283529160200191610363565b820191906000526020600020905b81548152906001019060200180831161034657829003601f168201915b50505050509080600601549080600701549080600801549080600a0160009054906101000a900473ffffffffffffffffffffffffffffffffffffffff169080600c015490508b565b8160018054905081106103f3576040517f08c379a00000000000000000000000000000000000000000000000000000000081526004016103ea9061417f565b60405180910390fd5b8260006001828154811061040a5761040961419f565b5b90600052602060002090600d0201604051806101a0016040529081600082015481526020016001820160009054906101000a900473ffffffffffffffffffffffffffffffffffffffff1673ffffffffffffffffffffffffffffffffffffffff1673ffffffffffffffffffffffffffffffffffffffff16815260200160028201805461049490614102565b80601f01602080910402602001604051908101604052809291908181526020018280546104c090614102565b801561050d5780601f106104e25761010080835404028352916020019161050d565b820191906000526020600020905b8154815290600101906020018083116104f057829003601f168201915b50505050508152602001600382015481526020016004820154815260200160058201805461053a90614102565b80601f016020809104026020016040519081016040528092919081815260200182805461056690614102565b80156105b35780601f10610588576101008083540402835291602001916105b3565b820191906000526020600020905b81548152906001019060200180831161059657829003601f168201915b5050505050815260200160068201548152602001600782015481526020016008820154815260200160098201805480602002602001604051908101604052809291908181526020016000905b828210156108735783829060005260206000209060080201604051806101000160405290816000820154815260200160018201805461063d90614102565b80601f016020809104026020016040519081016040528092919081815260200182805461066990614102565b80156106b65780601f1061068b576101008083540402835291602001916106b6565b820191906000526020600020905b81548152906001019060200180831161069957829003601f168201915b50505050508152602001600282015481526020016003820160009054906101000a900473ffffffffffffffffffffffffffffffffffffffff1673ffffffffffffffffffffffffffffffffffffffff1673ffffffffffffffffffffffffffffffffffffffff16815260200160048201805461072f90614102565b80601f016020809104026020016040519081016040528092919081815260200182805461075b90614102565b80156107a85780601f1061077d576101008083540402835291602001916107a8565b820191906000526020600020905b81548152906001019060200180831161078b57829003601f168201915b505050505081526020016005820160009054906101000a900460ff16151515158152602001600682015481526020016007820180548060200260200160405190810160405280929190818152602001828054801561085b57602002820191906000526020600020905b8160009054906101000a900473ffffffffffffffffffffffffffffffffffffffff1673ffffffffffffffffffffffffffffffffffffffff1681526020019060010190808311610811575b505050505081525050815260200190600101906105ff565b505050508152602001600a820160009054906101000a900473ffffffffffffffffffffffffffffffffffffffff1673ffffffffffffffffffffffffffffffffffffffff1673ffffffffffffffffffffffffffffffffffffffff168152602001600b820180548060200260200160405190810160405280929190818152602001828054801561095657602002820191906000526020600020905b8160009054906101000a900473ffffffffffffffffffffffffffffffffffffffff1673ffffffffffffffffffffffffffffffffffffffff168152602001906001019080831161090c575b50505050508152602001600c82015481525050905060006002600084815260200190815260200160002060003373ffffffffffffffffffffffffffffffffffffffff1673ffffffffffffffffffffffffffffffffffffffff16815260200190815260200160002054116109fe576040517f08c379a00000000000000000000000000000000000000000000000000000000081526004016109f590614240565b60405180910390fd5b8484600060018381548110610a1657610a1561419f565b5b90600052602060002090600d0201604051806101a0016040529081600082015481526020016001820160009054906101000a900473ffffffffffffffffffffffffffffffffffffffff1673ffffffffffffffffffffffffffffffffffffffff1673ffffffffffffffffffffffffffffffffffffffff168152602001600282018054610aa090614102565b80601f0160208091040260200160405190810160405280929190818152602001828054610acc90614102565b8015610b195780601f10610aee57610100808354040283529160200191610b19565b820191906000526020600020905b815481529060010190602001808311610afc57829003601f168201915b505050505081526020016003820154815260200160048201548152602001600582018054610b4690614102565b80601f0160208091040260200160405190810160405280929190818152602001828054610b7290614102565b8015610bbf5780601f10610b9457610100808354040283529160200191610bbf565b820191906000526020600020905b815481529060010190602001808311610ba257829003601f168201915b5050505050815260200160068201548152602001600782015481526020016008820154815260200160098201805480602002602001604051908101604052809291908181526020016000905b82821015610e7f57838290600052602060002090600802016040518061010001604052908160008201548152602001600182018054610c4990614102565b80601f0160208091040260200160405190810160405280929190818152602001828054610c7590614102565b8015610cc25780601f10610c9757610100808354040283529160200191610cc2565b820191906000526020600020905b815481529060010190602001808311610ca557829003601f168201915b50505050508152602001600282015481526020016003820160009054906101000a900473ffffffffffffffffffffffffffffffffffffffff1673ffffffffffffffffffffffffffffffffffffffff1673ffffffffffffffffffffffffffffffffffffffff168152602001600482018054610d3b90614102565b80601f0160208091040260200160405190810160405280929190818152602001828054610d6790614102565b8015610db45780601f10610d8957610100808354040283529160200191610db4565b820191906000526020600020905b815481529060010190602001808311610d9757829003601f168201915b505050505081526020016005820160009054906101000a900460ff161515151581526020016006820154815260200160078201805480602002602001604051908101604052809291908181526020018280548015610e6757602002820191906000526020600020905b8160009054906101000a900473ffffffffffffffffffffffffffffffffffffffff1673ffffffffffffffffffffffffffffffffffffffff1681526020019060010190808311610e1d575b50505050508152505081526020019060010190610c0b565b505050508152602001600a820160009054906101000a900473ffffffffffffffffffffffffffffffffffffffff1673ffffffffffffffffffffffffffffffffffffffff1673ffffffffffffffffffffffffffffffffffffffff168152602001600b8201805480602002602001604051908101604052809291908181526020018280548015610f6257602002820191906000526020600020905b8160009054906101000a900473ffffffffffffffffffffffffffffffffffffffff1673ffffffffffffffffffffffffffffffffffffffff1681526020019060010190808311610f18575b50505050508152602001600c820154815250509050806101200151518210610fbf576040517f08c379a0000000000000000000000000000000000000000000000000000000008152600401610fb6906142ac565b60405180910390fd5b600060018981548110610fd557610fd461419f565b5b90600052602060002090600d020190506000816009018981548110610ffd57610ffc61419f565b5b90600052602060002090600802019050600460008b815260200190815260200160002060008a815260200190815260200160002060003373ffffffffffffffffffffffffffffffffffffffff1673ffffffffffffffffffffffffffffffffffffffff16815260200190815260200160002060009054906101000a900460ff16156110bc576040517f08c379a00000000000000000000000000000000000000000000000000000000081526004016110b39061433e565b60405180910390fd5b8060050160009054906101000a900460ff161561110e576040517f08c379a0000000000000000000000000000000000000000000000000000000008152600401611105906143d0565b60405180910390fd5b6001600460008c815260200190815260200160002060008b815260200190815260200160002060003373ffffffffffffffffffffffffffffffffffffffff1673ffffffffffffffffffffffffffffffffffffffff16815260200190815260200160002060006101000a81548160ff02191690831515021790555080600601600081548092919061119d9061441f565b919050555080600701339080600181540180825580915050600190039060005260206000200160009091909190916101000a81548173ffffffffffffffffffffffffffffffffffffffff021916908373ffffffffffffffffffffffffffffffffffffffff160217905550600282600b018054905061121b9190614496565b81600601541115611231576112308a8a613213565b5b50505050505050505050565b836001805490508110611285576040517f08c379a000000000000000000000000000000000000000000000000000000000815260040161127c9061417f565b60405180910390fd5b8460006001828154811061129c5761129b61419f565b5b90600052602060002090600d0201604051806101a0016040529081600082015481526020016001820160009054906101000a900473ffffffffffffffffffffffffffffffffffffffff1673ffffffffffffffffffffffffffffffffffffffff1673ffffffffffffffffffffffffffffffffffffffff16815260200160028201805461132690614102565b80601f016020809104026020016040519081016040528092919081815260200182805461135290614102565b801561139f5780601f106113745761010080835404028352916020019161139f565b820191906000526020600020905b81548152906001019060200180831161138257829003601f168201915b5050505050815260200160038201548152602001600482015481526020016005820180546113cc90614102565b80601f01602080910402602001604051908101604052809291908181526020018280546113f890614102565b80156114455780601f1061141a57610100808354040283529160200191611445565b820191906000526020600020905b81548152906001019060200180831161142857829003601f168201915b5050505050815260200160068201548152602001600782015481526020016008820154815260200160098201805480602002602001604051908101604052809291908181526020016000905b82821015611705578382906000526020600020906008020160405180610100016040529081600082015481526020016001820180546114cf90614102565b80601f01602080910402602001604051908101604052809291908181526020018280546114fb90614102565b80156115485780601f1061151d57610100808354040283529160200191611548565b820191906000526020600020905b81548152906001019060200180831161152b57829003601f168201915b50505050508152602001600282015481526020016003820160009054906101000a900473ffffffffffffffffffffffffffffffffffffffff1673ffffffffffffffffffffffffffffffffffffffff1673ffffffffffffffffffffffffffffffffffffffff1681526020016004820180546115c190614102565b80601f01602080910402602001604051908101604052809291908181526020018280546115ed90614102565b801561163a5780601f1061160f5761010080835404028352916020019161163a565b820191906000526020600020905b81548152906001019060200180831161161d57829003601f168201915b505050505081526020016005820160009054906101000a900460ff1615151515815260200160068201548152602001600782018054806020026020016040519081016040528092919081815260200182805480156116ed57602002820191906000526020600020905b8160009054906101000a900473ffffffffffffffffffffffffffffffffffffffff1673ffffffffffffffffffffffffffffffffffffffff16815260200190600101908083116116a3575b50505050508152505081526020019060010190611491565b505050508152602001600a820160009054906101000a900473ffffffffffffffffffffffffffffffffffffffff1673ffffffffffffffffffffffffffffffffffffffff1673ffffffffffffffffffffffffffffffffffffffff168152602001600b82018054806020026020016040519081016040528092919081815260200182805480156117e857602002820191906000526020600020905b8160009054906101000a900473ffffffffffffffffffffffffffffffffffffffff1673ffffffffffffffffffffffffffffffffffffffff168152602001906001019080831161179e575b50505050508152602001600c820154815250509050806020015173ffffffffffffffffffffffffffffffffffffffff163373ffffffffffffffffffffffffffffffffffffffff161461186f576040517f08c379a000000000000000000000000000000000000000000000000000000000815260040161186690614539565b60405180910390fd5b6000600188815481106118855761188461419f565b5b90600052602060002090600d02019050806003015481600c015410156118e0576040517f08c379a00000000000000000000000000000000000000000000000000000000081526004016118d7906145a5565b60405180910390fd5b600073ffffffffffffffffffffffffffffffffffffffff168573ffffffffffffffffffffffffffffffffffffffff160361194f576040517f08c379a000000000000000000000000000000000000000000000000000000000815260040161194690614611565b60405180910390fd5b80600c0154861115611996576040517f08c379a000000000000000000000000000000000000000000000000000000000815260040161198d9061467d565b60405180910390fd5b6000816009018054905090506000826009016001816001815401808255809150500390600052602060002090600802019050818160000181905550888160010190816119e2919061483f565b50878160020181905550868160030160006101000a81548173ffffffffffffffffffffffffffffffffffffffff021916908373ffffffffffffffffffffffffffffffffffffffff1602179055506040518060400160405280600781526020017f70656e64696e6700000000000000000000000000000000000000000000000000815250816004019081611a75919061483f565b506000816006018190555060008160050160006101000a81548160ff02191690831515021790555050505050505050505050565b60008054906101000a900473ffffffffffffffffffffffffffffffffffffffff1681565b806001805490508110611b15576040517f08c379a0000000000000000000000000000000000000000000000000000000008152600401611b0c9061417f565b60405180910390fd5b600060018381548110611b2b57611b2a61419f565b5b90600052602060002090600d020190508060060154421115611b8b57611b50836133d5565b6040517f08c379a0000000000000000000000000000000000000000000000000000000008152600401611b8290614983565b60405180910390fd5b60006002600085815260200190815260200160002060003373ffffffffffffffffffffffffffffffffffffffff1673ffffffffffffffffffffffffffffffffffffffff1681526020019081526020016000205414611c1e576040517f08c379a0000000000000000000000000000000000000000000000000000000008152600401611c15906149ef565b60405180910390fd5b8060080154341015611c65576040517f08c379a0000000000000000000000000000000000000000000000000000000008152600401611c5c90614a81565b60405180910390fd5b806003015481600c015410611caf576040517f08c379a0000000000000000000000000000000000000000000000000000000008152600401611ca690614aed565b60405180910390fd5b6000816008015434611cc19190614496565b90508082600a0160009054906101000a900473ffffffffffffffffffffffffffffffffffffffff1673ffffffffffffffffffffffffffffffffffffffff166370a08231306040518263ffffffff1660e01b8152600401611d219190613a57565b602060405180830381865afa158015611d3e573d6000803e3d6000fd5b505050506040513d601f19601f82011682018060405250810190611d629190614b22565b1015611da3576040517f08c379a0000000000000000000000000000000000000000000000000000000008152600401611d9a90614b9b565b60405180910390fd5b81600a0160009054906101000a900473ffffffffffffffffffffffffffffffffffffffff1673ffffffffffffffffffffffffffffffffffffffff1663a9059cbb33836040518363ffffffff1660e01b8152600401611e02929190614bbb565b6020604051808303816000875af1158015611e21573d6000803e3d6000fd5b505050506040513d601f19601f82011682018060405250810190611e459190614c10565b611e84576040517f08c379a0000000000000000000000000000000000000000000000000000000008152600401611e7b90614c89565b60405180910390fd5b346002600086815260200190815260200160002060003373ffffffffffffffffffffffffffffffffffffffff1673ffffffffffffffffffffffffffffffffffffffff1681526020019081526020016000208190555081600b01339080600181540180825580915050600190039060005260206000200160009091909190916101000a81548173ffffffffffffffffffffffffffffffffffffffff021916908373ffffffffffffffffffffffffffffffffffffffff160217905550816007016000815480929190611f539061441f565b91905055503482600c016000828254611f6c9190614ca9565b9250508190555050505050565b6060816001805490508110611fc3576040517f08c379a0000000000000000000000000000000000000000000000000000000008152600401611fba9061417f565b60405180910390fd5b82600060018281548110611fda57611fd961419f565b5b90600052602060002090600d0201604051806101a0016040529081600082015481526020016001820160009054906101000a900473ffffffffffffffffffffffffffffffffffffffff1673ffffffffffffffffffffffffffffffffffffffff1673ffffffffffffffffffffffffffffffffffffffff16815260200160028201805461206490614102565b80601f016020809104026020016040519081016040528092919081815260200182805461209090614102565b80156120dd5780601f106120b2576101008083540402835291602001916120dd565b820191906000526020600020905b8154815290600101906020018083116120c057829003601f168201915b50505050508152602001600382015481526020016004820154815260200160058201805461210a90614102565b80601f016020809104026020016040519081016040528092919081815260200182805461213690614102565b80156121835780601f1061215857610100808354040283529160200191612183565b820191906000526020600020905b81548152906001019060200180831161216657829003601f168201915b5050505050815260200160068201548152602001600782015481526020016008820154815260200160098201805480602002602001604051908101604052809291908181526020016000905b828210156124435783829060005260206000209060080201604051806101000160405290816000820154815260200160018201805461220d90614102565b80601f016020809104026020016040519081016040528092919081815260200182805461223990614102565b80156122865780601f1061225b57610100808354040283529160200191612286565b820191906000526020600020905b81548152906001019060200180831161226957829003601f168201915b50505050508152602001600282015481526020016003820160009054906101000a900473ffffffffffffffffffffffffffffffffffffffff1673ffffffffffffffffffffffffffffffffffffffff1673ffffffffffffffffffffffffffffffffffffffff1681526020016004820180546122ff90614102565b80601f016020809104026020016040519081016040528092919081815260200182805461232b90614102565b80156123785780601f1061234d57610100808354040283529160200191612378565b820191906000526020600020905b81548152906001019060200180831161235b57829003601f168201915b505050505081526020016005820160009054906101000a900460ff16151515158152602001600682015481526020016007820180548060200260200160405190810160405280929190818152602001828054801561242b57602002820191906000526020600020905b8160009054906101000a900473ffffffffffffffffffffffffffffffffffffffff1673ffffffffffffffffffffffffffffffffffffffff16815260200190600101908083116123e1575b505050505081525050815260200190600101906121cf565b505050508152602001600a820160009054906101000a900473ffffffffffffffffffffffffffffffffffffffff1673ffffffffffffffffffffffffffffffffffffffff1673ffffffffffffffffffffffffffffffffffffffff168152602001600b820180548060200260200160405190810160405280929190818152602001828054801561252657602002820191906000526020600020905b8160009054906101000a900473ffffffffffffffffffffffffffffffffffffffff1673ffffffffffffffffffffffffffffffffffffffff16815260200190600101908083116124dc575b50505050508152602001600c82015481525050905060006002600084815260200190815260200160002060003373ffffffffffffffffffffffffffffffffffffffff1673ffffffffffffffffffffffffffffffffffffffff16815260200190815260200160002054116125ce576040517f08c379a00000000000000000000000000000000000000000000000000000000081526004016125c590614240565b60405180910390fd5b6000600186815481106125e4576125e361419f565b5b90600052602060002090600d0201604051806101a0016040529081600082015481526020016001820160009054906101000a900473ffffffffffffffffffffffffffffffffffffffff1673ffffffffffffffffffffffffffffffffffffffff1673ffffffffffffffffffffffffffffffffffffffff16815260200160028201805461266e90614102565b80601f016020809104026020016040519081016040528092919081815260200182805461269a90614102565b80156126e75780601f106126bc576101008083540402835291602001916126e7565b820191906000526020600020905b8154815290600101906020018083116126ca57829003601f168201915b50505050508152602001600382015481526020016004820154815260200160058201805461271490614102565b80601f016020809104026020016040519081016040528092919081815260200182805461274090614102565b801561278d5780601f106127625761010080835404028352916020019161278d565b820191906000526020600020905b81548152906001019060200180831161277057829003601f168201915b5050505050815260200160068201548152602001600782015481526020016008820154815260200160098201805480602002602001604051908101604052809291908181526020016000905b82821015612a4d5783829060005260206000209060080201604051806101000160405290816000820154815260200160018201805461281790614102565b80601f016020809104026020016040519081016040528092919081815260200182805461284390614102565b80156128905780601f1061286557610100808354040283529160200191612890565b820191906000526020600020905b81548152906001019060200180831161287357829003601f168201915b50505050508152602001600282015481526020016003820160009054906101000a900473ffffffffffffffffffffffffffffffffffffffff1673ffffffffffffffffffffffffffffffffffffffff1673ffffffffffffffffffffffffffffffffffffffff16815260200160048201805461290990614102565b80601f016020809104026020016040519081016040528092919081815260200182805461293590614102565b80156129825780601f1061295757610100808354040283529160200191612982565b820191906000526020600020905b81548152906001019060200180831161296557829003601f168201915b505050505081526020016005820160009054906101000a900460ff161515151581526020016006820154815260200160078201805480602002602001604051908101604052809291908181526020018280548015612a3557602002820191906000526020600020905b8160009054906101000a900473ffffffffffffffffffffffffffffffffffffffff1673ffffffffffffffffffffffffffffffffffffffff16815260200190600101908083116129eb575b505050505081525050815260200190600101906127d9565b505050508152602001600a820160009054906101000a900473ffffffffffffffffffffffffffffffffffffffff1673ffffffffffffffffffffffffffffffffffffffff1673ffffffffffffffffffffffffffffffffffffffff168152602001600b8201805480602002602001604051908101604052809291908181526020018280548015612b3057602002820191906000526020600020905b8160009054906101000a900473ffffffffffffffffffffffffffffffffffffffff1673ffffffffffffffffffffffffffffffffffffffff1681526020019060010190808311612ae6575b50505050508152602001600c820154815250509050806101200151945050505050919050565b60606001805480602002602001604051908101604052809291908181526020016000905b828210156130f257838290600052602060002090600d0201604051806101a0016040529081600082015481526020016001820160009054906101000a900473ffffffffffffffffffffffffffffffffffffffff1673ffffffffffffffffffffffffffffffffffffffff1673ffffffffffffffffffffffffffffffffffffffff168152602001600282018054612c0e90614102565b80601f0160208091040260200160405190810160405280929190818152602001828054612c3a90614102565b8015612c875780601f10612c5c57610100808354040283529160200191612c87565b820191906000526020600020905b815481529060010190602001808311612c6a57829003601f168201915b505050505081526020016003820154815260200160048201548152602001600582018054612cb490614102565b80601f0160208091040260200160405190810160405280929190818152602001828054612ce090614102565b8015612d2d5780601f10612d0257610100808354040283529160200191612d2d565b820191906000526020600020905b815481529060010190602001808311612d1057829003601f168201915b5050505050815260200160068201548152602001600782015481526020016008820154815260200160098201805480602002602001604051908101604052809291908181526020016000905b82821015612fed57838290600052602060002090600802016040518061010001604052908160008201548152602001600182018054612db790614102565b80601f0160208091040260200160405190810160405280929190818152602001828054612de390614102565b8015612e305780601f10612e0557610100808354040283529160200191612e30565b820191906000526020600020905b815481529060010190602001808311612e1357829003601f168201915b50505050508152602001600282015481526020016003820160009054906101000a900473ffffffffffffffffffffffffffffffffffffffff1673ffffffffffffffffffffffffffffffffffffffff1673ffffffffffffffffffffffffffffffffffffffff168152602001600482018054612ea990614102565b80601f0160208091040260200160405190810160405280929190818152602001828054612ed590614102565b8015612f225780601f10612ef757610100808354040283529160200191612f22565b820191906000526020600020905b815481529060010190602001808311612f0557829003601f168201915b505050505081526020016005820160009054906101000a900460ff161515151581526020016006820154815260200160078201805480602002602001604051908101604052809291908181526020018280548015612fd557602002820191906000526020600020905b8160009054906101000a900473ffffffffffffffffffffffffffffffffffffffff1673ffffffffffffffffffffffffffffffffffffffff1681526020019060010190808311612f8b575b50505050508152505081526020019060010190612d79565b505050508152602001600a820160009054906101000a900473ffffffffffffffffffffffffffffffffffffffff1673ffffffffffffffffffffffffffffffffffffffff1673ffffffffffffffffffffffffffffffffffffffff168152602001600b82018054806020026020016040519081016040528092919081815260200182805480156130d057602002820191906000526020600020905b8160009054906101000a900473ffffffffffffffffffffffffffffffffffffffff1673ffffffffffffffffffffffffffffffffffffffff1681526020019060010190808311613086575b50505050508152602001600c8201548152505081526020019060010190612b7a565b50505050905090565b600060018054905090506000600180816001815401808255809150500390600052602060002090600d02019050818160000181905550338160010160006101000a81548173ffffffffffffffffffffffffffffffffffffffff021916908373ffffffffffffffffffffffffffffffffffffffff16021790555087816002019081613185919061483f565b50868160030181905550858160050190816131a0919061483f565b508481600601819055508381600801819055504281600401819055508281600a0160006101000a81548173ffffffffffffffffffffffffffffffffffffffff021916908373ffffffffffffffffffffffffffffffffffffffff160217905550600081600c01819055505050505050505050565b6000600183815481106132295761322861419f565b5b90600052602060002090600d0201905060008160090183815481106132515761325061419f565b5b906000526020600020906008020190508060050160009054906101000a900460ff16156132b3576040517f08c379a00000000000000000000000000000000000000000000000000000000081526004016132aa90614d29565b60405180910390fd5b6040518060400160405280600881526020017f617070726f7665640000000000000000000000000000000000000000000000008152508160040190816132f9919061483f565b5060008160030160009054906101000a900473ffffffffffffffffffffffffffffffffffffffff1673ffffffffffffffffffffffffffffffffffffffff16826002015460405161334890614d7a565b60006040518083038185875af1925050503d8060008114613385576040519150601f19603f3d011682016040523d82523d6000602084013e61338a565b606091505b50509050806133ce576040517f08c379a00000000000000000000000000000000000000000000000000000000081526004016133c590614ddb565b60405180910390fd5b5050505050565b6000600182815481106133eb576133ea61419f565b5b90600052602060002090600d0201905060005b81600b01805490508110156135bf57600082600b0182815481106134255761342461419f565b5b9060005260206000200160009054906101000a900473ffffffffffffffffffffffffffffffffffffffff16905060006002600086815260200190815260200160002060008373ffffffffffffffffffffffffffffffffffffffff1673ffffffffffffffffffffffffffffffffffffffff16815260200190815260200160002054905060006002600087815260200190815260200160002060008473ffffffffffffffffffffffffffffffffffffffff1673ffffffffffffffffffffffffffffffffffffffff1681526020019081526020016000208190555060008273ffffffffffffffffffffffffffffffffffffffff168260405161352390614d7a565b60006040518083038185875af1925050503d8060008114613560576040519150601f19603f3d011682016040523d82523d6000602084013e613565565b606091505b50509050806135a9576040517f08c379a00000000000000000000000000000000000000000000000000000000081526004016135a090614ddb565b60405180910390fd5b50505080806135b79061441f565b9150506133fe565b505050565b6000604051905090565b600080fd5b600080fd5b6000819050919050565b6135eb816135d8565b81146135f657600080fd5b50565b600081359050613608816135e2565b92915050565b600060208284031215613624576136236135ce565b5b6000613632848285016135f9565b91505092915050565b613644816135d8565b82525050565b600073ffffffffffffffffffffffffffffffffffffffff82169050919050565b60006136758261364a565b9050919050565b6136858161366a565b82525050565b600081519050919050565b600082825260208201905092915050565b60005b838110156136c55780820151818401526020810190506136aa565b60008484015250505050565b6000601f19601f8301169050919050565b60006136ed8261368b565b6136f78185613696565b93506137078185602086016136a7565b613710816136d1565b840191505092915050565b6000819050919050565b600061374061373b6137368461364a565b61371b565b61364a565b9050919050565b600061375282613725565b9050919050565b600061376482613747565b9050919050565b61377481613759565b82525050565b600061016082019050613790600083018e61363b565b61379d602083018d61367c565b81810360408301526137af818c6136e2565b90506137be606083018b61363b565b6137cb608083018a61363b565b81810360a08301526137dd81896136e2565b90506137ec60c083018861363b565b6137f960e083018761363b565b61380761010083018661363b565b61381561012083018561376b565b61382361014083018461363b565b9c9b505050505050505050505050565b6000806040838503121561384a576138496135ce565b5b6000613858858286016135f9565b9250506020613869858286016135f9565b9150509250929050565b600080fd5b600080fd5b7f4e487b7100000000000000000000000000000000000000000000000000000000600052604160045260246000fd5b6138b5826136d1565b810181811067ffffffffffffffff821117156138d4576138d361387d565b5b80604052505050565b60006138e76135c4565b90506138f382826138ac565b919050565b600067ffffffffffffffff8211156139135761391261387d565b5b61391c826136d1565b9050602081019050919050565b82818337600083830152505050565b600061394b613946846138f8565b6138dd565b90508281526020810184848401111561396757613966613878565b5b613972848285613929565b509392505050565b600082601f83011261398f5761398e613873565b5b813561399f848260208601613938565b91505092915050565b6139b18161366a565b81146139bc57600080fd5b50565b6000813590506139ce816139a8565b92915050565b600080600080608085870312156139ee576139ed6135ce565b5b60006139fc878288016135f9565b945050602085013567ffffffffffffffff811115613a1d57613a1c6135d3565b5b613a298782880161397a565b9350506040613a3a878288016135f9565b9250506060613a4b878288016139bf565b91505092959194509250565b6000602082019050613a6c600083018461367c565b92915050565b600081519050919050565b600082825260208201905092915050565b6000819050602082019050919050565b613aa7816135d8565b82525050565b600082825260208201905092915050565b6000613ac98261368b565b613ad38185613aad565b9350613ae38185602086016136a7565b613aec816136d1565b840191505092915050565b6000613b028261364a565b9050919050565b613b1281613af7565b82525050565b60008115159050919050565b613b2d81613b18565b82525050565b600081519050919050565b600082825260208201905092915050565b6000819050602082019050919050565b613b688161366a565b82525050565b6000613b7a8383613b5f565b60208301905092915050565b6000602082019050919050565b6000613b9e82613b33565b613ba88185613b3e565b9350613bb383613b4f565b8060005b83811015613be4578151613bcb8882613b6e565b9750613bd683613b86565b925050600181019050613bb7565b5085935050505092915050565b600061010083016000830151613c0a6000860182613a9e565b5060208301518482036020860152613c228282613abe565b9150506040830151613c376040860182613a9e565b506060830151613c4a6060860182613b09565b5060808301518482036080860152613c628282613abe565b91505060a0830151613c7760a0860182613b24565b5060c0830151613c8a60c0860182613a9e565b5060e083015184820360e0860152613ca28282613b93565b9150508091505092915050565b6000613cbb8383613bf1565b905092915050565b6000602082019050919050565b6000613cdb82613a72565b613ce58185613a7d565b935083602082028501613cf785613a8e565b8060005b85811015613d335784840389528151613d148582613caf565b9450613d1f83613cc3565b925060208a01995050600181019050613cfb565b50829750879550505050505092915050565b60006020820190508181036000830152613d5f8184613cd0565b905092915050565b600081519050919050565b600082825260208201905092915050565b6000819050602082019050919050565b600082825260208201905092915050565b6000613daf82613a72565b613db98185613d93565b935083602082028501613dcb85613a8e565b8060005b85811015613e075784840389528151613de88582613caf565b9450613df383613cc3565b925060208a01995050600181019050613dcf565b50829750879550505050505092915050565b613e2281613759565b82525050565b60006101a083016000830151613e416000860182613a9e565b506020830151613e546020860182613b5f565b5060408301518482036040860152613e6c8282613abe565b9150506060830151613e816060860182613a9e565b506080830151613e946080860182613a9e565b5060a083015184820360a0860152613eac8282613abe565b91505060c0830151613ec160c0860182613a9e565b5060e0830151613ed460e0860182613a9e565b50610100830151613ee9610100860182613a9e565b50610120830151848203610120860152613f038282613da4565b915050610140830151613f1a610140860182613e19565b50610160830151848203610160860152613f348282613b93565b915050610180830151613f4b610180860182613a9e565b508091505092915050565b6000613f628383613e28565b905092915050565b6000602082019050919050565b6000613f8282613d67565b613f8c8185613d72565b935083602082028501613f9e85613d83565b8060005b85811015613fda5784840389528151613fbb8582613f56565b9450613fc683613f6a565b925060208a01995050600181019050613fa2565b50829750879550505050505092915050565b600060208201905081810360008301526140068184613f77565b905092915050565b60008060008060008060c0878903121561402b5761402a6135ce565b5b600087013567ffffffffffffffff811115614049576140486135d3565b5b61405589828a0161397a565b965050602061406689828a016135f9565b955050604087013567ffffffffffffffff811115614087576140866135d3565b5b61409389828a0161397a565b94505060606140a489828a016135f9565b93505060806140b589828a016135f9565b92505060a06140c689828a016139bf565b9150509295509295509295565b7f4e487b7100000000000000000000000000000000000000000000000000000000600052602260045260246000fd5b6000600282049050600182168061411a57607f821691505b60208210810361412d5761412c6140d3565b5b50919050565b7f50726f6a65637420646f65736e27742065786973740000000000000000000000600082015250565b6000614169601583613696565b915061417482614133565b602082019050919050565b600060208201905081810360008301526141988161415c565b9050919050565b7f4e487b7100000000000000000000000000000000000000000000000000000000600052603260045260246000fd5b7f4f6e6c7920636f6e7472696275746f722063616e20706572666f726d2074686960008201527f7320616374696f6e000000000000000000000000000000000000000000000000602082015250565b600061422a602883613696565b9150614235826141ce565b604082019050919050565b600060208201905081810360008301526142598161421d565b9050919050565b7f5265717565737420646f6573206e6f7420657869737400000000000000000000600082015250565b6000614296601683613696565b91506142a182614260565b602082019050919050565b600060208201905081810360008301526142c581614289565b9050919050565b7f596f7520616c726561647920617070726f76656420746869732072657175657360008201527f7400000000000000000000000000000000000000000000000000000000000000602082015250565b6000614328602183613696565b9150614333826142cc565b604082019050919050565b600060208201905081810360008301526143578161431b565b9050919050565b7f54686973207265717565737420616c726561647920676f7420656e6f7567682060008201527f766f74657320616e642069742069732065786563757465640000000000000000602082015250565b60006143ba603883613696565b91506143c58261435e565b604082019050919050565b600060208201905081810360008301526143e9816143ad565b9050919050565b7f4e487b7100000000000000000000000000000000000000000000000000000000600052601160045260246000fd5b600061442a826135d8565b91507fffffffffffffffffffffffffffffffffffffffffffffffffffffffffffffffff820361445c5761445b6143f0565b5b600182019050919050565b7f4e487b7100000000000000000000000000000000000000000000000000000000600052601260045260246000fd5b60006144a1826135d8565b91506144ac836135d8565b9250826144bc576144bb614467565b5b828204905092915050565b7f4f6e6c79206f776e65722063616e20696e766f6b6520746869732066756e637460008201527f696f6e0000000000000000000000000000000000000000000000000000000000602082015250565b6000614523602383613696565b915061452e826144c7565b604082019050919050565b6000602082019050818103600083015261455281614516565b9050919050565b7f476f616c206e6f74207265616368656420796574000000000000000000000000600082015250565b600061458f601483613696565b915061459a82614559565b602082019050919050565b600060208201905081810360008301526145be81614582565b9050919050565b7f496e76616c696420526563697069656e74206164647265737300000000000000600082015250565b60006145fb601983613696565b9150614606826145c5565b602082019050919050565b6000602082019050818103600083015261462a816145ee565b9050919050565b7f4e6f2073756666696369616e742062616c616e63650000000000000000000000600082015250565b6000614667601583613696565b915061467282614631565b602082019050919050565b600060208201905081810360008301526146968161465a565b9050919050565b60008190508160005260206000209050919050565b60006020601f8301049050919050565b600082821b905092915050565b6000600883026146ff7fffffffffffffffffffffffffffffffffffffffffffffffffffffffffffffffff826146c2565b61470986836146c2565b95508019841693508086168417925050509392505050565b600061473c614737614732846135d8565b61371b565b6135d8565b9050919050565b6000819050919050565b61475683614721565b61476a61476282614743565b8484546146cf565b825550505050565b600090565b61477f614772565b61478a81848461474d565b505050565b5b818110156147ae576147a3600082614777565b600181019050614790565b5050565b601f8211156147f3576147c48161469d565b6147cd846146b2565b810160208510156147dc578190505b6147f06147e8856146b2565b83018261478f565b50505b505050565b600082821c905092915050565b6000614816600019846008026147f8565b1980831691505092915050565b600061482f8383614805565b9150826002028217905092915050565b6148488261368b565b67ffffffffffffffff8111156148615761486061387d565b5b61486b8254614102565b6148768282856147b2565b600060209050601f8311600181146148a95760008415614897578287015190505b6148a18582614823565b865550614909565b601f1984166148b78661469d565b60005b828110156148df578489015182556001820191506020850194506020810190506148ba565b868310156148fc57848901516148f8601f891682614805565b8355505b6001600288020188555050505b505050505050565b7f546869732070726f6a65637420646f656e7327742061636365707420636f6e7460008201527f7269627574696f6e7320616e796d6f7265000000000000000000000000000000602082015250565b600061496d603183613696565b915061497882614911565b604082019050919050565b6000602082019050818103600083015261499c81614960565b9050919050565b7f596f752061726520616c7265616479206120636f6e7472696275746f72000000600082015250565b60006149d9601d83613696565b91506149e4826149a3565b602082019050919050565b60006020820190508181036000830152614a08816149cc565b9050919050565b7f596f75722063757272656e7420636f6e747269627574696f6e20646f65736e2760008201527f74206576656e20776f727468203120746f6b656e000000000000000000000000602082015250565b6000614a6b603483613696565b9150614a7682614a0f565b604082019050919050565b60006020820190508181036000830152614a9a81614a5e565b9050919050565b7f476f616c20726561636865640000000000000000000000000000000000000000600082015250565b6000614ad7600c83613696565b9150614ae282614aa1565b602082019050919050565b60006020820190508181036000830152614b0681614aca565b9050919050565b600081519050614b1c816135e2565b92915050565b600060208284031215614b3857614b376135ce565b5b6000614b4684828501614b0d565b91505092915050565b7f4e6f2073756666696369616e7420746f6b656e73206c65667400000000000000600082015250565b6000614b85601983613696565b9150614b9082614b4f565b602082019050919050565b60006020820190508181036000830152614bb481614b78565b9050919050565b6000604082019050614bd0600083018561367c565b614bdd602083018461363b565b9392505050565b614bed81613b18565b8114614bf857600080fd5b50565b600081519050614c0a81614be4565b92915050565b600060208284031215614c2657614c256135ce565b5b6000614c3484828501614bfb565b91505092915050565b7f546f6b656e207472616e73666572206661696c65640000000000000000000000600082015250565b6000614c73601583613696565b9150614c7e82614c3d565b602082019050919050565b60006020820190508181036000830152614ca281614c66565b9050919050565b6000614cb4826135d8565b9150614cbf836135d8565b9250828201905080821115614cd757614cd66143f0565b5b92915050565b7f5265717565737420616c72656164792066696e616c697a656400000000000000600082015250565b6000614d13601983613696565b9150614d1e82614cdd565b602082019050919050565b60006020820190508181036000830152614d4281614d06565b9050919050565b600081905092915050565b50565b6000614d64600083614d49565b9150614d6f82614d54565b600082019050919050565b6000614d8582614d57565b9150819050919050565b7f4574686572207472616e73666572206661696c65640000000000000000000000600082015250565b6000614dc5601583613696565b9150614dd082614d8f565b602082019050919050565b60006020820190508181036000830152614df481614db8565b905091905056fea2646970667358221220a0f5a5eaeab4091a71e9c87717c1e5d948e5fb91cfc525bb16d4017ada2f0ee464736f6c63430008120033",
  "linkReferences": {},
  "deployedLinkReferences": {}
}