{
  "_format": "hh-sol-artifact-1",
  "contractName": "Campaign",
  "sourceName": "contracts/Campaign.sol",
  "abi": [
    {
      "inputs": [
        {
          "internalType": "uint256",
          "name": "_projIndex",
          "type": "uint256"
        },
        {
          "internalType": "uint256",
          "name": "_reqIndex",
          "type": "uint256"
        }
      ],
      "name": "approveRequest",
      "outputs": [],
      "stateMutability": "nonpayable",
      "type": "function"
    },
    {
      "inputs": [
        {
          "internalType": "uint256",
          "name": "_id",
          "type": "uint256"
        }
      ],
      "name": "contribute",
      "outputs": [],
      "stateMutability": "payable",
      "type": "function"
    },
    {
      "inputs": [
        {
          "internalType": "string",
          "name": "_title",
          "type": "string"
        },
        {
          "internalType": "uint256",
          "name": "_goal",
          "type": "uint256"
        },
        {
          "internalType": "string",
          "name": "_story",
          "type": "string"
        },
        {
          "internalType": "uint256",
          "name": "_maxReachTime",
          "type": "uint256"
        },
        {
          "internalType": "uint256",
          "name": "_tokenValue",
          "type": "uint256"
        },
        {
          "internalType": "uint256",
          "name": "_totalICOSupply",
          "type": "uint256"
        }
      ],
      "name": "createProject",
      "outputs": [],
      "stateMutability": "nonpayable",
      "type": "function"
    },
    {
      "inputs": [
        {
          "internalType": "uint256",
          "name": "_projectID",
          "type": "uint256"
        },
        {
          "internalType": "string",
          "name": "_description",
          "type": "string"
        },
        {
          "internalType": "uint256",
          "name": "_amount",
          "type": "uint256"
        },
        {
          "internalType": "address",
          "name": "_recipient",
          "type": "address"
        }
      ],
      "name": "createRequest",
      "outputs": [],
      "stateMutability": "nonpayable",
      "type": "function"
    },
    {
      "inputs": [],
      "name": "getProjects",
      "outputs": [
        {
          "components": [
            {
              "internalType": "uint256",
              "name": "id",
              "type": "uint256"
            },
            {
              "internalType": "address",
              "name": "owner",
              "type": "address"
            },
            {
              "internalType": "string",
              "name": "title",
              "type": "string"
            },
            {
              "internalType": "uint256",
              "name": "goal",
              "type": "uint256"
            },
            {
              "internalType": "uint256",
              "name": "launchDay",
              "type": "uint256"
            },
            {
              "internalType": "string",
              "name": "story",
              "type": "string"
            },
            {
              "internalType": "uint256",
              "name": "maxReachTime",
              "type": "uint256"
            },
            {
              "internalType": "uint256",
              "name": "numOfContributers",
              "type": "uint256"
            },
            {
              "internalType": "uint256",
              "name": "tokenValue",
              "type": "uint256"
            },
            {
              "components": [
                {
                  "internalType": "uint256",
                  "name": "id",
                  "type": "uint256"
                },
                {
                  "internalType": "string",
                  "name": "description",
                  "type": "string"
                },
                {
                  "internalType": "uint256",
                  "name": "amount",
                  "type": "uint256"
                },
                {
                  "internalType": "address payable",
                  "name": "recipient",
                  "type": "address"
                },
                {
                  "internalType": "string",
                  "name": "status",
                  "type": "string"
                },
                {
                  "internalType": "bool",
                  "name": "completed",
                  "type": "bool"
                },
                {
                  "internalType": "uint256",
                  "name": "approvalsNum",
                  "type": "uint256"
                },
                {
                  "internalType": "address[]",
                  "name": "voters",
                  "type": "address[]"
                }
              ],
              "internalType": "struct Campaign.Request[]",
              "name": "requests",
              "type": "tuple[]"
            },
            {
              "internalType": "contract ICOToken",
              "name": "icoToken",
              "type": "address"
            },
            {
              "internalType": "address[]",
              "name": "contributors",
              "type": "address[]"
            },
            {
              "internalType": "uint256",
              "name": "funds",
              "type": "uint256"
            },
            {
              "internalType": "uint256",
              "name": "spent",
              "type": "uint256"
            }
          ],
          "internalType": "struct Campaign.Project[]",
          "name": "",
          "type": "tuple[]"
        }
      ],
      "stateMutability": "view",
      "type": "function"
    },
    {
      "inputs": [
        {
          "internalType": "uint256",
          "name": "",
          "type": "uint256"
        }
      ],
      "name": "projects",
      "outputs": [
        {
          "internalType": "uint256",
          "name": "id",
          "type": "uint256"
        },
        {
          "internalType": "address",
          "name": "owner",
          "type": "address"
        },
        {
          "internalType": "string",
          "name": "title",
          "type": "string"
        },
        {
          "internalType": "uint256",
          "name": "goal",
          "type": "uint256"
        },
        {
          "internalType": "uint256",
          "name": "launchDay",
          "type": "uint256"
        },
        {
          "internalType": "string",
          "name": "story",
          "type": "string"
        },
        {
          "internalType": "uint256",
          "name": "maxReachTime",
          "type": "uint256"
        },
        {
          "internalType": "uint256",
          "name": "numOfContributers",
          "type": "uint256"
        },
        {
          "internalType": "uint256",
          "name": "tokenValue",
          "type": "uint256"
        },
        {
          "internalType": "contract ICOToken",
          "name": "icoToken",
          "type": "address"
        },
        {
          "internalType": "uint256",
          "name": "funds",
          "type": "uint256"
        },
        {
          "internalType": "uint256",
          "name": "spent",
          "type": "uint256"
        }
      ],
      "stateMutability": "view",
      "type": "function"
    }
  ],
  "bytecode": "0x608060405234801561001057600080fd5b50613cc1806100206000396000f3fe6080604052600436106200005c5760003560e01c80630769cb2a1462000061578063107046bd14620000885780632c0a90a914620000d05780637374a1bf14620000f5578063c1cbbca7146200011a578063dcc601281462000131575b600080fd5b3480156200006e57600080fd5b5062000086620000803660046200234c565b62000158565b005b3480156200009557600080fd5b50620000ad620000a7366004620023dc565b620002a4565b604051620000c79c9b9a999897969594939291906200243e565b60405180910390f35b348015620000dd57600080fd5b5062000086620000ef366004620024cb565b62000448565b3480156200010257600080fd5b506200008662000114366004620024ee565b62001092565b620000866200012b366004620023dc565b6200179b565b3480156200013e57600080fd5b506200014962001b6d565b604051620000c791906200269a565b6000805460405190919030908490620001719062002293565b6001600160a01b0390921682526020820152604001604051809103906000f080158015620001a3573d6000803e3d6000fd5b5060008054600181018255908052600e027f290decd9548b62a8d60345a988386fc84ba6bc95484008f6362f93160ef3e56381018481557f290decd9548b62a8d60345a988386fc84ba6bc95484008f6362f93160ef3e564820180546001600160a01b031916331790559192507f290decd9548b62a8d60345a988386fc84ba6bc95484008f6362f93160ef3e565016200023e8a826200287e565b5060038101889055600581016200025688826200287e565b50600681019590955560088501939093555050426004830155600a820180546001600160a01b0319166001600160a01b039092169190911790556000600c8201819055600d90910155505050565b60008181548110620002b557600080fd5b60009182526020909120600e90910201805460018201546002830180549294506001600160a01b039091169291620002ed90620027f0565b80601f01602080910402602001604051908101604052809291908181526020018280546200031b90620027f0565b80156200036c5780601f1062000340576101008083540402835291602001916200036c565b820191906000526020600020905b8154815290600101906020018083116200034e57829003601f168201915b5050505050908060030154908060040154908060050180546200038f90620027f0565b80601f0160208091040260200160405190810160405280929190818152602001828054620003bd90620027f0565b80156200040e5780601f10620003e2576101008083540402835291602001916200040e565b820191906000526020600020905b815481529060010190602001808311620003f057829003601f168201915b505050600684015460078501546008860154600a870154600c880154600d90980154969793969295509093506001600160a01b031691908c565b60005482908110620004775760405162461bcd60e51b81526004016200046e906200294b565b60405180910390fd5b8260008082815481106200048f576200048f6200297a565b90600052602060002090600e0201604051806101c0016040529081600082015481526020016001820160009054906101000a90046001600160a01b03166001600160a01b03166001600160a01b03168152602001600282018054620004f490620027f0565b80601f01602080910402602001604051908101604052809291908181526020018280546200052290620027f0565b8015620005735780601f10620005475761010080835404028352916020019162000573565b820191906000526020600020905b8154815290600101906020018083116200055557829003601f168201915b505050505081526020016003820154815260200160048201548152602001600582018054620005a290620027f0565b80601f0160208091040260200160405190810160405280929190818152602001828054620005d090620027f0565b8015620006215780601f10620005f55761010080835404028352916020019162000621565b820191906000526020600020905b8154815290600101906020018083116200060357829003601f168201915b5050505050815260200160068201548152602001600782015481526020016008820154815260200160098201805480602002602001604051908101604052809291908181526020016000905b828210156200088a57838290600052602060002090600802016040518061010001604052908160008201548152602001600182018054620006ae90620027f0565b80601f0160208091040260200160405190810160405280929190818152602001828054620006dc90620027f0565b80156200072d5780601f1062000701576101008083540402835291602001916200072d565b820191906000526020600020905b8154815290600101906020018083116200070f57829003601f168201915b50505091835250506002820154602082015260038201546001600160a01b031660408201526004820180546060909201916200076990620027f0565b80601f01602080910402602001604051908101604052809291908181526020018280546200079790620027f0565b8015620007e85780601f10620007bc57610100808354040283529160200191620007e8565b820191906000526020600020905b815481529060010190602001808311620007ca57829003601f168201915b505050505081526020016005820160009054906101000a900460ff1615151515815260200160068201548152602001600782018054806020026020016040519081016040528092919081815260200182805480156200087157602002820191906000526020600020905b81546001600160a01b0316815260019091019060200180831162000852575b505050505081525050815260200190600101906200066d565b50505090825250600a8201546001600160a01b0316602080830191909152600b830180546040805182850281018501825282815294019392830182828015620008fd57602002820191906000526020600020905b81546001600160a01b03168152600190910190602001808311620008de575b5050509183525050600c820154602080830191909152600d90920154604091820152600085815260018352818120338252909252902054909150620009965760405162461bcd60e51b815260206004820152602860248201527f4f6e6c7920636f6e7472696275746f722063616e20706572666f726d20746869604482015267399030b1ba34b7b760c11b60648201526084016200046e565b84846000808381548110620009af57620009af6200297a565b90600052602060002090600e0201604051806101c0016040529081600082015481526020016001820160009054906101000a90046001600160a01b03166001600160a01b03166001600160a01b0316815260200160028201805462000a1490620027f0565b80601f016020809104026020016040519081016040528092919081815260200182805462000a4290620027f0565b801562000a935780601f1062000a675761010080835404028352916020019162000a93565b820191906000526020600020905b81548152906001019060200180831162000a7557829003601f168201915b50505050508152602001600382015481526020016004820154815260200160058201805462000ac290620027f0565b80601f016020809104026020016040519081016040528092919081815260200182805462000af090620027f0565b801562000b415780601f1062000b155761010080835404028352916020019162000b41565b820191906000526020600020905b81548152906001019060200180831162000b2357829003601f168201915b5050505050815260200160068201548152602001600782015481526020016008820154815260200160098201805480602002602001604051908101604052809291908181526020016000905b8282101562000daa5783829060005260206000209060080201604051806101000160405290816000820154815260200160018201805462000bce90620027f0565b80601f016020809104026020016040519081016040528092919081815260200182805462000bfc90620027f0565b801562000c4d5780601f1062000c215761010080835404028352916020019162000c4d565b820191906000526020600020905b81548152906001019060200180831162000c2f57829003601f168201915b50505091835250506002820154602082015260038201546001600160a01b0316604082015260048201805460609092019162000c8990620027f0565b80601f016020809104026020016040519081016040528092919081815260200182805462000cb790620027f0565b801562000d085780601f1062000cdc5761010080835404028352916020019162000d08565b820191906000526020600020905b81548152906001019060200180831162000cea57829003601f168201915b505050505081526020016005820160009054906101000a900460ff16151515158152602001600682015481526020016007820180548060200260200160405190810160405280929190818152602001828054801562000d9157602002820191906000526020600020905b81546001600160a01b0316815260019091019060200180831162000d72575b5050505050815250508152602001906001019062000b8d565b50505090825250600a8201546001600160a01b0316602080830191909152600b83018054604080518285028101850182528281529401939283018282801562000e1d57602002820191906000526020600020905b81546001600160a01b0316815260019091019060200180831162000dfe575b50505050508152602001600c8201548152602001600d82015481525050905080610120015151821062000e8c5760405162461bcd60e51b815260206004820152601660248201527514995c5d595cdd08191bd95cc81b9bdd08195e1a5cdd60521b60448201526064016200046e565b600080898154811062000ea35762000ea36200297a565b90600052602060002090600e02019050600081600901898154811062000ecd5762000ecd6200297a565b600091825260208083208d84526002825260408085208e865283528085203386529092529220546008909102909101915060ff161562000f5a5760405162461bcd60e51b815260206004820152602160248201527f596f7520616c726561647920617070726f7665642074686973207265717565736044820152601d60fa1b60648201526084016200046e565b600581015460ff161562000fd25760405162461bcd60e51b815260206004820152603860248201527f54686973207265717565737420616c726561647920676f7420656e6f756768206044820152771d9bdd195cc8185b99081a5d081a5cc8195e1958dd5d195960421b60648201526084016200046e565b60008a81526002602090815260408083208c845282528083203384529091528120805460ff19166001179055600682018054916200101083620029a6565b9190505550806002015482600d0160008282546200102f9190620029c2565b9091555050600781018054600181018255600091825260209091200180546001600160a01b03191633179055600b8201546200106e90600290620029de565b816006015411156200108657620010868a8a62002027565b50505050505050505050565b60005484908110620010b85760405162461bcd60e51b81526004016200046e906200294b565b846000808281548110620010d057620010d06200297a565b90600052602060002090600e0201604051806101c0016040529081600082015481526020016001820160009054906101000a90046001600160a01b03166001600160a01b03166001600160a01b031681526020016002820180546200113590620027f0565b80601f01602080910402602001604051908101604052809291908181526020018280546200116390620027f0565b8015620011b45780601f106200118857610100808354040283529160200191620011b4565b820191906000526020600020905b8154815290600101906020018083116200119657829003601f168201915b505050505081526020016003820154815260200160048201548152602001600582018054620011e390620027f0565b80601f01602080910402602001604051908101604052809291908181526020018280546200121190620027f0565b8015620012625780601f10620012365761010080835404028352916020019162001262565b820191906000526020600020905b8154815290600101906020018083116200124457829003601f168201915b5050505050815260200160068201548152602001600782015481526020016008820154815260200160098201805480602002602001604051908101604052809291908181526020016000905b82821015620014cb57838290600052602060002090600802016040518061010001604052908160008201548152602001600182018054620012ef90620027f0565b80601f01602080910402602001604051908101604052809291908181526020018280546200131d90620027f0565b80156200136e5780601f1062001342576101008083540402835291602001916200136e565b820191906000526020600020905b8154815290600101906020018083116200135057829003601f168201915b50505091835250506002820154602082015260038201546001600160a01b03166040820152600482018054606090920191620013aa90620027f0565b80601f0160208091040260200160405190810160405280929190818152602001828054620013d890620027f0565b8015620014295780601f10620013fd5761010080835404028352916020019162001429565b820191906000526020600020905b8154815290600101906020018083116200140b57829003601f168201915b505050505081526020016005820160009054906101000a900460ff161515151581526020016006820154815260200160078201805480602002602001604051908101604052809291908181526020018280548015620014b257602002820191906000526020600020905b81546001600160a01b0316815260019091019060200180831162001493575b50505050508152505081526020019060010190620012ae565b50505090825250600a8201546001600160a01b0316602080830191909152600b8301805460408051828502810185018252828152940193928301828280156200153e57602002820191906000526020600020905b81546001600160a01b031681526001909101906020018083116200151f575b50505050508152602001600c8201548152602001600d82015481525050905080602001516001600160a01b0316336001600160a01b031614620015d05760405162461bcd60e51b815260206004820152602360248201527f4f6e6c79206f776e65722063616e20696e766f6b6520746869732066756e637460448201526234b7b760e91b60648201526084016200046e565b6000808881548110620015e757620015e76200297a565b90600052602060002090600e02019050806003015481600c01541015620016485760405162461bcd60e51b815260206004820152601460248201527311dbd85b081b9bdd081c995858da1959081e595d60621b60448201526064016200046e565b6001600160a01b0385166200169c5760405162461bcd60e51b8152602060048201526019602482015278496e76616c696420526563697069656e74206164647265737360381b60448201526064016200046e565b600c810154600d820154620016b29088620029c2565b1115620016fa5760405162461bcd60e51b81526020600482015260156024820152744e6f2073756666696369616e742062616c616e636560581b60448201526064016200046e565b6009810180546001808201835560009283526020909220600882020181815590918101620017298a826200287e565b50600281018890556003810180546001600160a01b0319166001600160a01b03891617905560408051808201909152600781526670656e64696e6760c81b602082015260048201906200177d90826200287e565b5060006006820155600501805460ff19169055505050505050505050565b60005481908110620017c15760405162461bcd60e51b81526004016200046e906200294b565b6000808381548110620017d857620017d86200297a565b90600052602060002090600e02019050806006015442118015620018035750806003015481600c0154105b156200181957620018148362002184565b505050565b600083815260016020908152604080832033845290915290205415620018825760405162461bcd60e51b815260206004820152601d60248201527f596f752061726520616c7265616479206120636f6e7472696275746f7200000060448201526064016200046e565b8060080154341015620018f55760405162461bcd60e51b815260206004820152603460248201527f596f75722063757272656e7420636f6e747269627574696f6e20646f65736e276044820152733a1032bb32b7103bb7b93a341018903a37b5b2b760611b60648201526084016200046e565b806003015481600c0154106200193d5760405162461bcd60e51b815260206004820152600c60248201526b11dbd85b081c995858da195960a21b60448201526064016200046e565b6000816008015434620019519190620029de565b600a8301546040516370a0823160e01b815230600482015291925082916001600160a01b03909116906370a0823190602401602060405180830381865afa158015620019a1573d6000803e3d6000fd5b505050506040513d601f19601f82011682018060405250810190620019c7919062002a01565b101562001a135760405162461bcd60e51b8152602060048201526019602482015278139bc81cdd59999a58da585b9d081d1bdad95b9cc81b19599d603a1b60448201526064016200046e565b600a8201546001600160a01b031663a9059cbb3362001a3b84670de0b6b3a764000062002a1b565b6040516001600160e01b031960e085901b1681526001600160a01b03909216600483015260248201526044016020604051808303816000875af115801562001a87573d6000803e3d6000fd5b505050506040513d601f19601f8201168201806040525081019062001aad919062002a35565b62001af35760405162461bcd60e51b8152602060048201526015602482015274151bdad95b881d1c985b9cd9995c8819985a5b1959605a1b60448201526064016200046e565b600084815260016020818152604080842033808652908352908420349055600b860180549384018155845290832090910180546001600160a01b03191690911790556007830180549162001b4783620029a6565b91905055503482600c01600082825462001b629190620029c2565b909155505050505050565b60606000805480602002602001604051908101604052809291908181526020016000905b828210156200201e576000848152602090819020604080516101c081018252600e86029092018054835260018101546001600160a01b0316938301939093526002830180549293929184019162001be890620027f0565b80601f016020809104026020016040519081016040528092919081815260200182805462001c1690620027f0565b801562001c675780601f1062001c3b5761010080835404028352916020019162001c67565b820191906000526020600020905b81548152906001019060200180831162001c4957829003601f168201915b50505050508152602001600382015481526020016004820154815260200160058201805462001c9690620027f0565b80601f016020809104026020016040519081016040528092919081815260200182805462001cc490620027f0565b801562001d155780601f1062001ce95761010080835404028352916020019162001d15565b820191906000526020600020905b81548152906001019060200180831162001cf757829003601f168201915b5050505050815260200160068201548152602001600782015481526020016008820154815260200160098201805480602002602001604051908101604052809291908181526020016000905b8282101562001f7e5783829060005260206000209060080201604051806101000160405290816000820154815260200160018201805462001da290620027f0565b80601f016020809104026020016040519081016040528092919081815260200182805462001dd090620027f0565b801562001e215780601f1062001df55761010080835404028352916020019162001e21565b820191906000526020600020905b81548152906001019060200180831162001e0357829003601f168201915b50505091835250506002820154602082015260038201546001600160a01b0316604082015260048201805460609092019162001e5d90620027f0565b80601f016020809104026020016040519081016040528092919081815260200182805462001e8b90620027f0565b801562001edc5780601f1062001eb05761010080835404028352916020019162001edc565b820191906000526020600020905b81548152906001019060200180831162001ebe57829003601f168201915b505050505081526020016005820160009054906101000a900460ff16151515158152602001600682015481526020016007820180548060200260200160405190810160405280929190818152602001828054801562001f6557602002820191906000526020600020905b81546001600160a01b0316815260019091019060200180831162001f46575b5050505050815250508152602001906001019062001d61565b50505090825250600a8201546001600160a01b0316602080830191909152600b83018054604080518285028101850182528281529401939283018282801562001ff157602002820191906000526020600020905b81546001600160a01b0316815260019091019060200180831162001fd2575b50505050508152602001600c8201548152602001600d820154815250508152602001906001019062001b91565b50505050905090565b60008083815481106200203e576200203e6200297a565b90600052602060002090600e0201905060008160090183815481106200206857620020686200297a565b60009182526020909120600890910201600581015490915060ff1615620020ce5760405162461bcd60e51b815260206004820152601960248201527814995c5d595cdd08185b1c9958591e48199a5b985b1a5e9959603a1b60448201526064016200046e565b604080518082019091526008815267185c1c1c9bdd995960c21b60208201526004820190620020fe90826200287e565b50600381015460028201546040516000926001600160a01b031691908381818185875af1925050503d806000811462002154576040519150601f19603f3d011682016040523d82523d6000602084013e62002159565b606091505b50509050806200217d5760405162461bcd60e51b81526004016200046e9062002a60565b5050505050565b60008082815481106200219b576200219b6200297a565b90600052602060002090600e0201905060005b600b8201548110156200181457600082600b018281548110620021d557620021d56200297a565b6000918252602080832091909101548683526001825260408084206001600160a01b03909216808552919092528183208054908490559151909350909190839083908381818185875af1925050503d806000811462002251576040519150601f19603f3d011682016040523d82523d6000602084013e62002256565b606091505b50509050806200227a5760405162461bcd60e51b81526004016200046e9062002a60565b50505080806200228a90620029a6565b915050620021ae565b6111fc8062002a9083390190565b634e487b7160e01b600052604160045260246000fd5b600082601f830112620022c957600080fd5b813567ffffffffffffffff80821115620022e757620022e7620022a1565b604051601f8301601f19908116603f01168101908282118183101715620023125762002312620022a1565b816040528381528660208588010111156200232c57600080fd5b836020870160208301376000602085830101528094505050505092915050565b60008060008060008060c087890312156200236657600080fd5b863567ffffffffffffffff808211156200237f57600080fd5b6200238d8a838b01620022b7565b9750602089013596506040890135915080821115620023ab57600080fd5b50620023ba89828a01620022b7565b945050606087013592506080870135915060a087013590509295509295509295565b600060208284031215620023ef57600080fd5b5035919050565b6000815180845260005b818110156200241e5760208185018101518683018201520162002400565b506000602082860101526020601f19601f83011685010191505092915050565b8c81526001600160a01b038c81166020830152610180604083018190526000916200246c8483018f620023f6565b91508c60608501528b608085015283820360a08501526200248e828c620023f6565b60c085019a909a5260e084019890985250506101008101949094529190931661012083015261014082019290925261016001529695505050505050565b60008060408385031215620024df57600080fd5b50508035926020909101359150565b600080600080608085870312156200250557600080fd5b84359350602085013567ffffffffffffffff8111156200252457600080fd5b6200253287828801620022b7565b9350506040850135915060608501356001600160a01b03811681146200255757600080fd5b939692955090935050565b600081518084526020808501945080840160005b838110156200259d5781516001600160a01b03168752958201959082019060010162002576565b509495945050505050565b600081518084526020808501808196508360051b8101915082860160005b858110156200268d578284038952815161010081518652868201518188880152620025f482880182620023f6565b91505060408083015181880152506060808301516200261d828901826001600160a01b03169052565b505060808083015187830382890152620026388382620023f6565b9250505060a080830151620026508289018215159052565b505060c0828101519087015260e0918201518682039287019290925262002678818362002562565b9a87019a9550505090840190600101620025c6565b5091979650505050505050565b60006020808301818452808551808352604092508286019150828160051b87010184880160005b83811015620027e257603f19898403018552815180518452878101516001600160a01b031688850152868101516101c0888601819052906200270682870182620023f6565b9150506060808301518187015250608080830151818701525060a08083015186830382880152620027388382620023f6565b9250505060c080830151818701525060e08083015181870152506101008083015181870152506101208083015186830382880152620027788382620025a8565b925050506101408083015162002798828801826001600160a01b03169052565b50506101608083015186830382880152620027b4838262002562565b61018085810151908901526101a09485015194909701939093525050509386019390860190600101620026c1565b509098975050505050505050565b600181811c908216806200280557607f821691505b6020821081036200282657634e487b7160e01b600052602260045260246000fd5b50919050565b601f8211156200181457600081815260208120601f850160051c81016020861015620028555750805b601f850160051c820191505b81811015620028765782815560010162002861565b505050505050565b815167ffffffffffffffff8111156200289b576200289b620022a1565b620028b381620028ac8454620027f0565b846200282c565b602080601f831160018114620028eb5760008415620028d25750858301515b600019600386901b1c1916600185901b17855562002876565b600085815260208120601f198616915b828110156200291c57888601518255948401946001909101908401620028fb565b50858210156200293b5787850151600019600388901b60f8161c191681555b5050505050600190811b01905550565b602080825260159082015274141c9bda9958dd08191bd95cdb89dd08195e1a5cdd605a1b604082015260600190565b634e487b7160e01b600052603260045260246000fd5b634e487b7160e01b600052601160045260246000fd5b600060018201620029bb57620029bb62002990565b5060010190565b80820180821115620029d857620029d862002990565b92915050565b600082620029fc57634e487b7160e01b600052601260045260246000fd5b500490565b60006020828403121562002a1457600080fd5b5051919050565b8082028115828204841417620029d857620029d862002990565b60006020828403121562002a4857600080fd5b8151801515811462002a5957600080fd5b9392505050565b602080825260159082015274115d1a195c881d1c985b9cd9995c8819985a5b1959605a1b60408201526060019056fe60a06040523480156200001157600080fd5b50604051620011fc380380620011fc83398101604081905262000034916200033d565b6200003f816200012c565b6040518060400160405280600b81526020016a436f6d706169676e49434f60a81b815250604051806040016040528060048152602001634349434f60e01b81525081600390816200009191906200041d565b506004620000a082826200041d565b50505060008111620000f95760405162461bcd60e51b815260206004820152601560248201527f45524332304361707065643a206361702069732030000000000000000000000060448201526064015b60405180910390fd5b608052600580546001600160a01b0319163317905562000124826200011e836200012c565b6200014e565b505062000644565b60006200013c6012600a620005fc565b62000148908362000614565b92915050565b6080518162000167620001de60201b620002f11760201c565b6200017391906200062e565b1115620001c35760405162461bcd60e51b815260206004820181905260248201527f45524332304361707065643a206d617820737570706c792072656163686564216044820152606401620000f0565b620001da8282620001e460201b6200042b1760201c565b5050565b60025490565b60805181620001fd620001de60201b620002f11760201c565b6200020991906200062e565b1115620002595760405162461bcd60e51b815260206004820152601960248201527f45524332304361707065643a20636170206578636565646564000000000000006044820152606401620000f0565b620001da82826200027060201b620004b01760201c565b6001600160a01b038216620002c85760405162461bcd60e51b815260206004820152601f60248201527f45524332303a206d696e7420746f20746865207a65726f2061646472657373006044820152606401620000f0565b8060026000828254620002dc91906200062e565b90915550506001600160a01b038216600081815260208181526040808320805486019055518481527fddf252ad1be2c89b69c2b068fc378daa952ba7f163c4a11628f55a4df523b3ef910160405180910390a3620001da600083835b505050565b600080604083850312156200035157600080fd5b82516001600160a01b03811681146200036957600080fd5b6020939093015192949293505050565b634e487b7160e01b600052604160045260246000fd5b600181811c90821680620003a457607f821691505b602082108103620003c557634e487b7160e01b600052602260045260246000fd5b50919050565b601f8211156200033857600081815260208120601f850160051c81016020861015620003f45750805b601f850160051c820191505b81811015620004155782815560010162000400565b505050505050565b81516001600160401b0381111562000439576200043962000379565b62000451816200044a84546200038f565b84620003cb565b602080601f831160018114620004895760008415620004705750858301515b600019600386901b1c1916600185901b17855562000415565b600085815260208120601f198616915b82811015620004ba5788860151825594840194600190910190840162000499565b5085821015620004d95787850151600019600388901b60f8161c191681555b5050505050600190811b01905550565b634e487b7160e01b600052601160045260246000fd5b600181815b8085111562000540578160001904821115620005245762000524620004e9565b808516156200053257918102915b93841c939080029062000504565b509250929050565b600082620005595750600162000148565b81620005685750600062000148565b81600181146200058157600281146200058c57620005ac565b600191505062000148565b60ff841115620005a057620005a0620004e9565b50506001821b62000148565b5060208310610133831016604e8410600b8410161715620005d1575081810a62000148565b620005dd8383620004ff565b8060001904821115620005f457620005f4620004e9565b029392505050565b60006200060d60ff84168362000548565b9392505050565b8082028115828204841417620001485762000148620004e9565b80820180821115620001485762000148620004e9565b608051610b956200066760003960008181610151015261042d0152610b956000f3fe608060405234801561001057600080fd5b50600436106100d55760003560e01c806342966c681161008757806342966c681461018857806370a082311461019d57806379cc6790146101c65780638da5cb5b146101d957806395d89b4114610204578063a457c2d71461020c578063a9059cbb1461021f578063dd62ed3e1461023257600080fd5b806306fdde03146100da578063095ea7b3146100f857806318160ddd1461011b57806323b872dd1461012d578063313ce56714610140578063355274ea1461014f5780633950935114610175575b600080fd5b6100e2610245565b6040516100ef91906109a6565b60405180910390f35b61010b610106366004610a10565b6102d7565b60405190151581526020016100ef565b6002545b6040519081526020016100ef565b61010b61013b366004610a3a565b6102f7565b604051601281526020016100ef565b7f000000000000000000000000000000000000000000000000000000000000000061011f565b61010b610183366004610a10565b61031b565b61019b610196366004610a76565b61033d565b005b61011f6101ab366004610a8f565b6001600160a01b031660009081526020819052604090205490565b61019b6101d4366004610a10565b61034a565b6005546101ec906001600160a01b031681565b6040516001600160a01b0390911681526020016100ef565b6100e2610363565b61010b61021a366004610a10565b610372565b61010b61022d366004610a10565b6103f2565b61011f610240366004610ab1565b610400565b60606003805461025490610ae4565b80601f016020809104026020016040519081016040528092919081815260200182805461028090610ae4565b80156102cd5780601f106102a2576101008083540402835291602001916102cd565b820191906000526020600020905b8154815290600101906020018083116102b057829003601f168201915b5050505050905090565b6000336102e581858561055d565b60019150505b92915050565b60025490565b600033610305858285610682565b6103108585856106fc565b506001949350505050565b6000336102e581858561032e8383610400565b6103389190610b1e565b61055d565b610347338261088e565b50565b610355823383610682565b61035f828261088e565b5050565b60606004805461025490610ae4565b600033816103808286610400565b9050838110156103e55760405162461bcd60e51b815260206004820152602560248201527f45524332303a2064656372656173656420616c6c6f77616e63652062656c6f77604482015264207a65726f60d81b60648201526084015b60405180910390fd5b610310828686840361055d565b6000336102e58185856106fc565b6001600160a01b03918216600090815260016020908152604080832093909416825291909152205490565b7f00000000000000000000000000000000000000000000000000000000000000008161045660025490565b6104609190610b1e565b11156104aa5760405162461bcd60e51b8152602060048201526019602482015278115490cc8c10d85c1c19590e8818d85c08195e18d959591959603a1b60448201526064016103dc565b61035f82825b6001600160a01b0382166105065760405162461bcd60e51b815260206004820152601f60248201527f45524332303a206d696e7420746f20746865207a65726f20616464726573730060448201526064016103dc565b80600260008282546105189190610b1e565b90915550506001600160a01b03821660008181526020818152604080832080548601905551848152600080516020610b40833981519152910160405180910390a35050565b6001600160a01b0383166105bf5760405162461bcd60e51b8152602060048201526024808201527f45524332303a20617070726f76652066726f6d20746865207a65726f206164646044820152637265737360e01b60648201526084016103dc565b6001600160a01b0382166106205760405162461bcd60e51b815260206004820152602260248201527f45524332303a20617070726f766520746f20746865207a65726f206164647265604482015261737360f01b60648201526084016103dc565b6001600160a01b0383811660008181526001602090815260408083209487168084529482529182902085905590518481527f8c5be1e5ebec7d5bd14f71427d1e84f3dd0314c0f7b2291e5b200ac8c7c3b92591015b60405180910390a3505050565b600061068e8484610400565b905060001981146106f657818110156106e95760405162461bcd60e51b815260206004820152601d60248201527f45524332303a20696e73756666696369656e7420616c6c6f77616e636500000060448201526064016103dc565b6106f6848484840361055d565b50505050565b6001600160a01b0383166107605760405162461bcd60e51b815260206004820152602560248201527f45524332303a207472616e736665722066726f6d20746865207a65726f206164604482015264647265737360d81b60648201526084016103dc565b6001600160a01b0382166107c25760405162461bcd60e51b815260206004820152602360248201527f45524332303a207472616e7366657220746f20746865207a65726f206164647260448201526265737360e81b60648201526084016103dc565b6001600160a01b0383166000908152602081905260409020548181101561083a5760405162461bcd60e51b815260206004820152602660248201527f45524332303a207472616e7366657220616d6f756e7420657863656564732062604482015265616c616e636560d01b60648201526084016103dc565b6001600160a01b0384811660008181526020818152604080832087870390559387168083529184902080548701905592518581529092600080516020610b40833981519152910160405180910390a36106f6565b6001600160a01b0382166108ee5760405162461bcd60e51b815260206004820152602160248201527f45524332303a206275726e2066726f6d20746865207a65726f206164647265736044820152607360f81b60648201526084016103dc565b6001600160a01b038216600090815260208190526040902054818110156109625760405162461bcd60e51b815260206004820152602260248201527f45524332303a206275726e20616d6f756e7420657863656564732062616c616e604482015261636560f01b60648201526084016103dc565b6001600160a01b038316600081815260208181526040808320868603905560028054879003905551858152919291600080516020610b408339815191529101610675565b600060208083528351808285015260005b818110156109d3578581018301518582016040015282016109b7565b506000604082860101526040601f19601f8301168501019250505092915050565b80356001600160a01b0381168114610a0b57600080fd5b919050565b60008060408385031215610a2357600080fd5b610a2c836109f4565b946020939093013593505050565b600080600060608486031215610a4f57600080fd5b610a58846109f4565b9250610a66602085016109f4565b9150604084013590509250925092565b600060208284031215610a8857600080fd5b5035919050565b600060208284031215610aa157600080fd5b610aaa826109f4565b9392505050565b60008060408385031215610ac457600080fd5b610acd836109f4565b9150610adb602084016109f4565b90509250929050565b600181811c90821680610af857607f821691505b602082108103610b1857634e487b7160e01b600052602260045260246000fd5b50919050565b808201808211156102eb57634e487b7160e01b600052601160045260246000fdfeddf252ad1be2c89b69c2b068fc378daa952ba7f163c4a11628f55a4df523b3efa2646970667358221220fec9cd19eb576c5c980acc26629560b2babc05d22c528d2af101e418b621f0e964736f6c63430008120033a2646970667358221220706afa7b289f44573e73843de4038326672bd5d9d614c21c77eb5009a75e374c64736f6c63430008120033",
  "linkReferences": {},
  "deployedLinkReferences": {}
}