{
  "_format": "hh-sol-artifact-1",
  "contractName": "Campaign",
  "sourceName": "contracts/Campaign.sol",
  "abi": [
    {
      "inputs": [],
      "stateMutability": "nonpayable",
      "type": "constructor"
    },
    {
      "inputs": [
        {
          "internalType": "uint256",
          "name": "_projIndex",
          "type": "uint256"
        },
        {
          "internalType": "uint256",
          "name": "_reqIndex",
          "type": "uint256"
        }
      ],
      "name": "approveRequest",
      "outputs": [],
      "stateMutability": "nonpayable",
      "type": "function"
    },
    {
      "inputs": [
        {
          "internalType": "uint256",
          "name": "_id",
          "type": "uint256"
        }
      ],
      "name": "contribute",
      "outputs": [],
      "stateMutability": "payable",
      "type": "function"
    },
    {
      "inputs": [
        {
          "internalType": "uint256",
          "name": "_goal",
          "type": "uint256"
        },
        {
          "internalType": "string",
          "name": "_story",
          "type": "string"
        },
        {
          "internalType": "uint256",
          "name": "_maxReachTime",
          "type": "uint256"
        },
        {
          "internalType": "uint256",
          "name": "_tokenValue",
          "type": "uint256"
        },
        {
          "internalType": "contract ICOToken",
          "name": "_address",
          "type": "address"
        }
      ],
      "name": "createProject",
      "outputs": [],
      "stateMutability": "nonpayable",
      "type": "function"
    },
    {
      "inputs": [
        {
          "internalType": "uint256",
          "name": "_projectID",
          "type": "uint256"
        },
        {
          "internalType": "string",
          "name": "_description",
          "type": "string"
        },
        {
          "internalType": "uint256",
          "name": "_amount",
          "type": "uint256"
        },
        {
          "internalType": "address",
          "name": "_recipient",
          "type": "address"
        }
      ],
      "name": "createRequest",
      "outputs": [],
      "stateMutability": "nonpayable",
      "type": "function"
    },
    {
      "inputs": [
        {
          "internalType": "uint256",
          "name": "_projID",
          "type": "uint256"
        },
        {
          "internalType": "uint256",
          "name": "_reqID",
          "type": "uint256"
        }
      ],
      "name": "getRequest",
      "outputs": [
        {
          "components": [
            {
              "internalType": "string",
              "name": "description",
              "type": "string"
            },
            {
              "internalType": "uint256",
              "name": "amount",
              "type": "uint256"
            },
            {
              "internalType": "address payable",
              "name": "recipient",
              "type": "address"
            },
            {
              "internalType": "string",
              "name": "status",
              "type": "string"
            },
            {
              "internalType": "bool",
              "name": "completed",
              "type": "bool"
            },
            {
              "internalType": "uint256",
              "name": "approvalsNum",
              "type": "uint256"
            }
          ],
          "internalType": "struct Campaign.Request",
          "name": "",
          "type": "tuple"
        }
      ],
      "stateMutability": "view",
      "type": "function"
    },
    {
      "inputs": [
        {
          "internalType": "uint256",
          "name": "_projID",
          "type": "uint256"
        }
      ],
      "name": "getRequests",
      "outputs": [
        {
          "components": [
            {
              "internalType": "string",
              "name": "description",
              "type": "string"
            },
            {
              "internalType": "uint256",
              "name": "amount",
              "type": "uint256"
            },
            {
              "internalType": "address payable",
              "name": "recipient",
              "type": "address"
            },
            {
              "internalType": "string",
              "name": "status",
              "type": "string"
            },
            {
              "internalType": "bool",
              "name": "completed",
              "type": "bool"
            },
            {
              "internalType": "uint256",
              "name": "approvalsNum",
              "type": "uint256"
            }
          ],
          "internalType": "struct Campaign.Request[]",
          "name": "",
          "type": "tuple[]"
        }
      ],
      "stateMutability": "view",
      "type": "function"
    },
    {
      "inputs": [
        {
          "internalType": "uint256",
          "name": "",
          "type": "uint256"
        }
      ],
      "name": "projects",
      "outputs": [
        {
          "internalType": "address",
          "name": "owner",
          "type": "address"
        },
        {
          "internalType": "uint256",
          "name": "goal",
          "type": "uint256"
        },
        {
          "internalType": "uint256",
          "name": "launchDay",
          "type": "uint256"
        },
        {
          "internalType": "string",
          "name": "story",
          "type": "string"
        },
        {
          "internalType": "uint256",
          "name": "maxReachTime",
          "type": "uint256"
        },
        {
          "internalType": "uint256",
          "name": "numOfContributors",
          "type": "uint256"
        },
        {
          "internalType": "uint256",
          "name": "tokenValue",
          "type": "uint256"
        },
        {
          "internalType": "contract ICOToken",
          "name": "icoToken",
          "type": "address"
        },
        {
          "internalType": "uint256",
          "name": "funds",
          "type": "uint256"
        }
      ],
      "stateMutability": "view",
      "type": "function"
    }
  ],
  "bytecode": "0x608060405234801561001057600080fd5b50336000806101000a81548173ffffffffffffffffffffffffffffffffffffffff021916908373ffffffffffffffffffffffffffffffffffffffff1602179055506148b9806100606000396000f3fe6080604052600436106100705760003560e01c80636a0289071161004e5780636a0289071461010c5780637374a1bf14610149578063c1cbbca714610172578063d5e788291461018e57610070565b8063107046bd146100755780632c0a90a9146100ba57806361032414146100e3575b600080fd5b34801561008157600080fd5b5061009c60048036038101906100979190613370565b6101cb565b6040516100b1999897969594939291906134dc565b60405180910390f35b3480156100c657600080fd5b506100e160048036038101906100dc9190613570565b6102f1565b005b3480156100ef57600080fd5b5061010a60048036038101906101059190613723565b610eb3565b005b34801561011857600080fd5b50610133600480360381019061012e9190613570565b610fa4565b60405161014091906138df565b60405180910390f35b34801561015557600080fd5b50610170600480360381019061016b919061392d565b611dc5565b005b61018c60048036038101906101879190613370565b6120bd565b005b34801561019a57600080fd5b506101b560048036038101906101b09190613370565b6125b5565b6040516101c29190613b02565b60405180910390f35b600181815481106101db57600080fd5b90600052602060002090600b02016000915090508060000160009054906101000a900473ffffffffffffffffffffffffffffffffffffffff169080600101549080600201549080600301805461023090613b53565b80601f016020809104026020016040519081016040528092919081815260200182805461025c90613b53565b80156102a95780601f1061027e576101008083540402835291602001916102a9565b820191906000526020600020905b81548152906001019060200180831161028c57829003601f168201915b5050505050908060040154908060050154908060060154908060080160009054906101000a900473ffffffffffffffffffffffffffffffffffffffff169080600a0154905089565b816001805490508110610339576040517f08c379a000000000000000000000000000000000000000000000000000000000815260040161033090613bd0565b60405180910390fd5b826000600182815481106103505761034f613bf0565b5b90600052602060002090600b0201604051806101600160405290816000820160009054906101000a900473ffffffffffffffffffffffffffffffffffffffff1673ffffffffffffffffffffffffffffffffffffffff1673ffffffffffffffffffffffffffffffffffffffff16815260200160018201548152602001600282015481526020016003820180546103e490613b53565b80601f016020809104026020016040519081016040528092919081815260200182805461041090613b53565b801561045d5780601f106104325761010080835404028352916020019161045d565b820191906000526020600020905b81548152906001019060200180831161044057829003601f168201915b5050505050815260200160048201548152602001600582015481526020016006820154815260200160078201805480602002602001604051908101604052809291908181526020016000905b8282101561068457838290600052602060002090600602016040518060c00160405290816000820180546104dc90613b53565b80601f016020809104026020016040519081016040528092919081815260200182805461050890613b53565b80156105555780601f1061052a57610100808354040283529160200191610555565b820191906000526020600020905b81548152906001019060200180831161053857829003601f168201915b50505050508152602001600182015481526020016002820160009054906101000a900473ffffffffffffffffffffffffffffffffffffffff1673ffffffffffffffffffffffffffffffffffffffff1673ffffffffffffffffffffffffffffffffffffffff1681526020016003820180546105ce90613b53565b80601f01602080910402602001604051908101604052809291908181526020018280546105fa90613b53565b80156106475780601f1061061c57610100808354040283529160200191610647565b820191906000526020600020905b81548152906001019060200180831161062a57829003601f168201915b505050505081526020016004820160009054906101000a900460ff16151515158152602001600582015481525050815260200190600101906104a9565b5050505081526020016008820160009054906101000a900473ffffffffffffffffffffffffffffffffffffffff1673ffffffffffffffffffffffffffffffffffffffff1673ffffffffffffffffffffffffffffffffffffffff1681526020016009820180548060200260200160405190810160405280929190818152602001828054801561076757602002820191906000526020600020905b8160009054906101000a900473ffffffffffffffffffffffffffffffffffffffff1673ffffffffffffffffffffffffffffffffffffffff168152602001906001019080831161071d575b50505050508152602001600a82015481525050905060006002600084815260200190815260200160002060003373ffffffffffffffffffffffffffffffffffffffff1673ffffffffffffffffffffffffffffffffffffffff168152602001908152602001600020541161080f576040517f08c379a000000000000000000000000000000000000000000000000000000000815260040161080690613c91565b60405180910390fd5b848460006001838154811061082757610826613bf0565b5b90600052602060002090600b0201604051806101600160405290816000820160009054906101000a900473ffffffffffffffffffffffffffffffffffffffff1673ffffffffffffffffffffffffffffffffffffffff1673ffffffffffffffffffffffffffffffffffffffff16815260200160018201548152602001600282015481526020016003820180546108bb90613b53565b80601f01602080910402602001604051908101604052809291908181526020018280546108e790613b53565b80156109345780601f1061090957610100808354040283529160200191610934565b820191906000526020600020905b81548152906001019060200180831161091757829003601f168201915b5050505050815260200160048201548152602001600582015481526020016006820154815260200160078201805480602002602001604051908101604052809291908181526020016000905b82821015610b5b57838290600052602060002090600602016040518060c00160405290816000820180546109b390613b53565b80601f01602080910402602001604051908101604052809291908181526020018280546109df90613b53565b8015610a2c5780601f10610a0157610100808354040283529160200191610a2c565b820191906000526020600020905b815481529060010190602001808311610a0f57829003601f168201915b50505050508152602001600182015481526020016002820160009054906101000a900473ffffffffffffffffffffffffffffffffffffffff1673ffffffffffffffffffffffffffffffffffffffff1673ffffffffffffffffffffffffffffffffffffffff168152602001600382018054610aa590613b53565b80601f0160208091040260200160405190810160405280929190818152602001828054610ad190613b53565b8015610b1e5780601f10610af357610100808354040283529160200191610b1e565b820191906000526020600020905b815481529060010190602001808311610b0157829003601f168201915b505050505081526020016004820160009054906101000a900460ff1615151515815260200160058201548152505081526020019060010190610980565b5050505081526020016008820160009054906101000a900473ffffffffffffffffffffffffffffffffffffffff1673ffffffffffffffffffffffffffffffffffffffff1673ffffffffffffffffffffffffffffffffffffffff16815260200160098201805480602002602001604051908101604052809291908181526020018280548015610c3e57602002820191906000526020600020905b8160009054906101000a900473ffffffffffffffffffffffffffffffffffffffff1673ffffffffffffffffffffffffffffffffffffffff1681526020019060010190808311610bf4575b50505050508152602001600a8201548152505090508060e00151518210610c9a576040517f08c379a0000000000000000000000000000000000000000000000000000000008152600401610c9190613cfd565b60405180910390fd5b600060018981548110610cb057610caf613bf0565b5b90600052602060002090600b020190506000816007018981548110610cd857610cd7613bf0565b5b90600052602060002090600602019050600460008b815260200190815260200160002060008a815260200190815260200160002060003373ffffffffffffffffffffffffffffffffffffffff1673ffffffffffffffffffffffffffffffffffffffff16815260200190815260200160002060009054906101000a900460ff1615610d97576040517f08c379a0000000000000000000000000000000000000000000000000000000008152600401610d8e90613d8f565b60405180910390fd5b8060040160009054906101000a900460ff1615610de9576040517f08c379a0000000000000000000000000000000000000000000000000000000008152600401610de090613e21565b60405180910390fd5b6001600460008c815260200190815260200160002060008b815260200190815260200160002060003373ffffffffffffffffffffffffffffffffffffffff1673ffffffffffffffffffffffffffffffffffffffff16815260200190815260200160002060006101000a81548160ff021916908315150217905550806005016000815480929190610e7890613e70565b919050555060028260090180549050610e919190613ee7565b81600501541115610ea757610ea68a8a612f27565b5b50505050505050505050565b6000600180816001815401808255809150500390600052602060002090600b02019050338160000160006101000a81548173ffffffffffffffffffffffffffffffffffffffff021916908373ffffffffffffffffffffffffffffffffffffffff16021790555085816001018190555084816003019081610f3391906140ba565b50838160040181905550828160060181905550428160020181905550818160080160006101000a81548173ffffffffffffffffffffffffffffffffffffffff021916908373ffffffffffffffffffffffffffffffffffffffff160217905550600081600a0181905550505050505050565b610fac6132d8565b826001805490508110610ff4576040517f08c379a0000000000000000000000000000000000000000000000000000000008152600401610feb90613bd0565b60405180910390fd5b8360006001828154811061100b5761100a613bf0565b5b90600052602060002090600b0201604051806101600160405290816000820160009054906101000a900473ffffffffffffffffffffffffffffffffffffffff1673ffffffffffffffffffffffffffffffffffffffff1673ffffffffffffffffffffffffffffffffffffffff168152602001600182015481526020016002820154815260200160038201805461109f90613b53565b80601f01602080910402602001604051908101604052809291908181526020018280546110cb90613b53565b80156111185780601f106110ed57610100808354040283529160200191611118565b820191906000526020600020905b8154815290600101906020018083116110fb57829003601f168201915b5050505050815260200160048201548152602001600582015481526020016006820154815260200160078201805480602002602001604051908101604052809291908181526020016000905b8282101561133f57838290600052602060002090600602016040518060c001604052908160008201805461119790613b53565b80601f01602080910402602001604051908101604052809291908181526020018280546111c390613b53565b80156112105780601f106111e557610100808354040283529160200191611210565b820191906000526020600020905b8154815290600101906020018083116111f357829003601f168201915b50505050508152602001600182015481526020016002820160009054906101000a900473ffffffffffffffffffffffffffffffffffffffff1673ffffffffffffffffffffffffffffffffffffffff1673ffffffffffffffffffffffffffffffffffffffff16815260200160038201805461128990613b53565b80601f01602080910402602001604051908101604052809291908181526020018280546112b590613b53565b80156113025780601f106112d757610100808354040283529160200191611302565b820191906000526020600020905b8154815290600101906020018083116112e557829003601f168201915b505050505081526020016004820160009054906101000a900460ff1615151515815260200160058201548152505081526020019060010190611164565b5050505081526020016008820160009054906101000a900473ffffffffffffffffffffffffffffffffffffffff1673ffffffffffffffffffffffffffffffffffffffff1673ffffffffffffffffffffffffffffffffffffffff1681526020016009820180548060200260200160405190810160405280929190818152602001828054801561142257602002820191906000526020600020905b8160009054906101000a900473ffffffffffffffffffffffffffffffffffffffff1673ffffffffffffffffffffffffffffffffffffffff16815260200190600101908083116113d8575b50505050508152602001600a82015481525050905060006002600084815260200190815260200160002060003373ffffffffffffffffffffffffffffffffffffffff1673ffffffffffffffffffffffffffffffffffffffff16815260200190815260200160002054116114ca576040517f08c379a00000000000000000000000000000000000000000000000000000000081526004016114c190613c91565b60405180910390fd5b85856000600183815481106114e2576114e1613bf0565b5b90600052602060002090600b0201604051806101600160405290816000820160009054906101000a900473ffffffffffffffffffffffffffffffffffffffff1673ffffffffffffffffffffffffffffffffffffffff1673ffffffffffffffffffffffffffffffffffffffff168152602001600182015481526020016002820154815260200160038201805461157690613b53565b80601f01602080910402602001604051908101604052809291908181526020018280546115a290613b53565b80156115ef5780601f106115c4576101008083540402835291602001916115ef565b820191906000526020600020905b8154815290600101906020018083116115d257829003601f168201915b5050505050815260200160048201548152602001600582015481526020016006820154815260200160078201805480602002602001604051908101604052809291908181526020016000905b8282101561181657838290600052602060002090600602016040518060c001604052908160008201805461166e90613b53565b80601f016020809104026020016040519081016040528092919081815260200182805461169a90613b53565b80156116e75780601f106116bc576101008083540402835291602001916116e7565b820191906000526020600020905b8154815290600101906020018083116116ca57829003601f168201915b50505050508152602001600182015481526020016002820160009054906101000a900473ffffffffffffffffffffffffffffffffffffffff1673ffffffffffffffffffffffffffffffffffffffff1673ffffffffffffffffffffffffffffffffffffffff16815260200160038201805461176090613b53565b80601f016020809104026020016040519081016040528092919081815260200182805461178c90613b53565b80156117d95780601f106117ae576101008083540402835291602001916117d9565b820191906000526020600020905b8154815290600101906020018083116117bc57829003601f168201915b505050505081526020016004820160009054906101000a900460ff161515151581526020016005820154815250508152602001906001019061163b565b5050505081526020016008820160009054906101000a900473ffffffffffffffffffffffffffffffffffffffff1673ffffffffffffffffffffffffffffffffffffffff1673ffffffffffffffffffffffffffffffffffffffff168152602001600982018054806020026020016040519081016040528092919081815260200182805480156118f957602002820191906000526020600020905b8160009054906101000a900473ffffffffffffffffffffffffffffffffffffffff1673ffffffffffffffffffffffffffffffffffffffff16815260200190600101908083116118af575b50505050508152602001600a8201548152505090508060e00151518210611955576040517f08c379a000000000000000000000000000000000000000000000000000000000815260040161194c90613cfd565b60405180910390fd5b600060018a8154811061196b5761196a613bf0565b5b90600052602060002090600b0201604051806101600160405290816000820160009054906101000a900473ffffffffffffffffffffffffffffffffffffffff1673ffffffffffffffffffffffffffffffffffffffff1673ffffffffffffffffffffffffffffffffffffffff16815260200160018201548152602001600282015481526020016003820180546119ff90613b53565b80601f0160208091040260200160405190810160405280929190818152602001828054611a2b90613b53565b8015611a785780601f10611a4d57610100808354040283529160200191611a78565b820191906000526020600020905b815481529060010190602001808311611a5b57829003601f168201915b5050505050815260200160048201548152602001600582015481526020016006820154815260200160078201805480602002602001604051908101604052809291908181526020016000905b82821015611c9f57838290600052602060002090600602016040518060c0016040529081600082018054611af790613b53565b80601f0160208091040260200160405190810160405280929190818152602001828054611b2390613b53565b8015611b705780601f10611b4557610100808354040283529160200191611b70565b820191906000526020600020905b815481529060010190602001808311611b5357829003601f168201915b50505050508152602001600182015481526020016002820160009054906101000a900473ffffffffffffffffffffffffffffffffffffffff1673ffffffffffffffffffffffffffffffffffffffff1673ffffffffffffffffffffffffffffffffffffffff168152602001600382018054611be990613b53565b80601f0160208091040260200160405190810160405280929190818152602001828054611c1590613b53565b8015611c625780601f10611c3757610100808354040283529160200191611c62565b820191906000526020600020905b815481529060010190602001808311611c4557829003601f168201915b505050505081526020016004820160009054906101000a900460ff1615151515815260200160058201548152505081526020019060010190611ac4565b5050505081526020016008820160009054906101000a900473ffffffffffffffffffffffffffffffffffffffff1673ffffffffffffffffffffffffffffffffffffffff1673ffffffffffffffffffffffffffffffffffffffff16815260200160098201805480602002602001604051908101604052809291908181526020018280548015611d8257602002820191906000526020600020905b8160009054906101000a900473ffffffffffffffffffffffffffffffffffffffff1673ffffffffffffffffffffffffffffffffffffffff1681526020019060010190808311611d38575b50505050508152602001600a8201548152505090508060e001518981518110611dae57611dad613bf0565b5b602002602001015197505050505050505092915050565b836001805490508110611e0d576040517f08c379a0000000000000000000000000000000000000000000000000000000008152600401611e0490613bd0565b60405180910390fd5b60008054906101000a900473ffffffffffffffffffffffffffffffffffffffff1673ffffffffffffffffffffffffffffffffffffffff163373ffffffffffffffffffffffffffffffffffffffff1614611e9b576040517f08c379a0000000000000000000000000000000000000000000000000000000008152600401611e92906141fe565b60405180910390fd5b600060018681548110611eb157611eb0613bf0565b5b90600052602060002090600b02019050806001015481600a01541015611f0c576040517f08c379a0000000000000000000000000000000000000000000000000000000008152600401611f039061426a565b60405180910390fd5b600073ffffffffffffffffffffffffffffffffffffffff168373ffffffffffffffffffffffffffffffffffffffff1603611f7b576040517f08c379a0000000000000000000000000000000000000000000000000000000008152600401611f72906142d6565b60405180910390fd5b80600a0154841115611fc2576040517f08c379a0000000000000000000000000000000000000000000000000000000008152600401611fb990614342565b60405180910390fd5b600081600701600181600181540180825580915050039060005260206000209060060201905085816000019081611ff991906140ba565b50848160010181905550838160020160006101000a81548173ffffffffffffffffffffffffffffffffffffffff021916908373ffffffffffffffffffffffffffffffffffffffff1602179055506040518060400160405280600781526020017f70656e64696e670000000000000000000000000000000000000000000000000081525081600301908161208c91906140ba565b506000816005018190555060008160040160006101000a81548160ff02191690831515021790555050505050505050565b806001805490508110612105576040517f08c379a00000000000000000000000000000000000000000000000000000000081526004016120fc90613bd0565b60405180910390fd5b60006001838154811061211b5761211a613bf0565b5b90600052602060002090600b02019050806004015442111561217b57612140836130e9565b6040517f08c379a0000000000000000000000000000000000000000000000000000000008152600401612172906143d4565b60405180910390fd5b60006002600085815260200190815260200160002060003373ffffffffffffffffffffffffffffffffffffffff1673ffffffffffffffffffffffffffffffffffffffff168152602001908152602001600020541461220e576040517f08c379a000000000000000000000000000000000000000000000000000000000815260040161220590614440565b60405180910390fd5b8060060154341015612255576040517f08c379a000000000000000000000000000000000000000000000000000000000815260040161224c906144d2565b60405180910390fd5b806001015481600a01541061229f576040517f08c379a00000000000000000000000000000000000000000000000000000000081526004016122969061453e565b60405180910390fd5b60008160060154346122b19190613ee7565b9050808260080160009054906101000a900473ffffffffffffffffffffffffffffffffffffffff1673ffffffffffffffffffffffffffffffffffffffff1663dd62ed3e8460000160009054906101000a900473ffffffffffffffffffffffffffffffffffffffff16306040518363ffffffff1660e01b815260040161233792919061455e565b602060405180830381865afa158015612354573d6000803e3d6000fd5b505050506040513d601f19601f82011682018060405250810190612378919061459c565b10156123b9576040517f08c379a00000000000000000000000000000000000000000000000000000000081526004016123b090614615565b60405180910390fd5b8160080160009054906101000a900473ffffffffffffffffffffffffffffffffffffffff1673ffffffffffffffffffffffffffffffffffffffff166323b872dd8360000160009054906101000a900473ffffffffffffffffffffffffffffffffffffffff1633846040518463ffffffff1660e01b815260040161243e93929190614635565b6020604051808303816000875af115801561245d573d6000803e3d6000fd5b505050506040513d601f19601f820116820180604052508101906124819190614698565b6124c0576040517f08c379a00000000000000000000000000000000000000000000000000000000081526004016124b790614711565b60405180910390fd5b346002600086815260200190815260200160002060003373ffffffffffffffffffffffffffffffffffffffff1673ffffffffffffffffffffffffffffffffffffffff1681526020019081526020016000208190555081600901339080600181540180825580915050600190039060005260206000200160009091909190916101000a81548173ffffffffffffffffffffffffffffffffffffffff021916908373ffffffffffffffffffffffffffffffffffffffff16021790555081600501600081548092919061258f90613e70565b91905055503482600a0160008282546125a89190614731565b9250508190555050505050565b60608160018054905081106125ff576040517f08c379a00000000000000000000000000000000000000000000000000000000081526004016125f690613bd0565b60405180910390fd5b8260006001828154811061261657612615613bf0565b5b90600052602060002090600b0201604051806101600160405290816000820160009054906101000a900473ffffffffffffffffffffffffffffffffffffffff1673ffffffffffffffffffffffffffffffffffffffff1673ffffffffffffffffffffffffffffffffffffffff16815260200160018201548152602001600282015481526020016003820180546126aa90613b53565b80601f01602080910402602001604051908101604052809291908181526020018280546126d690613b53565b80156127235780601f106126f857610100808354040283529160200191612723565b820191906000526020600020905b81548152906001019060200180831161270657829003601f168201915b5050505050815260200160048201548152602001600582015481526020016006820154815260200160078201805480602002602001604051908101604052809291908181526020016000905b8282101561294a57838290600052602060002090600602016040518060c00160405290816000820180546127a290613b53565b80601f01602080910402602001604051908101604052809291908181526020018280546127ce90613b53565b801561281b5780601f106127f05761010080835404028352916020019161281b565b820191906000526020600020905b8154815290600101906020018083116127fe57829003601f168201915b50505050508152602001600182015481526020016002820160009054906101000a900473ffffffffffffffffffffffffffffffffffffffff1673ffffffffffffffffffffffffffffffffffffffff1673ffffffffffffffffffffffffffffffffffffffff16815260200160038201805461289490613b53565b80601f01602080910402602001604051908101604052809291908181526020018280546128c090613b53565b801561290d5780601f106128e25761010080835404028352916020019161290d565b820191906000526020600020905b8154815290600101906020018083116128f057829003601f168201915b505050505081526020016004820160009054906101000a900460ff161515151581526020016005820154815250508152602001906001019061276f565b5050505081526020016008820160009054906101000a900473ffffffffffffffffffffffffffffffffffffffff1673ffffffffffffffffffffffffffffffffffffffff1673ffffffffffffffffffffffffffffffffffffffff16815260200160098201805480602002602001604051908101604052809291908181526020018280548015612a2d57602002820191906000526020600020905b8160009054906101000a900473ffffffffffffffffffffffffffffffffffffffff1673ffffffffffffffffffffffffffffffffffffffff16815260200190600101908083116129e3575b50505050508152602001600a82015481525050905060006002600084815260200190815260200160002060003373ffffffffffffffffffffffffffffffffffffffff1673ffffffffffffffffffffffffffffffffffffffff1681526020019081526020016000205411612ad5576040517f08c379a0000000000000000000000000000000000000000000000000000000008152600401612acc90613c91565b60405180910390fd5b600060018681548110612aeb57612aea613bf0565b5b90600052602060002090600b0201604051806101600160405290816000820160009054906101000a900473ffffffffffffffffffffffffffffffffffffffff1673ffffffffffffffffffffffffffffffffffffffff1673ffffffffffffffffffffffffffffffffffffffff1681526020016001820154815260200160028201548152602001600382018054612b7f90613b53565b80601f0160208091040260200160405190810160405280929190818152602001828054612bab90613b53565b8015612bf85780601f10612bcd57610100808354040283529160200191612bf8565b820191906000526020600020905b815481529060010190602001808311612bdb57829003601f168201915b5050505050815260200160048201548152602001600582015481526020016006820154815260200160078201805480602002602001604051908101604052809291908181526020016000905b82821015612e1f57838290600052602060002090600602016040518060c0016040529081600082018054612c7790613b53565b80601f0160208091040260200160405190810160405280929190818152602001828054612ca390613b53565b8015612cf05780601f10612cc557610100808354040283529160200191612cf0565b820191906000526020600020905b815481529060010190602001808311612cd357829003601f168201915b50505050508152602001600182015481526020016002820160009054906101000a900473ffffffffffffffffffffffffffffffffffffffff1673ffffffffffffffffffffffffffffffffffffffff1673ffffffffffffffffffffffffffffffffffffffff168152602001600382018054612d6990613b53565b80601f0160208091040260200160405190810160405280929190818152602001828054612d9590613b53565b8015612de25780601f10612db757610100808354040283529160200191612de2565b820191906000526020600020905b815481529060010190602001808311612dc557829003601f168201915b505050505081526020016004820160009054906101000a900460ff1615151515815260200160058201548152505081526020019060010190612c44565b5050505081526020016008820160009054906101000a900473ffffffffffffffffffffffffffffffffffffffff1673ffffffffffffffffffffffffffffffffffffffff1673ffffffffffffffffffffffffffffffffffffffff16815260200160098201805480602002602001604051908101604052809291908181526020018280548015612f0257602002820191906000526020600020905b8160009054906101000a900473ffffffffffffffffffffffffffffffffffffffff1673ffffffffffffffffffffffffffffffffffffffff1681526020019060010190808311612eb8575b50505050508152602001600a8201548152505090508060e00151945050505050919050565b600060018381548110612f3d57612f3c613bf0565b5b90600052602060002090600b020190506000816007018381548110612f6557612f64613bf0565b5b906000526020600020906006020190508060040160009054906101000a900460ff1615612fc7576040517f08c379a0000000000000000000000000000000000000000000000000000000008152600401612fbe906147b1565b60405180910390fd5b6040518060400160405280600881526020017f617070726f76656400000000000000000000000000000000000000000000000081525081600301908161300d91906140ba565b5060008160020160009054906101000a900473ffffffffffffffffffffffffffffffffffffffff1673ffffffffffffffffffffffffffffffffffffffff16826001015460405161305c90614802565b60006040518083038185875af1925050503d8060008114613099576040519150601f19603f3d011682016040523d82523d6000602084013e61309e565b606091505b50509050806130e2576040517f08c379a00000000000000000000000000000000000000000000000000000000081526004016130d990614863565b60405180910390fd5b5050505050565b6000600182815481106130ff576130fe613bf0565b5b90600052602060002090600b0201905060005b81600901805490508110156132d357600082600901828154811061313957613138613bf0565b5b9060005260206000200160009054906101000a900473ffffffffffffffffffffffffffffffffffffffff16905060006002600086815260200190815260200160002060008373ffffffffffffffffffffffffffffffffffffffff1673ffffffffffffffffffffffffffffffffffffffff16815260200190815260200160002054905060006002600087815260200190815260200160002060008473ffffffffffffffffffffffffffffffffffffffff1673ffffffffffffffffffffffffffffffffffffffff1681526020019081526020016000208190555060008273ffffffffffffffffffffffffffffffffffffffff168260405161323790614802565b60006040518083038185875af1925050503d8060008114613274576040519150601f19603f3d011682016040523d82523d6000602084013e613279565b606091505b50509050806132bd576040517f08c379a00000000000000000000000000000000000000000000000000000000081526004016132b490614863565b60405180910390fd5b50505080806132cb90613e70565b915050613112565b505050565b6040518060c001604052806060815260200160008152602001600073ffffffffffffffffffffffffffffffffffffffff16815260200160608152602001600015158152602001600081525090565b6000604051905090565b600080fd5b600080fd5b6000819050919050565b61334d8161333a565b811461335857600080fd5b50565b60008135905061336a81613344565b92915050565b60006020828403121561338657613385613330565b5b60006133948482850161335b565b91505092915050565b600073ffffffffffffffffffffffffffffffffffffffff82169050919050565b60006133c88261339d565b9050919050565b6133d8816133bd565b82525050565b6133e78161333a565b82525050565b600081519050919050565b600082825260208201905092915050565b60005b8381101561342757808201518184015260208101905061340c565b60008484015250505050565b6000601f19601f8301169050919050565b600061344f826133ed565b61345981856133f8565b9350613469818560208601613409565b61347281613433565b840191505092915050565b6000819050919050565b60006134a261349d6134988461339d565b61347d565b61339d565b9050919050565b60006134b482613487565b9050919050565b60006134c6826134a9565b9050919050565b6134d6816134bb565b82525050565b6000610120820190506134f2600083018c6133cf565b6134ff602083018b6133de565b61350c604083018a6133de565b818103606083015261351e8189613444565b905061352d60808301886133de565b61353a60a08301876133de565b61354760c08301866133de565b61355460e08301856134cd565b6135626101008301846133de565b9a9950505050505050505050565b6000806040838503121561358757613586613330565b5b60006135958582860161335b565b92505060206135a68582860161335b565b9150509250929050565b600080fd5b600080fd5b7f4e487b7100000000000000000000000000000000000000000000000000000000600052604160045260246000fd5b6135f282613433565b810181811067ffffffffffffffff82111715613611576136106135ba565b5b80604052505050565b6000613624613326565b905061363082826135e9565b919050565b600067ffffffffffffffff8211156136505761364f6135ba565b5b61365982613433565b9050602081019050919050565b82818337600083830152505050565b600061368861368384613635565b61361a565b9050828152602081018484840111156136a4576136a36135b5565b5b6136af848285613666565b509392505050565b600082601f8301126136cc576136cb6135b0565b5b81356136dc848260208601613675565b91505092915050565b60006136f0826133bd565b9050919050565b613700816136e5565b811461370b57600080fd5b50565b60008135905061371d816136f7565b92915050565b600080600080600060a0868803121561373f5761373e613330565b5b600061374d8882890161335b565b955050602086013567ffffffffffffffff81111561376e5761376d613335565b5b61377a888289016136b7565b945050604061378b8882890161335b565b935050606061379c8882890161335b565b92505060806137ad8882890161370e565b9150509295509295909350565b600082825260208201905092915050565b60006137d6826133ed565b6137e081856137ba565b93506137f0818560208601613409565b6137f981613433565b840191505092915050565b61380d8161333a565b82525050565b600061381e8261339d565b9050919050565b61382e81613813565b82525050565b60008115159050919050565b61384981613834565b82525050565b600060c083016000830151848203600086015261386c82826137cb565b91505060208301516138816020860182613804565b5060408301516138946040860182613825565b50606083015184820360608601526138ac82826137cb565b91505060808301516138c16080860182613840565b5060a08301516138d460a0860182613804565b508091505092915050565b600060208201905081810360008301526138f9818461384f565b905092915050565b61390a816133bd565b811461391557600080fd5b50565b60008135905061392781613901565b92915050565b6000806000806080858703121561394757613946613330565b5b60006139558782880161335b565b945050602085013567ffffffffffffffff81111561397657613975613335565b5b613982878288016136b7565b93505060406139938782880161335b565b92505060606139a487828801613918565b91505092959194509250565b600081519050919050565b600082825260208201905092915050565b6000819050602082019050919050565b600060c08301600083015184820360008601526139f982826137cb565b9150506020830151613a0e6020860182613804565b506040830151613a216040860182613825565b5060608301518482036060860152613a3982826137cb565b9150506080830151613a4e6080860182613840565b5060a0830151613a6160a0860182613804565b508091505092915050565b6000613a7883836139dc565b905092915050565b6000602082019050919050565b6000613a98826139b0565b613aa281856139bb565b935083602082028501613ab4856139cc565b8060005b85811015613af05784840389528151613ad18582613a6c565b9450613adc83613a80565b925060208a01995050600181019050613ab8565b50829750879550505050505092915050565b60006020820190508181036000830152613b1c8184613a8d565b905092915050565b7f4e487b7100000000000000000000000000000000000000000000000000000000600052602260045260246000fd5b60006002820490506001821680613b6b57607f821691505b602082108103613b7e57613b7d613b24565b5b50919050565b7f50726f6a65637420646f65736e27742065786973740000000000000000000000600082015250565b6000613bba6015836133f8565b9150613bc582613b84565b602082019050919050565b60006020820190508181036000830152613be981613bad565b9050919050565b7f4e487b7100000000000000000000000000000000000000000000000000000000600052603260045260246000fd5b7f4f6e6c7920636f6e7472696275746f722063616e20706572666f726d2074686960008201527f7320616374696f6e000000000000000000000000000000000000000000000000602082015250565b6000613c7b6028836133f8565b9150613c8682613c1f565b604082019050919050565b60006020820190508181036000830152613caa81613c6e565b9050919050565b7f5265717565737420646f6573206e6f7420657869737400000000000000000000600082015250565b6000613ce76016836133f8565b9150613cf282613cb1565b602082019050919050565b60006020820190508181036000830152613d1681613cda565b9050919050565b7f596f7520616c726561647920617070726f76656420746869732072657175657360008201527f7400000000000000000000000000000000000000000000000000000000000000602082015250565b6000613d796021836133f8565b9150613d8482613d1d565b604082019050919050565b60006020820190508181036000830152613da881613d6c565b9050919050565b7f54686973207265717565737420616c726561647920676f7420656e6f7567682060008201527f766f74657320616e642069742069732065786563757465640000000000000000602082015250565b6000613e0b6038836133f8565b9150613e1682613daf565b604082019050919050565b60006020820190508181036000830152613e3a81613dfe565b9050919050565b7f4e487b7100000000000000000000000000000000000000000000000000000000600052601160045260246000fd5b6000613e7b8261333a565b91507fffffffffffffffffffffffffffffffffffffffffffffffffffffffffffffffff8203613ead57613eac613e41565b5b600182019050919050565b7f4e487b7100000000000000000000000000000000000000000000000000000000600052601260045260246000fd5b6000613ef28261333a565b9150613efd8361333a565b925082613f0d57613f0c613eb8565b5b828204905092915050565b60008190508160005260206000209050919050565b60006020601f8301049050919050565b600082821b905092915050565b600060088302613f7a7fffffffffffffffffffffffffffffffffffffffffffffffffffffffffffffffff82613f3d565b613f848683613f3d565b95508019841693508086168417925050509392505050565b6000613fb7613fb2613fad8461333a565b61347d565b61333a565b9050919050565b6000819050919050565b613fd183613f9c565b613fe5613fdd82613fbe565b848454613f4a565b825550505050565b600090565b613ffa613fed565b614005818484613fc8565b505050565b5b818110156140295761401e600082613ff2565b60018101905061400b565b5050565b601f82111561406e5761403f81613f18565b61404884613f2d565b81016020851015614057578190505b61406b61406385613f2d565b83018261400a565b50505b505050565b600082821c905092915050565b600061409160001984600802614073565b1980831691505092915050565b60006140aa8383614080565b9150826002028217905092915050565b6140c3826133ed565b67ffffffffffffffff8111156140dc576140db6135ba565b5b6140e68254613b53565b6140f182828561402d565b600060209050601f8311600181146141245760008415614112578287015190505b61411c858261409e565b865550614184565b601f19841661413286613f18565b60005b8281101561415a57848901518255600182019150602085019450602081019050614135565b868310156141775784890151614173601f891682614080565b8355505b6001600288020188555050505b505050505050565b7f4f6e6c79206f776e65722063616e20696e766f6b6520746869732066756e637460008201527f696f6e0000000000000000000000000000000000000000000000000000000000602082015250565b60006141e86023836133f8565b91506141f38261418c565b604082019050919050565b60006020820190508181036000830152614217816141db565b9050919050565b7f476f616c206e6f74207265616368656420796574000000000000000000000000600082015250565b60006142546014836133f8565b915061425f8261421e565b602082019050919050565b6000602082019050818103600083015261428381614247565b9050919050565b7f496e76616c696420526563697069656e74206164647265737300000000000000600082015250565b60006142c06019836133f8565b91506142cb8261428a565b602082019050919050565b600060208201905081810360008301526142ef816142b3565b9050919050565b7f4e6f2073756666696369616e742062616c616e63650000000000000000000000600082015250565b600061432c6015836133f8565b9150614337826142f6565b602082019050919050565b6000602082019050818103600083015261435b8161431f565b9050919050565b7f546869732070726f6a65637420646f656e7327742061636365707420636f6e7460008201527f7269627574696f6e7320616e796d6f7265000000000000000000000000000000602082015250565b60006143be6031836133f8565b91506143c982614362565b604082019050919050565b600060208201905081810360008301526143ed816143b1565b9050919050565b7f596f752061726520616c7265616479206120636f6e7472696275746f72000000600082015250565b600061442a601d836133f8565b9150614435826143f4565b602082019050919050565b600060208201905081810360008301526144598161441d565b9050919050565b7f596f75722063757272656e7420636f6e747269627574696f6e20646f65736e2760008201527f74206576656e20776f727468203120746f6b656e000000000000000000000000602082015250565b60006144bc6034836133f8565b91506144c782614460565b604082019050919050565b600060208201905081810360008301526144eb816144af565b9050919050565b7f476f616c20726561636865640000000000000000000000000000000000000000600082015250565b6000614528600c836133f8565b9150614533826144f2565b602082019050919050565b600060208201905081810360008301526145578161451b565b9050919050565b600060408201905061457360008301856133cf565b61458060208301846133cf565b9392505050565b60008151905061459681613344565b92915050565b6000602082840312156145b2576145b1613330565b5b60006145c084828501614587565b91505092915050565b7f4e6f2073756666696369616e7420746f6b656e73206c65667400000000000000600082015250565b60006145ff6019836133f8565b915061460a826145c9565b602082019050919050565b6000602082019050818103600083015261462e816145f2565b9050919050565b600060608201905061464a60008301866133cf565b61465760208301856133cf565b61466460408301846133de565b949350505050565b61467581613834565b811461468057600080fd5b50565b6000815190506146928161466c565b92915050565b6000602082840312156146ae576146ad613330565b5b60006146bc84828501614683565b91505092915050565b7f546f6b656e207472616e73666572206661696c65640000000000000000000000600082015250565b60006146fb6015836133f8565b9150614706826146c5565b602082019050919050565b6000602082019050818103600083015261472a816146ee565b9050919050565b600061473c8261333a565b91506147478361333a565b925082820190508082111561475f5761475e613e41565b5b92915050565b7f5265717565737420616c72656164792066696e616c697a656400000000000000600082015250565b600061479b6019836133f8565b91506147a682614765565b602082019050919050565b600060208201905081810360008301526147ca8161478e565b9050919050565b600081905092915050565b50565b60006147ec6000836147d1565b91506147f7826147dc565b600082019050919050565b600061480d826147df565b9150819050919050565b7f4574686572207472616e73666572206661696c65640000000000000000000000600082015250565b600061484d6015836133f8565b915061485882614817565b602082019050919050565b6000602082019050818103600083015261487c81614840565b905091905056fea264697066735822122025e54eea9fa932b2ac39f4fdddae539df575a051a731d76b6c4bd90d9339abc464736f6c63430008120033",
  "linkReferences": {},
  "deployedLinkReferences": {}
}