{
  "_format": "hh-sol-artifact-1",
  "contractName": "Campaign",
  "sourceName": "contracts/Campaign.sol",
  "abi": [
    {
      "inputs": [
        {
          "internalType": "uint256",
          "name": "_projIndex",
          "type": "uint256"
        },
        {
          "internalType": "uint256",
          "name": "_reqIndex",
          "type": "uint256"
        }
      ],
      "name": "approveRequest",
      "outputs": [],
      "stateMutability": "nonpayable",
      "type": "function"
    },
    {
      "inputs": [
        {
          "internalType": "uint256",
          "name": "_id",
          "type": "uint256"
        }
      ],
      "name": "contribute",
      "outputs": [],
      "stateMutability": "payable",
      "type": "function"
    },
    {
      "inputs": [
        {
          "internalType": "string",
          "name": "_title",
          "type": "string"
        },
        {
          "internalType": "uint256",
          "name": "_goal",
          "type": "uint256"
        },
        {
          "internalType": "string",
          "name": "_story",
          "type": "string"
        },
        {
          "internalType": "uint256",
          "name": "_maxReachTime",
          "type": "uint256"
        },
        {
          "internalType": "uint256",
          "name": "_tokenValue",
          "type": "uint256"
        },
        {
          "internalType": "uint256",
          "name": "_totalICOSupply",
          "type": "uint256"
        }
      ],
      "name": "createProject",
      "outputs": [],
      "stateMutability": "nonpayable",
      "type": "function"
    },
    {
      "inputs": [
        {
          "internalType": "uint256",
          "name": "_projectID",
          "type": "uint256"
        },
        {
          "internalType": "string",
          "name": "_description",
          "type": "string"
        },
        {
          "internalType": "uint256",
          "name": "_amount",
          "type": "uint256"
        },
        {
          "internalType": "address",
          "name": "_recipient",
          "type": "address"
        }
      ],
      "name": "createRequest",
      "outputs": [],
      "stateMutability": "nonpayable",
      "type": "function"
    },
    {
      "inputs": [],
      "name": "getProjects",
      "outputs": [
        {
          "components": [
            {
              "internalType": "uint256",
              "name": "id",
              "type": "uint256"
            },
            {
              "internalType": "address",
              "name": "owner",
              "type": "address"
            },
            {
              "internalType": "string",
              "name": "title",
              "type": "string"
            },
            {
              "internalType": "uint256",
              "name": "goal",
              "type": "uint256"
            },
            {
              "internalType": "uint256",
              "name": "launchDay",
              "type": "uint256"
            },
            {
              "internalType": "string",
              "name": "story",
              "type": "string"
            },
            {
              "internalType": "uint256",
              "name": "maxReachTime",
              "type": "uint256"
            },
            {
              "internalType": "uint256",
              "name": "numOfContributers",
              "type": "uint256"
            },
            {
              "internalType": "uint256",
              "name": "tokenValue",
              "type": "uint256"
            },
            {
              "components": [
                {
                  "internalType": "uint256",
                  "name": "id",
                  "type": "uint256"
                },
                {
                  "internalType": "string",
                  "name": "description",
                  "type": "string"
                },
                {
                  "internalType": "uint256",
                  "name": "amount",
                  "type": "uint256"
                },
                {
                  "internalType": "address payable",
                  "name": "recipient",
                  "type": "address"
                },
                {
                  "internalType": "string",
                  "name": "status",
                  "type": "string"
                },
                {
                  "internalType": "bool",
                  "name": "completed",
                  "type": "bool"
                },
                {
                  "internalType": "uint256",
                  "name": "approvalsNum",
                  "type": "uint256"
                },
                {
                  "internalType": "address[]",
                  "name": "voters",
                  "type": "address[]"
                }
              ],
              "internalType": "struct Campaign.Request[]",
              "name": "requests",
              "type": "tuple[]"
            },
            {
              "internalType": "contract ICOToken",
              "name": "icoToken",
              "type": "address"
            },
            {
              "internalType": "address[]",
              "name": "contributors",
              "type": "address[]"
            },
            {
              "internalType": "uint256",
              "name": "funds",
              "type": "uint256"
            }
          ],
          "internalType": "struct Campaign.Project[]",
          "name": "",
          "type": "tuple[]"
        }
      ],
      "stateMutability": "view",
      "type": "function"
    },
    {
      "inputs": [
        {
          "internalType": "uint256",
          "name": "",
          "type": "uint256"
        }
      ],
      "name": "projects",
      "outputs": [
        {
          "internalType": "uint256",
          "name": "id",
          "type": "uint256"
        },
        {
          "internalType": "address",
          "name": "owner",
          "type": "address"
        },
        {
          "internalType": "string",
          "name": "title",
          "type": "string"
        },
        {
          "internalType": "uint256",
          "name": "goal",
          "type": "uint256"
        },
        {
          "internalType": "uint256",
          "name": "launchDay",
          "type": "uint256"
        },
        {
          "internalType": "string",
          "name": "story",
          "type": "string"
        },
        {
          "internalType": "uint256",
          "name": "maxReachTime",
          "type": "uint256"
        },
        {
          "internalType": "uint256",
          "name": "numOfContributers",
          "type": "uint256"
        },
        {
          "internalType": "uint256",
          "name": "tokenValue",
          "type": "uint256"
        },
        {
          "internalType": "contract ICOToken",
          "name": "icoToken",
          "type": "address"
        },
        {
          "internalType": "uint256",
          "name": "funds",
          "type": "uint256"
        }
      ],
      "stateMutability": "view",
      "type": "function"
    }
  ],
  "bytecode": "0x608060405234801561001057600080fd5b50613af0806100206000396000f3fe6080604052600436106200005c5760003560e01c80630769cb2a1462000061578063107046bd14620000885780632c0a90a914620000cf5780637374a1bf14620000f4578063c1cbbca71462000119578063dcc601281462000130575b600080fd5b3480156200006e57600080fd5b50620000866200008036600462002313565b62000157565b005b3480156200009557600080fd5b50620000ad620000a7366004620023a3565b6200029c565b604051620000c69b9a9998979695949392919062002405565b60405180910390f35b348015620000dc57600080fd5b5062000086620000ee36600462002487565b62000439565b3480156200010157600080fd5b506200008662000113366004620024aa565b6200104e565b620000866200012a366004620023a3565b6200173d565b3480156200013d57600080fd5b506200014862001b39565b604051620000c6919062002656565b600080546040519091903090849062000170906200225a565b6001600160a01b0390921682526020820152604001604051809103906000f080158015620001a2573d6000803e3d6000fd5b5060008054600181018255908052600d027f290decd9548b62a8d60345a988386fc84ba6bc95484008f6362f93160ef3e56381018481557f290decd9548b62a8d60345a988386fc84ba6bc95484008f6362f93160ef3e564820180546001600160a01b031916331790559192507f290decd9548b62a8d60345a988386fc84ba6bc95484008f6362f93160ef3e565016200023d8a8262002830565b50600381018890556005810162000255888262002830565b50600681019590955560088501939093555050426004830155600a820180546001600160a01b0319166001600160a01b039092169190911790556000600c90910155505050565b60008181548110620002ad57600080fd5b60009182526020909120600d90910201805460018201546002830180549294506001600160a01b039091169291620002e590620027a2565b80601f01602080910402602001604051908101604052809291908181526020018280546200031390620027a2565b8015620003645780601f10620003385761010080835404028352916020019162000364565b820191906000526020600020905b8154815290600101906020018083116200034657829003601f168201915b5050505050908060030154908060040154908060050180546200038790620027a2565b80601f0160208091040260200160405190810160405280929190818152602001828054620003b590620027a2565b8015620004065780601f10620003da5761010080835404028352916020019162000406565b820191906000526020600020905b815481529060010190602001808311620003e857829003601f168201915b50505050600683015460078401546008850154600a860154600c9096015494959294919350916001600160a01b0316908b565b60005482908110620004685760405162461bcd60e51b81526004016200045f90620028fd565b60405180910390fd5b8260008082815481106200048057620004806200292c565b90600052602060002090600d0201604051806101a0016040529081600082015481526020016001820160009054906101000a90046001600160a01b03166001600160a01b03166001600160a01b03168152602001600282018054620004e590620027a2565b80601f01602080910402602001604051908101604052809291908181526020018280546200051390620027a2565b8015620005645780601f10620005385761010080835404028352916020019162000564565b820191906000526020600020905b8154815290600101906020018083116200054657829003601f168201915b5050505050815260200160038201548152602001600482015481526020016005820180546200059390620027a2565b80601f0160208091040260200160405190810160405280929190818152602001828054620005c190620027a2565b8015620006125780601f10620005e65761010080835404028352916020019162000612565b820191906000526020600020905b815481529060010190602001808311620005f457829003601f168201915b5050505050815260200160068201548152602001600782015481526020016008820154815260200160098201805480602002602001604051908101604052809291908181526020016000905b828210156200087b578382906000526020600020906008020160405180610100016040529081600082015481526020016001820180546200069f90620027a2565b80601f0160208091040260200160405190810160405280929190818152602001828054620006cd90620027a2565b80156200071e5780601f10620006f2576101008083540402835291602001916200071e565b820191906000526020600020905b8154815290600101906020018083116200070057829003601f168201915b50505091835250506002820154602082015260038201546001600160a01b031660408201526004820180546060909201916200075a90620027a2565b80601f01602080910402602001604051908101604052809291908181526020018280546200078890620027a2565b8015620007d95780601f10620007ad57610100808354040283529160200191620007d9565b820191906000526020600020905b815481529060010190602001808311620007bb57829003601f168201915b505050505081526020016005820160009054906101000a900460ff1615151515815260200160068201548152602001600782018054806020026020016040519081016040528092919081815260200182805480156200086257602002820191906000526020600020905b81546001600160a01b0316815260019091019060200180831162000843575b505050505081525050815260200190600101906200065e565b50505090825250600a8201546001600160a01b0316602080830191909152600b830180546040805182850281018501825282815294019392830182828015620008ee57602002820191906000526020600020905b81546001600160a01b03168152600190910190602001808311620008cf575b5050509183525050600c9190910154602091820152600084815260018252604080822033835290925220549091506200097b5760405162461bcd60e51b815260206004820152602860248201527f4f6e6c7920636f6e7472696275746f722063616e20706572666f726d20746869604482015267399030b1ba34b7b760c11b60648201526084016200045f565b848460008083815481106200099457620009946200292c565b90600052602060002090600d0201604051806101a0016040529081600082015481526020016001820160009054906101000a90046001600160a01b03166001600160a01b03166001600160a01b03168152602001600282018054620009f990620027a2565b80601f016020809104026020016040519081016040528092919081815260200182805462000a2790620027a2565b801562000a785780601f1062000a4c5761010080835404028352916020019162000a78565b820191906000526020600020905b81548152906001019060200180831162000a5a57829003601f168201915b50505050508152602001600382015481526020016004820154815260200160058201805462000aa790620027a2565b80601f016020809104026020016040519081016040528092919081815260200182805462000ad590620027a2565b801562000b265780601f1062000afa5761010080835404028352916020019162000b26565b820191906000526020600020905b81548152906001019060200180831162000b0857829003601f168201915b5050505050815260200160068201548152602001600782015481526020016008820154815260200160098201805480602002602001604051908101604052809291908181526020016000905b8282101562000d8f5783829060005260206000209060080201604051806101000160405290816000820154815260200160018201805462000bb390620027a2565b80601f016020809104026020016040519081016040528092919081815260200182805462000be190620027a2565b801562000c325780601f1062000c065761010080835404028352916020019162000c32565b820191906000526020600020905b81548152906001019060200180831162000c1457829003601f168201915b50505091835250506002820154602082015260038201546001600160a01b0316604082015260048201805460609092019162000c6e90620027a2565b80601f016020809104026020016040519081016040528092919081815260200182805462000c9c90620027a2565b801562000ced5780601f1062000cc15761010080835404028352916020019162000ced565b820191906000526020600020905b81548152906001019060200180831162000ccf57829003601f168201915b505050505081526020016005820160009054906101000a900460ff16151515158152602001600682015481526020016007820180548060200260200160405190810160405280929190818152602001828054801562000d7657602002820191906000526020600020905b81546001600160a01b0316815260019091019060200180831162000d57575b5050505050815250508152602001906001019062000b72565b50505090825250600a8201546001600160a01b0316602080830191909152600b83018054604080518285028101850182528281529401939283018282801562000e0257602002820191906000526020600020905b81546001600160a01b0316815260019091019060200180831162000de3575b50505050508152602001600c82015481525050905080610120015151821062000e675760405162461bcd60e51b815260206004820152601660248201527514995c5d595cdd08191bd95cc81b9bdd08195e1a5cdd60521b60448201526064016200045f565b600080898154811062000e7e5762000e7e6200292c565b90600052602060002090600d02019050600081600901898154811062000ea85762000ea86200292c565b600091825260208083208d84526002825260408085208e865283528085203386529092529220546008909102909101915060ff161562000f355760405162461bcd60e51b815260206004820152602160248201527f596f7520616c726561647920617070726f7665642074686973207265717565736044820152601d60fa1b60648201526084016200045f565b600581015460ff161562000fad5760405162461bcd60e51b815260206004820152603860248201527f54686973207265717565737420616c726561647920676f7420656e6f756768206044820152771d9bdd195cc8185b99081a5d081a5cc8195e1958dd5d195960421b60648201526084016200045f565b60008a81526002602090815260408083208c845282528083203384529091528120805460ff191660011790556006820180549162000feb8362002958565b9091555050600781018054600181018255600091825260209091200180546001600160a01b03191633179055600b8201546200102a9060029062002974565b816006015411156200104257620010428a8a62001fe9565b50505050505050505050565b60005484908110620010745760405162461bcd60e51b81526004016200045f90620028fd565b8460008082815481106200108c576200108c6200292c565b90600052602060002090600d0201604051806101a0016040529081600082015481526020016001820160009054906101000a90046001600160a01b03166001600160a01b03166001600160a01b03168152602001600282018054620010f190620027a2565b80601f01602080910402602001604051908101604052809291908181526020018280546200111f90620027a2565b8015620011705780601f10620011445761010080835404028352916020019162001170565b820191906000526020600020905b8154815290600101906020018083116200115257829003601f168201915b5050505050815260200160038201548152602001600482015481526020016005820180546200119f90620027a2565b80601f0160208091040260200160405190810160405280929190818152602001828054620011cd90620027a2565b80156200121e5780601f10620011f2576101008083540402835291602001916200121e565b820191906000526020600020905b8154815290600101906020018083116200120057829003601f168201915b5050505050815260200160068201548152602001600782015481526020016008820154815260200160098201805480602002602001604051908101604052809291908181526020016000905b828210156200148757838290600052602060002090600802016040518061010001604052908160008201548152602001600182018054620012ab90620027a2565b80601f0160208091040260200160405190810160405280929190818152602001828054620012d990620027a2565b80156200132a5780601f10620012fe576101008083540402835291602001916200132a565b820191906000526020600020905b8154815290600101906020018083116200130c57829003601f168201915b50505091835250506002820154602082015260038201546001600160a01b031660408201526004820180546060909201916200136690620027a2565b80601f01602080910402602001604051908101604052809291908181526020018280546200139490620027a2565b8015620013e55780601f10620013b957610100808354040283529160200191620013e5565b820191906000526020600020905b815481529060010190602001808311620013c757829003601f168201915b505050505081526020016005820160009054906101000a900460ff1615151515815260200160068201548152602001600782018054806020026020016040519081016040528092919081815260200182805480156200146e57602002820191906000526020600020905b81546001600160a01b031681526001909101906020018083116200144f575b505050505081525050815260200190600101906200126a565b50505090825250600a8201546001600160a01b0316602080830191909152600b830180546040805182850281018501825282815294019392830182828015620014fa57602002820191906000526020600020905b81546001600160a01b03168152600190910190602001808311620014db575b50505050508152602001600c82015481525050905080602001516001600160a01b0316336001600160a01b031614620015825760405162461bcd60e51b815260206004820152602360248201527f4f6e6c79206f776e65722063616e20696e766f6b6520746869732066756e637460448201526234b7b760e91b60648201526084016200045f565b60008088815481106200159957620015996200292c565b90600052602060002090600d02019050806003015481600c01541015620015fa5760405162461bcd60e51b815260206004820152601460248201527311dbd85b081b9bdd081c995858da1959081e595d60621b60448201526064016200045f565b6001600160a01b0385166200164e5760405162461bcd60e51b8152602060048201526019602482015278496e76616c696420526563697069656e74206164647265737360381b60448201526064016200045f565b80600c01548611156200169c5760405162461bcd60e51b81526020600482015260156024820152744e6f2073756666696369616e742062616c616e636560581b60448201526064016200045f565b6009810180546001808201835560009283526020909220600882020181815590918101620016cb8a8262002830565b50600281018890556003810180546001600160a01b0319166001600160a01b03891617905560408051808201909152600781526670656e64696e6760c81b602082015260048201906200171f908262002830565b5060006006820155600501805460ff19169055505050505050505050565b60005481908110620017635760405162461bcd60e51b81526004016200045f90620028fd565b60008083815481106200177a576200177a6200292c565b90600052602060002090600d0201905080600601544211156200180557620017a28362002146565b60405162461bcd60e51b815260206004820152603160248201527f546869732070726f6a65637420646f656e7327742061636365707420636f6e746044820152707269627574696f6e7320616e796d6f726560781b60648201526084016200045f565b6000838152600160209081526040808320338452909152902054156200186e5760405162461bcd60e51b815260206004820152601d60248201527f596f752061726520616c7265616479206120636f6e7472696275746f7200000060448201526064016200045f565b8060080154341015620018e15760405162461bcd60e51b815260206004820152603460248201527f596f75722063757272656e7420636f6e747269627574696f6e20646f65736e276044820152733a1032bb32b7103bb7b93a341018903a37b5b2b760611b60648201526084016200045f565b806003015481600c015410620019295760405162461bcd60e51b815260206004820152600c60248201526b11dbd85b081c995858da195960a21b60448201526064016200045f565b60008160080154346200193d919062002974565b600a8301546040516370a0823160e01b815230600482015291925082916001600160a01b03909116906370a0823190602401602060405180830381865afa1580156200198d573d6000803e3d6000fd5b505050506040513d601f19601f82011682018060405250810190620019b3919062002997565b1015620019ff5760405162461bcd60e51b8152602060048201526019602482015278139bc81cdd59999a58da585b9d081d1bdad95b9cc81b19599d603a1b60448201526064016200045f565b600a82015460405163a9059cbb60e01b8152336004820152602481018390526001600160a01b039091169063a9059cbb906044016020604051808303816000875af115801562001a53573d6000803e3d6000fd5b505050506040513d601f19601f8201168201806040525081019062001a799190620029b1565b62001abf5760405162461bcd60e51b8152602060048201526015602482015274151bdad95b881d1c985b9cd9995c8819985a5b1959605a1b60448201526064016200045f565b600084815260016020818152604080842033808652908352908420349055600b860180549384018155845290832090910180546001600160a01b03191690911790556007830180549162001b138362002958565b91905055503482600c01600082825462001b2e9190620029dc565b909155505050505050565b60606000805480602002602001604051908101604052809291908181526020016000905b8282101562001fe0576000848152602090819020604080516101a081018252600d86029092018054835260018101546001600160a01b0316938301939093526002830180549293929184019162001bb490620027a2565b80601f016020809104026020016040519081016040528092919081815260200182805462001be290620027a2565b801562001c335780601f1062001c075761010080835404028352916020019162001c33565b820191906000526020600020905b81548152906001019060200180831162001c1557829003601f168201915b50505050508152602001600382015481526020016004820154815260200160058201805462001c6290620027a2565b80601f016020809104026020016040519081016040528092919081815260200182805462001c9090620027a2565b801562001ce15780601f1062001cb55761010080835404028352916020019162001ce1565b820191906000526020600020905b81548152906001019060200180831162001cc357829003601f168201915b5050505050815260200160068201548152602001600782015481526020016008820154815260200160098201805480602002602001604051908101604052809291908181526020016000905b8282101562001f4a5783829060005260206000209060080201604051806101000160405290816000820154815260200160018201805462001d6e90620027a2565b80601f016020809104026020016040519081016040528092919081815260200182805462001d9c90620027a2565b801562001ded5780601f1062001dc15761010080835404028352916020019162001ded565b820191906000526020600020905b81548152906001019060200180831162001dcf57829003601f168201915b50505091835250506002820154602082015260038201546001600160a01b0316604082015260048201805460609092019162001e2990620027a2565b80601f016020809104026020016040519081016040528092919081815260200182805462001e5790620027a2565b801562001ea85780601f1062001e7c5761010080835404028352916020019162001ea8565b820191906000526020600020905b81548152906001019060200180831162001e8a57829003601f168201915b505050505081526020016005820160009054906101000a900460ff16151515158152602001600682015481526020016007820180548060200260200160405190810160405280929190818152602001828054801562001f3157602002820191906000526020600020905b81546001600160a01b0316815260019091019060200180831162001f12575b5050505050815250508152602001906001019062001d2d565b50505090825250600a8201546001600160a01b0316602080830191909152600b83018054604080518285028101850182528281529401939283018282801562001fbd57602002820191906000526020600020905b81546001600160a01b0316815260019091019060200180831162001f9e575b50505050508152602001600c820154815250508152602001906001019062001b5d565b50505050905090565b60008083815481106200200057620020006200292c565b90600052602060002090600d0201905060008160090183815481106200202a576200202a6200292c565b60009182526020909120600890910201600581015490915060ff1615620020905760405162461bcd60e51b815260206004820152601960248201527814995c5d595cdd08185b1c9958591e48199a5b985b1a5e9959603a1b60448201526064016200045f565b604080518082019091526008815267185c1c1c9bdd995960c21b60208201526004820190620020c0908262002830565b50600381015460028201546040516000926001600160a01b031691908381818185875af1925050503d806000811462002116576040519150601f19603f3d011682016040523d82523d6000602084013e6200211b565b606091505b50509050806200213f5760405162461bcd60e51b81526004016200045f90620029f8565b5050505050565b60008082815481106200215d576200215d6200292c565b90600052602060002090600d0201905060005b600b8201548110156200225557600082600b0182815481106200219757620021976200292c565b6000918252602080832091909101548683526001825260408084206001600160a01b03909216808552919092528183208054908490559151909350909190839083908381818185875af1925050503d806000811462002213576040519150601f19603f3d011682016040523d82523d6000602084013e62002218565b606091505b50509050806200223c5760405162461bcd60e51b81526004016200045f90620029f8565b50505080806200224c9062002958565b91505062002170565b505050565b6110938062002a2883390190565b634e487b7160e01b600052604160045260246000fd5b600082601f8301126200229057600080fd5b813567ffffffffffffffff80821115620022ae57620022ae62002268565b604051601f8301601f19908116603f01168101908282118183101715620022d957620022d962002268565b81604052838152866020858801011115620022f357600080fd5b836020870160208301376000602085830101528094505050505092915050565b60008060008060008060c087890312156200232d57600080fd5b863567ffffffffffffffff808211156200234657600080fd5b620023548a838b016200227e565b97506020890135965060408901359150808211156200237257600080fd5b506200238189828a016200227e565b945050606087013592506080870135915060a087013590509295509295509295565b600060208284031215620023b657600080fd5b5035919050565b6000815180845260005b81811015620023e557602081850181015186830182015201620023c7565b506000602082860101526020601f19601f83011685010191505092915050565b8b81526001600160a01b038b8116602083015261016060408301819052600091620024338483018e620023bd565b91508b60608501528a608085015283820360a085015262002455828b620023bd565b60c085019990995260e08401979097525050610100810193909352921661012082015261014001529695505050505050565b600080604083850312156200249b57600080fd5b50508035926020909101359150565b60008060008060808587031215620024c157600080fd5b84359350602085013567ffffffffffffffff811115620024e057600080fd5b620024ee878288016200227e565b9350506040850135915060608501356001600160a01b03811681146200251357600080fd5b939692955090935050565b600081518084526020808501945080840160005b83811015620025595781516001600160a01b03168752958201959082019060010162002532565b509495945050505050565b600081518084526020808501808196508360051b8101915082860160005b8581101562002649578284038952815161010081518652868201518188880152620025b082880182620023bd565b9150506040808301518188015250606080830151620025d9828901826001600160a01b03169052565b505060808083015187830382890152620025f48382620023bd565b9250505060a0808301516200260c8289018215159052565b505060c0828101519087015260e091820151868203928701929092526200263481836200251e565b9a87019a955050509084019060010162002582565b5091979650505050505050565b60006020808301818452808551808352604092508286019150828160051b87010184880160005b838110156200279457603f19898403018552815180518452878101516001600160a01b031688850152868101516101a088860181905290620026c282870182620023bd565b9150506060808301518187015250608080830151818701525060a08083015186830382880152620026f48382620023bd565b9250505060c080830151818701525060e0808301518187015250610100808301518187015250610120808301518683038288015262002734838262002564565b925050506101408083015162002754828801826001600160a01b03169052565b505061016080830151868303828801526200277083826200251e565b6101809485015197909401969096525050948701949250908601906001016200267d565b509098975050505050505050565b600181811c90821680620027b757607f821691505b602082108103620027d857634e487b7160e01b600052602260045260246000fd5b50919050565b601f8211156200225557600081815260208120601f850160051c81016020861015620028075750805b601f850160051c820191505b81811015620028285782815560010162002813565b505050505050565b815167ffffffffffffffff8111156200284d576200284d62002268565b62002865816200285e8454620027a2565b84620027de565b602080601f8311600181146200289d5760008415620028845750858301515b600019600386901b1c1916600185901b17855562002828565b600085815260208120601f198616915b82811015620028ce57888601518255948401946001909101908401620028ad565b5085821015620028ed5787850151600019600388901b60f8161c191681555b5050505050600190811b01905550565b602080825260159082015274141c9bda9958dd08191bd95cdb89dd08195e1a5cdd605a1b604082015260600190565b634e487b7160e01b600052603260045260246000fd5b634e487b7160e01b600052601160045260246000fd5b6000600182016200296d576200296d62002942565b5060010190565b6000826200299257634e487b7160e01b600052601260045260246000fd5b500490565b600060208284031215620029aa57600080fd5b5051919050565b600060208284031215620029c457600080fd5b81518015158114620029d557600080fd5b9392505050565b80820180821115620029f257620029f262002942565b92915050565b602080825260159082015274115d1a195c881d1c985b9cd9995c8819985a5b1959605a1b60408201526060019056fe60a06040523480156200001157600080fd5b506040516200109338038062001093833981016040819052620000349162000307565b806040518060400160405280600b81526020016a436f6d706169676e49434f60a81b815250604051806040016040528060048152602001634349434f60e01b8152508160039081620000879190620003e7565b506004620000968282620003e7565b50505060008111620000ef5760405162461bcd60e51b815260206004820152601560248201527f45524332304361707065643a206361702069732030000000000000000000000060448201526064015b60405180910390fd5b608052600580546001600160a01b0319163317905562000110828262000118565b5050620004db565b6080518162000131620001a860201b620002f11760201c565b6200013d9190620004b3565b11156200018d5760405162461bcd60e51b815260206004820181905260248201527f45524332304361707065643a206d617820737570706c792072656163686564216044820152606401620000e6565b620001a48282620001ae60201b6200042b1760201c565b5050565b60025490565b60805181620001c7620001a860201b620002f11760201c565b620001d39190620004b3565b1115620002235760405162461bcd60e51b815260206004820152601960248201527f45524332304361707065643a20636170206578636565646564000000000000006044820152606401620000e6565b620001a482826200023a60201b620004b01760201c565b6001600160a01b038216620002925760405162461bcd60e51b815260206004820152601f60248201527f45524332303a206d696e7420746f20746865207a65726f2061646472657373006044820152606401620000e6565b8060026000828254620002a69190620004b3565b90915550506001600160a01b038216600081815260208181526040808320805486019055518481527fddf252ad1be2c89b69c2b068fc378daa952ba7f163c4a11628f55a4df523b3ef910160405180910390a3620001a4600083835b505050565b600080604083850312156200031b57600080fd5b82516001600160a01b03811681146200033357600080fd5b6020939093015192949293505050565b634e487b7160e01b600052604160045260246000fd5b600181811c908216806200036e57607f821691505b6020821081036200038f57634e487b7160e01b600052602260045260246000fd5b50919050565b601f8211156200030257600081815260208120601f850160051c81016020861015620003be5750805b601f850160051c820191505b81811015620003df57828155600101620003ca565b505050505050565b81516001600160401b0381111562000403576200040362000343565b6200041b8162000414845462000359565b8462000395565b602080601f8311600181146200045357600084156200043a5750858301515b600019600386901b1c1916600185901b178555620003df565b600085815260208120601f198616915b82811015620004845788860151825594840194600190910190840162000463565b5085821015620004a35787850151600019600388901b60f8161c191681555b5050505050600190811b01905550565b80820180821115620004d557634e487b7160e01b600052601160045260246000fd5b92915050565b608051610b95620004fe60003960008181610151015261042d0152610b956000f3fe608060405234801561001057600080fd5b50600436106100d55760003560e01c806342966c681161008757806342966c681461018857806370a082311461019d57806379cc6790146101c65780638da5cb5b146101d957806395d89b4114610204578063a457c2d71461020c578063a9059cbb1461021f578063dd62ed3e1461023257600080fd5b806306fdde03146100da578063095ea7b3146100f857806318160ddd1461011b57806323b872dd1461012d578063313ce56714610140578063355274ea1461014f5780633950935114610175575b600080fd5b6100e2610245565b6040516100ef91906109a6565b60405180910390f35b61010b610106366004610a10565b6102d7565b60405190151581526020016100ef565b6002545b6040519081526020016100ef565b61010b61013b366004610a3a565b6102f7565b604051601281526020016100ef565b7f000000000000000000000000000000000000000000000000000000000000000061011f565b61010b610183366004610a10565b61031b565b61019b610196366004610a76565b61033d565b005b61011f6101ab366004610a8f565b6001600160a01b031660009081526020819052604090205490565b61019b6101d4366004610a10565b61034a565b6005546101ec906001600160a01b031681565b6040516001600160a01b0390911681526020016100ef565b6100e2610363565b61010b61021a366004610a10565b610372565b61010b61022d366004610a10565b6103f2565b61011f610240366004610ab1565b610400565b60606003805461025490610ae4565b80601f016020809104026020016040519081016040528092919081815260200182805461028090610ae4565b80156102cd5780601f106102a2576101008083540402835291602001916102cd565b820191906000526020600020905b8154815290600101906020018083116102b057829003601f168201915b5050505050905090565b6000336102e581858561055d565b60019150505b92915050565b60025490565b600033610305858285610682565b6103108585856106fc565b506001949350505050565b6000336102e581858561032e8383610400565b6103389190610b1e565b61055d565b610347338261088e565b50565b610355823383610682565b61035f828261088e565b5050565b60606004805461025490610ae4565b600033816103808286610400565b9050838110156103e55760405162461bcd60e51b815260206004820152602560248201527f45524332303a2064656372656173656420616c6c6f77616e63652062656c6f77604482015264207a65726f60d81b60648201526084015b60405180910390fd5b610310828686840361055d565b6000336102e58185856106fc565b6001600160a01b03918216600090815260016020908152604080832093909416825291909152205490565b7f00000000000000000000000000000000000000000000000000000000000000008161045660025490565b6104609190610b1e565b11156104aa5760405162461bcd60e51b8152602060048201526019602482015278115490cc8c10d85c1c19590e8818d85c08195e18d959591959603a1b60448201526064016103dc565b61035f82825b6001600160a01b0382166105065760405162461bcd60e51b815260206004820152601f60248201527f45524332303a206d696e7420746f20746865207a65726f20616464726573730060448201526064016103dc565b80600260008282546105189190610b1e565b90915550506001600160a01b03821660008181526020818152604080832080548601905551848152600080516020610b40833981519152910160405180910390a35050565b6001600160a01b0383166105bf5760405162461bcd60e51b8152602060048201526024808201527f45524332303a20617070726f76652066726f6d20746865207a65726f206164646044820152637265737360e01b60648201526084016103dc565b6001600160a01b0382166106205760405162461bcd60e51b815260206004820152602260248201527f45524332303a20617070726f766520746f20746865207a65726f206164647265604482015261737360f01b60648201526084016103dc565b6001600160a01b0383811660008181526001602090815260408083209487168084529482529182902085905590518481527f8c5be1e5ebec7d5bd14f71427d1e84f3dd0314c0f7b2291e5b200ac8c7c3b92591015b60405180910390a3505050565b600061068e8484610400565b905060001981146106f657818110156106e95760405162461bcd60e51b815260206004820152601d60248201527f45524332303a20696e73756666696369656e7420616c6c6f77616e636500000060448201526064016103dc565b6106f6848484840361055d565b50505050565b6001600160a01b0383166107605760405162461bcd60e51b815260206004820152602560248201527f45524332303a207472616e736665722066726f6d20746865207a65726f206164604482015264647265737360d81b60648201526084016103dc565b6001600160a01b0382166107c25760405162461bcd60e51b815260206004820152602360248201527f45524332303a207472616e7366657220746f20746865207a65726f206164647260448201526265737360e81b60648201526084016103dc565b6001600160a01b0383166000908152602081905260409020548181101561083a5760405162461bcd60e51b815260206004820152602660248201527f45524332303a207472616e7366657220616d6f756e7420657863656564732062604482015265616c616e636560d01b60648201526084016103dc565b6001600160a01b0384811660008181526020818152604080832087870390559387168083529184902080548701905592518581529092600080516020610b40833981519152910160405180910390a36106f6565b6001600160a01b0382166108ee5760405162461bcd60e51b815260206004820152602160248201527f45524332303a206275726e2066726f6d20746865207a65726f206164647265736044820152607360f81b60648201526084016103dc565b6001600160a01b038216600090815260208190526040902054818110156109625760405162461bcd60e51b815260206004820152602260248201527f45524332303a206275726e20616d6f756e7420657863656564732062616c616e604482015261636560f01b60648201526084016103dc565b6001600160a01b038316600081815260208181526040808320868603905560028054879003905551858152919291600080516020610b408339815191529101610675565b600060208083528351808285015260005b818110156109d3578581018301518582016040015282016109b7565b506000604082860101526040601f19601f8301168501019250505092915050565b80356001600160a01b0381168114610a0b57600080fd5b919050565b60008060408385031215610a2357600080fd5b610a2c836109f4565b946020939093013593505050565b600080600060608486031215610a4f57600080fd5b610a58846109f4565b9250610a66602085016109f4565b9150604084013590509250925092565b600060208284031215610a8857600080fd5b5035919050565b600060208284031215610aa157600080fd5b610aaa826109f4565b9392505050565b60008060408385031215610ac457600080fd5b610acd836109f4565b9150610adb602084016109f4565b90509250929050565b600181811c90821680610af857607f821691505b602082108103610b1857634e487b7160e01b600052602260045260246000fd5b50919050565b808201808211156102eb57634e487b7160e01b600052601160045260246000fdfeddf252ad1be2c89b69c2b068fc378daa952ba7f163c4a11628f55a4df523b3efa264697066735822122089092fe247a018ea405c849ed07df5d8eb71527971db4d60614ce3916592832b64736f6c63430008120033a2646970667358221220207911fc660cd6388dd677958b57c76b43371fa5e84a68fe43391a39b00c7fa464736f6c63430008120033",
  "linkReferences": {},
  "deployedLinkReferences": {}
}