{
  "_format": "hh-sol-artifact-1",
  "contractName": "ICOToken",
  "sourceName": "contracts/ICOToken.sol",
  "abi": [
    {
      "inputs": [
        {
          "internalType": "uint256",
          "name": "_cap",
          "type": "uint256"
        }
      ],
      "stateMutability": "nonpayable",
      "type": "constructor"
    },
    {
      "anonymous": false,
      "inputs": [
        {
          "indexed": true,
          "internalType": "address",
          "name": "owner",
          "type": "address"
        },
        {
          "indexed": true,
          "internalType": "address",
          "name": "spender",
          "type": "address"
        },
        {
          "indexed": false,
          "internalType": "uint256",
          "name": "value",
          "type": "uint256"
        }
      ],
      "name": "Approval",
      "type": "event"
    },
    {
      "anonymous": false,
      "inputs": [
        {
          "indexed": true,
          "internalType": "address",
          "name": "from",
          "type": "address"
        },
        {
          "indexed": true,
          "internalType": "address",
          "name": "to",
          "type": "address"
        },
        {
          "indexed": false,
          "internalType": "uint256",
          "name": "value",
          "type": "uint256"
        }
      ],
      "name": "Transfer",
      "type": "event"
    },
    {
      "inputs": [
        {
          "internalType": "address",
          "name": "owner",
          "type": "address"
        },
        {
          "internalType": "address",
          "name": "spender",
          "type": "address"
        }
      ],
      "name": "allowance",
      "outputs": [
        {
          "internalType": "uint256",
          "name": "",
          "type": "uint256"
        }
      ],
      "stateMutability": "view",
      "type": "function"
    },
    {
      "inputs": [
        {
          "internalType": "address",
          "name": "spender",
          "type": "address"
        },
        {
          "internalType": "uint256",
          "name": "amount",
          "type": "uint256"
        }
      ],
      "name": "approve",
      "outputs": [
        {
          "internalType": "bool",
          "name": "",
          "type": "bool"
        }
      ],
      "stateMutability": "nonpayable",
      "type": "function"
    },
    {
      "inputs": [
        {
          "internalType": "address",
          "name": "account",
          "type": "address"
        }
      ],
      "name": "balanceOf",
      "outputs": [
        {
          "internalType": "uint256",
          "name": "",
          "type": "uint256"
        }
      ],
      "stateMutability": "view",
      "type": "function"
    },
    {
      "inputs": [
        {
          "internalType": "uint256",
          "name": "amount",
          "type": "uint256"
        }
      ],
      "name": "burn",
      "outputs": [],
      "stateMutability": "nonpayable",
      "type": "function"
    },
    {
      "inputs": [
        {
          "internalType": "address",
          "name": "account",
          "type": "address"
        },
        {
          "internalType": "uint256",
          "name": "amount",
          "type": "uint256"
        }
      ],
      "name": "burnFrom",
      "outputs": [],
      "stateMutability": "nonpayable",
      "type": "function"
    },
    {
      "inputs": [],
      "name": "cap",
      "outputs": [
        {
          "internalType": "uint256",
          "name": "",
          "type": "uint256"
        }
      ],
      "stateMutability": "view",
      "type": "function"
    },
    {
      "inputs": [],
      "name": "decimals",
      "outputs": [
        {
          "internalType": "uint8",
          "name": "",
          "type": "uint8"
        }
      ],
      "stateMutability": "view",
      "type": "function"
    },
    {
      "inputs": [
        {
          "internalType": "address",
          "name": "spender",
          "type": "address"
        },
        {
          "internalType": "uint256",
          "name": "subtractedValue",
          "type": "uint256"
        }
      ],
      "name": "decreaseAllowance",
      "outputs": [
        {
          "internalType": "bool",
          "name": "",
          "type": "bool"
        }
      ],
      "stateMutability": "nonpayable",
      "type": "function"
    },
    {
      "inputs": [
        {
          "internalType": "address",
          "name": "spender",
          "type": "address"
        },
        {
          "internalType": "uint256",
          "name": "addedValue",
          "type": "uint256"
        }
      ],
      "name": "increaseAllowance",
      "outputs": [
        {
          "internalType": "bool",
          "name": "",
          "type": "bool"
        }
      ],
      "stateMutability": "nonpayable",
      "type": "function"
    },
    {
      "inputs": [],
      "name": "name",
      "outputs": [
        {
          "internalType": "string",
          "name": "",
          "type": "string"
        }
      ],
      "stateMutability": "view",
      "type": "function"
    },
    {
      "inputs": [],
      "name": "owner",
      "outputs": [
        {
          "internalType": "address payable",
          "name": "",
          "type": "address"
        }
      ],
      "stateMutability": "view",
      "type": "function"
    },
    {
      "inputs": [],
      "name": "symbol",
      "outputs": [
        {
          "internalType": "string",
          "name": "",
          "type": "string"
        }
      ],
      "stateMutability": "view",
      "type": "function"
    },
    {
      "inputs": [],
      "name": "totalSupply",
      "outputs": [
        {
          "internalType": "uint256",
          "name": "",
          "type": "uint256"
        }
      ],
      "stateMutability": "view",
      "type": "function"
    },
    {
      "inputs": [
        {
          "internalType": "address",
          "name": "to",
          "type": "address"
        },
        {
          "internalType": "uint256",
          "name": "amount",
          "type": "uint256"
        }
      ],
      "name": "transfer",
      "outputs": [
        {
          "internalType": "bool",
          "name": "",
          "type": "bool"
        }
      ],
      "stateMutability": "nonpayable",
      "type": "function"
    },
    {
      "inputs": [
        {
          "internalType": "address",
          "name": "from",
          "type": "address"
        },
        {
          "internalType": "address",
          "name": "to",
          "type": "address"
        },
        {
          "internalType": "uint256",
          "name": "amount",
          "type": "uint256"
        }
      ],
      "name": "transferFrom",
      "outputs": [
        {
          "internalType": "bool",
          "name": "",
          "type": "bool"
        }
      ],
      "stateMutability": "nonpayable",
      "type": "function"
    }
  ],
  "bytecode": "0x60a06040523480156200001157600080fd5b50604051620023fb380380620023fb833981810160405281019062000037919062000482565b806040518060400160405280600b81526020017f436f6d706169676e49434f0000000000000000000000000000000000000000008152506040518060400160405280600481526020017f4349434f000000000000000000000000000000000000000000000000000000008152508160039081620000b5919062000724565b508060049081620000c7919062000724565b5050506000811162000110576040517f08c379a000000000000000000000000000000000000000000000000000000000815260040162000107906200086c565b60405180910390fd5b80608081815250505033600560006101000a81548173ffffffffffffffffffffffffffffffffffffffff021916908373ffffffffffffffffffffffffffffffffffffffff1602179055506200018e600560009054906101000a900473ffffffffffffffffffffffffffffffffffffffff16826200019560201b60201c565b5062000a7c565b620001a56200022660201b60201c565b81620001bb6200023060201b620003eb1760201c565b620001c79190620008bd565b11156200020b576040517f08c379a0000000000000000000000000000000000000000000000000000000008152600401620002029062000948565b60405180910390fd5b6200022282826200023a60201b620006e11760201c565b5050565b6000608051905090565b6000600254905090565b6200024a6200022660201b60201c565b81620002606200023060201b620003eb1760201c565b6200026c9190620008bd565b1115620002b0576040517f08c379a0000000000000000000000000000000000000000000000000000000008152600401620002a790620009ba565b60405180910390fd5b620002c78282620002cb60201b6200074b1760201c565b5050565b600073ffffffffffffffffffffffffffffffffffffffff168273ffffffffffffffffffffffffffffffffffffffff16036200033d576040517f08c379a0000000000000000000000000000000000000000000000000000000008152600401620003349062000a2c565b60405180910390fd5b62000351600083836200043860201b60201c565b8060026000828254620003659190620008bd565b92505081905550806000808473ffffffffffffffffffffffffffffffffffffffff1673ffffffffffffffffffffffffffffffffffffffff168152602001908152602001600020600082825401925050819055508173ffffffffffffffffffffffffffffffffffffffff16600073ffffffffffffffffffffffffffffffffffffffff167fddf252ad1be2c89b69c2b068fc378daa952ba7f163c4a11628f55a4df523b3ef8360405162000418919062000a5f565b60405180910390a362000434600083836200043d60201b60201c565b5050565b505050565b505050565b600080fd5b6000819050919050565b6200045c8162000447565b81146200046857600080fd5b50565b6000815190506200047c8162000451565b92915050565b6000602082840312156200049b576200049a62000442565b5b6000620004ab848285016200046b565b91505092915050565b600081519050919050565b7f4e487b7100000000000000000000000000000000000000000000000000000000600052604160045260246000fd5b7f4e487b7100000000000000000000000000000000000000000000000000000000600052602260045260246000fd5b600060028204905060018216806200053657607f821691505b6020821081036200054c576200054b620004ee565b5b50919050565b60008190508160005260206000209050919050565b60006020601f8301049050919050565b600082821b905092915050565b600060088302620005b67fffffffffffffffffffffffffffffffffffffffffffffffffffffffffffffffff8262000577565b620005c2868362000577565b95508019841693508086168417925050509392505050565b6000819050919050565b600062000605620005ff620005f98462000447565b620005da565b62000447565b9050919050565b6000819050919050565b6200062183620005e4565b6200063962000630826200060c565b84845462000584565b825550505050565b600090565b6200065062000641565b6200065d81848462000616565b505050565b5b8181101562000685576200067960008262000646565b60018101905062000663565b5050565b601f821115620006d4576200069e8162000552565b620006a98462000567565b81016020851015620006b9578190505b620006d1620006c88562000567565b83018262000662565b50505b505050565b600082821c905092915050565b6000620006f960001984600802620006d9565b1980831691505092915050565b6000620007148383620006e6565b9150826002028217905092915050565b6200072f82620004b4565b67ffffffffffffffff8111156200074b576200074a620004bf565b5b6200075782546200051d565b6200076482828562000689565b600060209050601f8311600181146200079c576000841562000787578287015190505b62000793858262000706565b86555062000803565b601f198416620007ac8662000552565b60005b82811015620007d657848901518255600182019150602085019450602081019050620007af565b86831015620007f65784890151620007f2601f891682620006e6565b8355505b6001600288020188555050505b505050505050565b600082825260208201905092915050565b7f45524332304361707065643a2063617020697320300000000000000000000000600082015250565b6000620008546015836200080b565b915062000861826200081c565b602082019050919050565b60006020820190508181036000830152620008878162000845565b9050919050565b7f4e487b7100000000000000000000000000000000000000000000000000000000600052601160045260246000fd5b6000620008ca8262000447565b9150620008d78362000447565b9250828201905080821115620008f257620008f16200088e565b5b92915050565b7f45524332304361707065643a206d617820737570706c79207265616368656421600082015250565b6000620009306020836200080b565b91506200093d82620008f8565b602082019050919050565b60006020820190508181036000830152620009638162000921565b9050919050565b7f45524332304361707065643a2063617020657863656564656400000000000000600082015250565b6000620009a26019836200080b565b9150620009af826200096a565b602082019050919050565b60006020820190508181036000830152620009d58162000993565b9050919050565b7f45524332303a206d696e7420746f20746865207a65726f206164647265737300600082015250565b600062000a14601f836200080b565b915062000a2182620009dc565b602082019050919050565b6000602082019050818103600083015262000a478162000a05565b9050919050565b62000a598162000447565b82525050565b600060208201905062000a76600083018462000a4e565b92915050565b60805161196362000a98600039600061043101526119636000f3fe608060405234801561001057600080fd5b50600436106100f55760003560e01c806342966c681161009757806395d89b411161006657806395d89b4114610288578063a457c2d7146102a6578063a9059cbb146102d6578063dd62ed3e14610306576100f5565b806342966c681461020257806370a082311461021e57806379cc67901461024e5780638da5cb5b1461026a576100f5565b806323b872dd116100d357806323b872dd14610166578063313ce56714610196578063355274ea146101b457806339509351146101d2576100f5565b806306fdde03146100fa578063095ea7b31461011857806318160ddd14610148575b600080fd5b610102610336565b60405161010f9190610fdb565b60405180910390f35b610132600480360381019061012d9190611096565b6103c8565b60405161013f91906110f1565b60405180910390f35b6101506103eb565b60405161015d919061111b565b60405180910390f35b610180600480360381019061017b9190611136565b6103f5565b60405161018d91906110f1565b60405180910390f35b61019e610424565b6040516101ab91906111a5565b60405180910390f35b6101bc61042d565b6040516101c9919061111b565b60405180910390f35b6101ec60048036038101906101e79190611096565b610455565b6040516101f991906110f1565b60405180910390f35b61021c600480360381019061021791906111c0565b61048c565b005b610238600480360381019061023391906111ed565b6104a0565b604051610245919061111b565b60405180910390f35b61026860048036038101906102639190611096565b6104e8565b005b610272610508565b60405161027f919061123b565b60405180910390f35b61029061052e565b60405161029d9190610fdb565b60405180910390f35b6102c060048036038101906102bb9190611096565b6105c0565b6040516102cd91906110f1565b60405180910390f35b6102f060048036038101906102eb9190611096565b610637565b6040516102fd91906110f1565b60405180910390f35b610320600480360381019061031b9190611256565b61065a565b60405161032d919061111b565b60405180910390f35b606060038054610345906112c5565b80601f0160208091040260200160405190810160405280929190818152602001828054610371906112c5565b80156103be5780601f10610393576101008083540402835291602001916103be565b820191906000526020600020905b8154815290600101906020018083116103a157829003601f168201915b5050505050905090565b6000806103d36108a1565b90506103e08185856108a9565b600191505092915050565b6000600254905090565b6000806104006108a1565b905061040d858285610a72565b610418858585610afe565b60019150509392505050565b60006012905090565b60007f0000000000000000000000000000000000000000000000000000000000000000905090565b6000806104606108a1565b9050610481818585610472858961065a565b61047c9190611325565b6108a9565b600191505092915050565b61049d6104976108a1565b82610d74565b50565b60008060008373ffffffffffffffffffffffffffffffffffffffff1673ffffffffffffffffffffffffffffffffffffffff168152602001908152602001600020549050919050565b6104fa826104f46108a1565b83610a72565b6105048282610d74565b5050565b600560009054906101000a900473ffffffffffffffffffffffffffffffffffffffff1681565b60606004805461053d906112c5565b80601f0160208091040260200160405190810160405280929190818152602001828054610569906112c5565b80156105b65780601f1061058b576101008083540402835291602001916105b6565b820191906000526020600020905b81548152906001019060200180831161059957829003601f168201915b5050505050905090565b6000806105cb6108a1565b905060006105d9828661065a565b90508381101561061e576040517f08c379a0000000000000000000000000000000000000000000000000000000008152600401610615906113cb565b60405180910390fd5b61062b82868684036108a9565b60019250505092915050565b6000806106426108a1565b905061064f818585610afe565b600191505092915050565b6000600160008473ffffffffffffffffffffffffffffffffffffffff1673ffffffffffffffffffffffffffffffffffffffff16815260200190815260200160002060008373ffffffffffffffffffffffffffffffffffffffff1673ffffffffffffffffffffffffffffffffffffffff16815260200190815260200160002054905092915050565b6106e961042d565b816106f26103eb565b6106fc9190611325565b111561073d576040517f08c379a000000000000000000000000000000000000000000000000000000000815260040161073490611437565b60405180910390fd5b610747828261074b565b5050565b600073ffffffffffffffffffffffffffffffffffffffff168273ffffffffffffffffffffffffffffffffffffffff16036107ba576040517f08c379a00000000000000000000000000000000000000000000000000000000081526004016107b1906114a3565b60405180910390fd5b6107c660008383610f41565b80600260008282546107d89190611325565b92505081905550806000808473ffffffffffffffffffffffffffffffffffffffff1673ffffffffffffffffffffffffffffffffffffffff168152602001908152602001600020600082825401925050819055508173ffffffffffffffffffffffffffffffffffffffff16600073ffffffffffffffffffffffffffffffffffffffff167fddf252ad1be2c89b69c2b068fc378daa952ba7f163c4a11628f55a4df523b3ef83604051610889919061111b565b60405180910390a361089d60008383610f46565b5050565b600033905090565b600073ffffffffffffffffffffffffffffffffffffffff168373ffffffffffffffffffffffffffffffffffffffff1603610918576040517f08c379a000000000000000000000000000000000000000000000000000000000815260040161090f90611535565b60405180910390fd5b600073ffffffffffffffffffffffffffffffffffffffff168273ffffffffffffffffffffffffffffffffffffffff1603610987576040517f08c379a000000000000000000000000000000000000000000000000000000000815260040161097e906115c7565b60405180910390fd5b80600160008573ffffffffffffffffffffffffffffffffffffffff1673ffffffffffffffffffffffffffffffffffffffff16815260200190815260200160002060008473ffffffffffffffffffffffffffffffffffffffff1673ffffffffffffffffffffffffffffffffffffffff168152602001908152602001600020819055508173ffffffffffffffffffffffffffffffffffffffff168373ffffffffffffffffffffffffffffffffffffffff167f8c5be1e5ebec7d5bd14f71427d1e84f3dd0314c0f7b2291e5b200ac8c7c3b92583604051610a65919061111b565b60405180910390a3505050565b6000610a7e848461065a565b90507fffffffffffffffffffffffffffffffffffffffffffffffffffffffffffffffff8114610af85781811015610aea576040517f08c379a0000000000000000000000000000000000000000000000000000000008152600401610ae190611633565b60405180910390fd5b610af784848484036108a9565b5b50505050565b600073ffffffffffffffffffffffffffffffffffffffff168373ffffffffffffffffffffffffffffffffffffffff1603610b6d576040517f08c379a0000000000000000000000000000000000000000000000000000000008152600401610b64906116c5565b60405180910390fd5b600073ffffffffffffffffffffffffffffffffffffffff168273ffffffffffffffffffffffffffffffffffffffff1603610bdc576040517f08c379a0000000000000000000000000000000000000000000000000000000008152600401610bd390611757565b60405180910390fd5b610be7838383610f41565b60008060008573ffffffffffffffffffffffffffffffffffffffff1673ffffffffffffffffffffffffffffffffffffffff16815260200190815260200160002054905081811015610c6d576040517f08c379a0000000000000000000000000000000000000000000000000000000008152600401610c64906117e9565b60405180910390fd5b8181036000808673ffffffffffffffffffffffffffffffffffffffff1673ffffffffffffffffffffffffffffffffffffffff16815260200190815260200160002081905550816000808573ffffffffffffffffffffffffffffffffffffffff1673ffffffffffffffffffffffffffffffffffffffff168152602001908152602001600020600082825401925050819055508273ffffffffffffffffffffffffffffffffffffffff168473ffffffffffffffffffffffffffffffffffffffff167fddf252ad1be2c89b69c2b068fc378daa952ba7f163c4a11628f55a4df523b3ef84604051610d5b919061111b565b60405180910390a3610d6e848484610f46565b50505050565b600073ffffffffffffffffffffffffffffffffffffffff168273ffffffffffffffffffffffffffffffffffffffff1603610de3576040517f08c379a0000000000000000000000000000000000000000000000000000000008152600401610dda9061187b565b60405180910390fd5b610def82600083610f41565b60008060008473ffffffffffffffffffffffffffffffffffffffff1673ffffffffffffffffffffffffffffffffffffffff16815260200190815260200160002054905081811015610e75576040517f08c379a0000000000000000000000000000000000000000000000000000000008152600401610e6c9061190d565b60405180910390fd5b8181036000808573ffffffffffffffffffffffffffffffffffffffff1673ffffffffffffffffffffffffffffffffffffffff1681526020019081526020016000208190555081600260008282540392505081905550600073ffffffffffffffffffffffffffffffffffffffff168373ffffffffffffffffffffffffffffffffffffffff167fddf252ad1be2c89b69c2b068fc378daa952ba7f163c4a11628f55a4df523b3ef84604051610f28919061111b565b60405180910390a3610f3c83600084610f46565b505050565b505050565b505050565b600081519050919050565b600082825260208201905092915050565b60005b83811015610f85578082015181840152602081019050610f6a565b60008484015250505050565b6000601f19601f8301169050919050565b6000610fad82610f4b565b610fb78185610f56565b9350610fc7818560208601610f67565b610fd081610f91565b840191505092915050565b60006020820190508181036000830152610ff58184610fa2565b905092915050565b600080fd5b600073ffffffffffffffffffffffffffffffffffffffff82169050919050565b600061102d82611002565b9050919050565b61103d81611022565b811461104857600080fd5b50565b60008135905061105a81611034565b92915050565b6000819050919050565b61107381611060565b811461107e57600080fd5b50565b6000813590506110908161106a565b92915050565b600080604083850312156110ad576110ac610ffd565b5b60006110bb8582860161104b565b92505060206110cc85828601611081565b9150509250929050565b60008115159050919050565b6110eb816110d6565b82525050565b600060208201905061110660008301846110e2565b92915050565b61111581611060565b82525050565b6000602082019050611130600083018461110c565b92915050565b60008060006060848603121561114f5761114e610ffd565b5b600061115d8682870161104b565b935050602061116e8682870161104b565b925050604061117f86828701611081565b9150509250925092565b600060ff82169050919050565b61119f81611189565b82525050565b60006020820190506111ba6000830184611196565b92915050565b6000602082840312156111d6576111d5610ffd565b5b60006111e484828501611081565b91505092915050565b60006020828403121561120357611202610ffd565b5b60006112118482850161104b565b91505092915050565b600061122582611002565b9050919050565b6112358161121a565b82525050565b6000602082019050611250600083018461122c565b92915050565b6000806040838503121561126d5761126c610ffd565b5b600061127b8582860161104b565b925050602061128c8582860161104b565b9150509250929050565b7f4e487b7100000000000000000000000000000000000000000000000000000000600052602260045260246000fd5b600060028204905060018216806112dd57607f821691505b6020821081036112f0576112ef611296565b5b50919050565b7f4e487b7100000000000000000000000000000000000000000000000000000000600052601160045260246000fd5b600061133082611060565b915061133b83611060565b9250828201905080821115611353576113526112f6565b5b92915050565b7f45524332303a2064656372656173656420616c6c6f77616e63652062656c6f7760008201527f207a65726f000000000000000000000000000000000000000000000000000000602082015250565b60006113b5602583610f56565b91506113c082611359565b604082019050919050565b600060208201905081810360008301526113e4816113a8565b9050919050565b7f45524332304361707065643a2063617020657863656564656400000000000000600082015250565b6000611421601983610f56565b915061142c826113eb565b602082019050919050565b6000602082019050818103600083015261145081611414565b9050919050565b7f45524332303a206d696e7420746f20746865207a65726f206164647265737300600082015250565b600061148d601f83610f56565b915061149882611457565b602082019050919050565b600060208201905081810360008301526114bc81611480565b9050919050565b7f45524332303a20617070726f76652066726f6d20746865207a65726f2061646460008201527f7265737300000000000000000000000000000000000000000000000000000000602082015250565b600061151f602483610f56565b915061152a826114c3565b604082019050919050565b6000602082019050818103600083015261154e81611512565b9050919050565b7f45524332303a20617070726f766520746f20746865207a65726f20616464726560008201527f7373000000000000000000000000000000000000000000000000000000000000602082015250565b60006115b1602283610f56565b91506115bc82611555565b604082019050919050565b600060208201905081810360008301526115e0816115a4565b9050919050565b7f45524332303a20696e73756666696369656e7420616c6c6f77616e6365000000600082015250565b600061161d601d83610f56565b9150611628826115e7565b602082019050919050565b6000602082019050818103600083015261164c81611610565b9050919050565b7f45524332303a207472616e736665722066726f6d20746865207a65726f20616460008201527f6472657373000000000000000000000000000000000000000000000000000000602082015250565b60006116af602583610f56565b91506116ba82611653565b604082019050919050565b600060208201905081810360008301526116de816116a2565b9050919050565b7f45524332303a207472616e7366657220746f20746865207a65726f206164647260008201527f6573730000000000000000000000000000000000000000000000000000000000602082015250565b6000611741602383610f56565b915061174c826116e5565b604082019050919050565b6000602082019050818103600083015261177081611734565b9050919050565b7f45524332303a207472616e7366657220616d6f756e742065786365656473206260008201527f616c616e63650000000000000000000000000000000000000000000000000000602082015250565b60006117d3602683610f56565b91506117de82611777565b604082019050919050565b60006020820190508181036000830152611802816117c6565b9050919050565b7f45524332303a206275726e2066726f6d20746865207a65726f2061646472657360008201527f7300000000000000000000000000000000000000000000000000000000000000602082015250565b6000611865602183610f56565b915061187082611809565b604082019050919050565b6000602082019050818103600083015261189481611858565b9050919050565b7f45524332303a206275726e20616d6f756e7420657863656564732062616c616e60008201527f6365000000000000000000000000000000000000000000000000000000000000602082015250565b60006118f7602283610f56565b91506119028261189b565b604082019050919050565b60006020820190508181036000830152611926816118ea565b905091905056fea2646970667358221220c48de2005dea3a7cb4181d8af15041d267e3c44c519c8560e09de94a0587a84964736f6c63430008120033",
  "linkReferences": {},
  "deployedLinkReferences": {}
}