{
  "_format": "hh-sol-artifact-1",
  "contractName": "ICOToken",
  "sourceName": "contracts/ICOToken.sol",
  "abi": [
    {
      "inputs": [
        {
          "internalType": "address",
          "name": "_campaign",
          "type": "address"
        },
        {
          "internalType": "uint256",
          "name": "_cap",
          "type": "uint256"
        }
      ],
      "stateMutability": "nonpayable",
      "type": "constructor"
    },
    {
      "anonymous": false,
      "inputs": [
        {
          "indexed": true,
          "internalType": "address",
          "name": "owner",
          "type": "address"
        },
        {
          "indexed": true,
          "internalType": "address",
          "name": "spender",
          "type": "address"
        },
        {
          "indexed": false,
          "internalType": "uint256",
          "name": "value",
          "type": "uint256"
        }
      ],
      "name": "Approval",
      "type": "event"
    },
    {
      "anonymous": false,
      "inputs": [
        {
          "indexed": true,
          "internalType": "address",
          "name": "from",
          "type": "address"
        },
        {
          "indexed": true,
          "internalType": "address",
          "name": "to",
          "type": "address"
        },
        {
          "indexed": false,
          "internalType": "uint256",
          "name": "value",
          "type": "uint256"
        }
      ],
      "name": "Transfer",
      "type": "event"
    },
    {
      "inputs": [
        {
          "internalType": "address",
          "name": "owner",
          "type": "address"
        },
        {
          "internalType": "address",
          "name": "spender",
          "type": "address"
        }
      ],
      "name": "allowance",
      "outputs": [
        {
          "internalType": "uint256",
          "name": "",
          "type": "uint256"
        }
      ],
      "stateMutability": "view",
      "type": "function"
    },
    {
      "inputs": [
        {
          "internalType": "address",
          "name": "spender",
          "type": "address"
        },
        {
          "internalType": "uint256",
          "name": "amount",
          "type": "uint256"
        }
      ],
      "name": "approve",
      "outputs": [
        {
          "internalType": "bool",
          "name": "",
          "type": "bool"
        }
      ],
      "stateMutability": "nonpayable",
      "type": "function"
    },
    {
      "inputs": [
        {
          "internalType": "address",
          "name": "account",
          "type": "address"
        }
      ],
      "name": "balanceOf",
      "outputs": [
        {
          "internalType": "uint256",
          "name": "",
          "type": "uint256"
        }
      ],
      "stateMutability": "view",
      "type": "function"
    },
    {
      "inputs": [
        {
          "internalType": "uint256",
          "name": "amount",
          "type": "uint256"
        }
      ],
      "name": "burn",
      "outputs": [],
      "stateMutability": "nonpayable",
      "type": "function"
    },
    {
      "inputs": [
        {
          "internalType": "address",
          "name": "account",
          "type": "address"
        },
        {
          "internalType": "uint256",
          "name": "amount",
          "type": "uint256"
        }
      ],
      "name": "burnFrom",
      "outputs": [],
      "stateMutability": "nonpayable",
      "type": "function"
    },
    {
      "inputs": [],
      "name": "cap",
      "outputs": [
        {
          "internalType": "uint256",
          "name": "",
          "type": "uint256"
        }
      ],
      "stateMutability": "view",
      "type": "function"
    },
    {
      "inputs": [],
      "name": "decimals",
      "outputs": [
        {
          "internalType": "uint8",
          "name": "",
          "type": "uint8"
        }
      ],
      "stateMutability": "view",
      "type": "function"
    },
    {
      "inputs": [
        {
          "internalType": "address",
          "name": "spender",
          "type": "address"
        },
        {
          "internalType": "uint256",
          "name": "subtractedValue",
          "type": "uint256"
        }
      ],
      "name": "decreaseAllowance",
      "outputs": [
        {
          "internalType": "bool",
          "name": "",
          "type": "bool"
        }
      ],
      "stateMutability": "nonpayable",
      "type": "function"
    },
    {
      "inputs": [
        {
          "internalType": "address",
          "name": "spender",
          "type": "address"
        },
        {
          "internalType": "uint256",
          "name": "addedValue",
          "type": "uint256"
        }
      ],
      "name": "increaseAllowance",
      "outputs": [
        {
          "internalType": "bool",
          "name": "",
          "type": "bool"
        }
      ],
      "stateMutability": "nonpayable",
      "type": "function"
    },
    {
      "inputs": [],
      "name": "name",
      "outputs": [
        {
          "internalType": "string",
          "name": "",
          "type": "string"
        }
      ],
      "stateMutability": "view",
      "type": "function"
    },
    {
      "inputs": [],
      "name": "owner",
      "outputs": [
        {
          "internalType": "address payable",
          "name": "",
          "type": "address"
        }
      ],
      "stateMutability": "view",
      "type": "function"
    },
    {
      "inputs": [],
      "name": "symbol",
      "outputs": [
        {
          "internalType": "string",
          "name": "",
          "type": "string"
        }
      ],
      "stateMutability": "view",
      "type": "function"
    },
    {
      "inputs": [],
      "name": "totalSupply",
      "outputs": [
        {
          "internalType": "uint256",
          "name": "",
          "type": "uint256"
        }
      ],
      "stateMutability": "view",
      "type": "function"
    },
    {
      "inputs": [
        {
          "internalType": "address",
          "name": "to",
          "type": "address"
        },
        {
          "internalType": "uint256",
          "name": "amount",
          "type": "uint256"
        }
      ],
      "name": "transfer",
      "outputs": [
        {
          "internalType": "bool",
          "name": "",
          "type": "bool"
        }
      ],
      "stateMutability": "nonpayable",
      "type": "function"
    },
    {
      "inputs": [
        {
          "internalType": "address",
          "name": "from",
          "type": "address"
        },
        {
          "internalType": "address",
          "name": "to",
          "type": "address"
        },
        {
          "internalType": "uint256",
          "name": "amount",
          "type": "uint256"
        }
      ],
      "name": "transferFrom",
      "outputs": [
        {
          "internalType": "bool",
          "name": "",
          "type": "bool"
        }
      ],
      "stateMutability": "nonpayable",
      "type": "function"
    }
  ],
  "bytecode": "0x60a06040523480156200001157600080fd5b50604051620011fc380380620011fc83398101604081905262000034916200033d565b6200003f816200012c565b6040518060400160405280600b81526020016a436f6d706169676e49434f60a81b815250604051806040016040528060048152602001634349434f60e01b81525081600390816200009191906200041d565b506004620000a082826200041d565b50505060008111620000f95760405162461bcd60e51b815260206004820152601560248201527f45524332304361707065643a206361702069732030000000000000000000000060448201526064015b60405180910390fd5b608052600580546001600160a01b0319163317905562000124826200011e836200012c565b6200014e565b505062000644565b60006200013c6012600a620005fc565b62000148908362000614565b92915050565b6080518162000167620001de60201b620002f11760201c565b6200017391906200062e565b1115620001c35760405162461bcd60e51b815260206004820181905260248201527f45524332304361707065643a206d617820737570706c792072656163686564216044820152606401620000f0565b620001da8282620001e460201b6200042b1760201c565b5050565b60025490565b60805181620001fd620001de60201b620002f11760201c565b6200020991906200062e565b1115620002595760405162461bcd60e51b815260206004820152601960248201527f45524332304361707065643a20636170206578636565646564000000000000006044820152606401620000f0565b620001da82826200027060201b620004b01760201c565b6001600160a01b038216620002c85760405162461bcd60e51b815260206004820152601f60248201527f45524332303a206d696e7420746f20746865207a65726f2061646472657373006044820152606401620000f0565b8060026000828254620002dc91906200062e565b90915550506001600160a01b038216600081815260208181526040808320805486019055518481527fddf252ad1be2c89b69c2b068fc378daa952ba7f163c4a11628f55a4df523b3ef910160405180910390a3620001da600083835b505050565b600080604083850312156200035157600080fd5b82516001600160a01b03811681146200036957600080fd5b6020939093015192949293505050565b634e487b7160e01b600052604160045260246000fd5b600181811c90821680620003a457607f821691505b602082108103620003c557634e487b7160e01b600052602260045260246000fd5b50919050565b601f8211156200033857600081815260208120601f850160051c81016020861015620003f45750805b601f850160051c820191505b81811015620004155782815560010162000400565b505050505050565b81516001600160401b0381111562000439576200043962000379565b62000451816200044a84546200038f565b84620003cb565b602080601f831160018114620004895760008415620004705750858301515b600019600386901b1c1916600185901b17855562000415565b600085815260208120601f198616915b82811015620004ba5788860151825594840194600190910190840162000499565b5085821015620004d95787850151600019600388901b60f8161c191681555b5050505050600190811b01905550565b634e487b7160e01b600052601160045260246000fd5b600181815b8085111562000540578160001904821115620005245762000524620004e9565b808516156200053257918102915b93841c939080029062000504565b509250929050565b600082620005595750600162000148565b81620005685750600062000148565b81600181146200058157600281146200058c57620005ac565b600191505062000148565b60ff841115620005a057620005a0620004e9565b50506001821b62000148565b5060208310610133831016604e8410600b8410161715620005d1575081810a62000148565b620005dd8383620004ff565b8060001904821115620005f457620005f4620004e9565b029392505050565b60006200060d60ff84168362000548565b9392505050565b8082028115828204841417620001485762000148620004e9565b80820180821115620001485762000148620004e9565b608051610b956200066760003960008181610151015261042d0152610b956000f3fe608060405234801561001057600080fd5b50600436106100d55760003560e01c806342966c681161008757806342966c681461018857806370a082311461019d57806379cc6790146101c65780638da5cb5b146101d957806395d89b4114610204578063a457c2d71461020c578063a9059cbb1461021f578063dd62ed3e1461023257600080fd5b806306fdde03146100da578063095ea7b3146100f857806318160ddd1461011b57806323b872dd1461012d578063313ce56714610140578063355274ea1461014f5780633950935114610175575b600080fd5b6100e2610245565b6040516100ef91906109a6565b60405180910390f35b61010b610106366004610a10565b6102d7565b60405190151581526020016100ef565b6002545b6040519081526020016100ef565b61010b61013b366004610a3a565b6102f7565b604051601281526020016100ef565b7f000000000000000000000000000000000000000000000000000000000000000061011f565b61010b610183366004610a10565b61031b565b61019b610196366004610a76565b61033d565b005b61011f6101ab366004610a8f565b6001600160a01b031660009081526020819052604090205490565b61019b6101d4366004610a10565b61034a565b6005546101ec906001600160a01b031681565b6040516001600160a01b0390911681526020016100ef565b6100e2610363565b61010b61021a366004610a10565b610372565b61010b61022d366004610a10565b6103f2565b61011f610240366004610ab1565b610400565b60606003805461025490610ae4565b80601f016020809104026020016040519081016040528092919081815260200182805461028090610ae4565b80156102cd5780601f106102a2576101008083540402835291602001916102cd565b820191906000526020600020905b8154815290600101906020018083116102b057829003601f168201915b5050505050905090565b6000336102e581858561055d565b60019150505b92915050565b60025490565b600033610305858285610682565b6103108585856106fc565b506001949350505050565b6000336102e581858561032e8383610400565b6103389190610b1e565b61055d565b610347338261088e565b50565b610355823383610682565b61035f828261088e565b5050565b60606004805461025490610ae4565b600033816103808286610400565b9050838110156103e55760405162461bcd60e51b815260206004820152602560248201527f45524332303a2064656372656173656420616c6c6f77616e63652062656c6f77604482015264207a65726f60d81b60648201526084015b60405180910390fd5b610310828686840361055d565b6000336102e58185856106fc565b6001600160a01b03918216600090815260016020908152604080832093909416825291909152205490565b7f00000000000000000000000000000000000000000000000000000000000000008161045660025490565b6104609190610b1e565b11156104aa5760405162461bcd60e51b8152602060048201526019602482015278115490cc8c10d85c1c19590e8818d85c08195e18d959591959603a1b60448201526064016103dc565b61035f82825b6001600160a01b0382166105065760405162461bcd60e51b815260206004820152601f60248201527f45524332303a206d696e7420746f20746865207a65726f20616464726573730060448201526064016103dc565b80600260008282546105189190610b1e565b90915550506001600160a01b03821660008181526020818152604080832080548601905551848152600080516020610b40833981519152910160405180910390a35050565b6001600160a01b0383166105bf5760405162461bcd60e51b8152602060048201526024808201527f45524332303a20617070726f76652066726f6d20746865207a65726f206164646044820152637265737360e01b60648201526084016103dc565b6001600160a01b0382166106205760405162461bcd60e51b815260206004820152602260248201527f45524332303a20617070726f766520746f20746865207a65726f206164647265604482015261737360f01b60648201526084016103dc565b6001600160a01b0383811660008181526001602090815260408083209487168084529482529182902085905590518481527f8c5be1e5ebec7d5bd14f71427d1e84f3dd0314c0f7b2291e5b200ac8c7c3b92591015b60405180910390a3505050565b600061068e8484610400565b905060001981146106f657818110156106e95760405162461bcd60e51b815260206004820152601d60248201527f45524332303a20696e73756666696369656e7420616c6c6f77616e636500000060448201526064016103dc565b6106f6848484840361055d565b50505050565b6001600160a01b0383166107605760405162461bcd60e51b815260206004820152602560248201527f45524332303a207472616e736665722066726f6d20746865207a65726f206164604482015264647265737360d81b60648201526084016103dc565b6001600160a01b0382166107c25760405162461bcd60e51b815260206004820152602360248201527f45524332303a207472616e7366657220746f20746865207a65726f206164647260448201526265737360e81b60648201526084016103dc565b6001600160a01b0383166000908152602081905260409020548181101561083a5760405162461bcd60e51b815260206004820152602660248201527f45524332303a207472616e7366657220616d6f756e7420657863656564732062604482015265616c616e636560d01b60648201526084016103dc565b6001600160a01b0384811660008181526020818152604080832087870390559387168083529184902080548701905592518581529092600080516020610b40833981519152910160405180910390a36106f6565b6001600160a01b0382166108ee5760405162461bcd60e51b815260206004820152602160248201527f45524332303a206275726e2066726f6d20746865207a65726f206164647265736044820152607360f81b60648201526084016103dc565b6001600160a01b038216600090815260208190526040902054818110156109625760405162461bcd60e51b815260206004820152602260248201527f45524332303a206275726e20616d6f756e7420657863656564732062616c616e604482015261636560f01b60648201526084016103dc565b6001600160a01b038316600081815260208181526040808320868603905560028054879003905551858152919291600080516020610b408339815191529101610675565b600060208083528351808285015260005b818110156109d3578581018301518582016040015282016109b7565b506000604082860101526040601f19601f8301168501019250505092915050565b80356001600160a01b0381168114610a0b57600080fd5b919050565b60008060408385031215610a2357600080fd5b610a2c836109f4565b946020939093013593505050565b600080600060608486031215610a4f57600080fd5b610a58846109f4565b9250610a66602085016109f4565b9150604084013590509250925092565b600060208284031215610a8857600080fd5b5035919050565b600060208284031215610aa157600080fd5b610aaa826109f4565b9392505050565b60008060408385031215610ac457600080fd5b610acd836109f4565b9150610adb602084016109f4565b90509250929050565b600181811c90821680610af857607f821691505b602082108103610b1857634e487b7160e01b600052602260045260246000fd5b50919050565b808201808211156102eb57634e487b7160e01b600052601160045260246000fdfeddf252ad1be2c89b69c2b068fc378daa952ba7f163c4a11628f55a4df523b3efa2646970667358221220fec9cd19eb576c5c980acc26629560b2babc05d22c528d2af101e418b621f0e964736f6c63430008120033",
  "linkReferences": {},
  "deployedLinkReferences": {}
}